{
  "_format": "hh-sol-artifact-1",
  "contractName": "CrossChainEscrowManager",
  "sourceName": "contracts/ccip/CrossChainEscrowManager.sol",
  "abi": [
    {
      "inputs": [
        {
          "internalType": "address",
          "name": "_router",
          "type": "address"
        },
        {
          "internalType": "address",
          "name": "_admin",
          "type": "address"
        }
      ],
      "stateMutability": "nonpayable",
      "type": "constructor"
    },
    {
      "inputs": [],
      "name": "AccessControlBadConfirmation",
      "type": "error"
    },
    {
      "inputs": [
        {
          "internalType": "address",
          "name": "account",
          "type": "address"
        },
        {
          "internalType": "bytes32",
          "name": "neededRole",
          "type": "bytes32"
        }
      ],
      "name": "AccessControlUnauthorizedAccount",
      "type": "error"
    },
    {
      "inputs": [],
      "name": "EnforcedPause",
      "type": "error"
    },
    {
      "inputs": [],
      "name": "ExpectedPause",
      "type": "error"
    },
    {
      "inputs": [],
      "name": "InvalidRemoteManager",
      "type": "error"
    },
    {
      "inputs": [
        {
          "internalType": "enum CrossChainEscrowManager.JobStatus",
          "name": "current",
          "type": "uint8"
        },
        {
          "internalType": "enum CrossChainEscrowManager.JobStatus",
          "name": "required",
          "type": "uint8"
        }
      ],
      "name": "InvalidStatus",
      "type": "error"
    },
    {
      "inputs": [
        {
          "internalType": "uint256",
          "name": "jobId",
          "type": "uint256"
        }
      ],
      "name": "JobNotFound",
      "type": "error"
    },
    {
      "inputs": [
        {
          "internalType": "bytes32",
          "name": "messageId",
          "type": "bytes32"
        }
      ],
      "name": "MessageAlreadyProcessed",
      "type": "error"
    },
    {
      "inputs": [],
      "name": "NotAuthorized",
      "type": "error"
    },
    {
      "inputs": [],
      "name": "ReentrancyGuardReentrantCall",
      "type": "error"
    },
    {
      "inputs": [
        {
          "internalType": "uint64",
          "name": "chainSelector",
          "type": "uint64"
        }
      ],
      "name": "UnsupportedChain",
      "type": "error"
    },
    {
      "anonymous": false,
      "inputs": [
        {
          "indexed": true,
          "internalType": "uint256",
          "name": "localJobId",
          "type": "uint256"
        },
        {
          "indexed": false,
          "internalType": "bytes32",
          "name": "messageId",
          "type": "bytes32"
        }
      ],
      "name": "CrossChainDisputeInitiated",
      "type": "event"
    },
    {
      "anonymous": false,
      "inputs": [
        {
          "indexed": true,
          "internalType": "uint256",
          "name": "localJobId",
          "type": "uint256"
        },
        {
          "indexed": true,
          "internalType": "address",
          "name": "freelancer",
          "type": "address"
        },
        {
          "indexed": false,
          "internalType": "bytes32",
          "name": "messageId",
          "type": "bytes32"
        }
      ],
      "name": "CrossChainJobAccepted",
      "type": "event"
    },
    {
      "anonymous": false,
      "inputs": [
        {
          "indexed": true,
          "internalType": "uint256",
          "name": "localJobId",
          "type": "uint256"
        },
        {
          "indexed": false,
          "internalType": "bytes32",
          "name": "messageId",
          "type": "bytes32"
        }
      ],
      "name": "CrossChainJobCancelled",
      "type": "event"
    },
    {
      "anonymous": false,
      "inputs": [
        {
          "indexed": true,
          "internalType": "uint256",
          "name": "localJobId",
          "type": "uint256"
        },
        {
          "indexed": true,
          "internalType": "uint64",
          "name": "destinationChain",
          "type": "uint64"
        },
        {
          "indexed": true,
          "internalType": "address",
          "name": "client",
          "type": "address"
        },
        {
          "indexed": false,
          "internalType": "uint256",
          "name": "amount",
          "type": "uint256"
        },
        {
          "indexed": false,
          "internalType": "bytes32",
          "name": "messageId",
          "type": "bytes32"
        }
      ],
      "name": "CrossChainJobCreated",
      "type": "event"
    },
    {
      "anonymous": false,
      "inputs": [
        {
          "indexed": true,
          "internalType": "uint256",
          "name": "localJobId",
          "type": "uint256"
        },
        {
          "indexed": false,
          "internalType": "uint256",
          "name": "amount",
          "type": "uint256"
        },
        {
          "indexed": false,
          "internalType": "bytes32",
          "name": "messageId",
          "type": "bytes32"
        }
      ],
      "name": "CrossChainPaymentReleased",
      "type": "event"
    },
    {
      "anonymous": false,
      "inputs": [
        {
          "indexed": true,
          "internalType": "bytes32",
          "name": "messageId",
          "type": "bytes32"
        },
        {
          "indexed": true,
          "internalType": "uint64",
          "name": "sourceChain",
          "type": "uint64"
        },
        {
          "indexed": false,
          "internalType": "enum CrossChainEscrowManager.MessageType",
          "name": "messageType",
          "type": "uint8"
        }
      ],
      "name": "MessageReceived",
      "type": "event"
    },
    {
      "anonymous": false,
      "inputs": [
        {
          "indexed": false,
          "internalType": "address",
          "name": "account",
          "type": "address"
        }
      ],
      "name": "Paused",
      "type": "event"
    },
    {
      "anonymous": false,
      "inputs": [
        {
          "indexed": true,
          "internalType": "uint64",
          "name": "chainSelector",
          "type": "uint64"
        },
        {
          "indexed": false,
          "internalType": "address",
          "name": "manager",
          "type": "address"
        }
      ],
      "name": "RemoteManagerSet",
      "type": "event"
    },
    {
      "anonymous": false,
      "inputs": [
        {
          "indexed": true,
          "internalType": "bytes32",
          "name": "role",
          "type": "bytes32"
        },
        {
          "indexed": true,
          "internalType": "bytes32",
          "name": "previousAdminRole",
          "type": "bytes32"
        },
        {
          "indexed": true,
          "internalType": "bytes32",
          "name": "newAdminRole",
          "type": "bytes32"
        }
      ],
      "name": "RoleAdminChanged",
      "type": "event"
    },
    {
      "anonymous": false,
      "inputs": [
        {
          "indexed": true,
          "internalType": "bytes32",
          "name": "role",
          "type": "bytes32"
        },
        {
          "indexed": true,
          "internalType": "address",
          "name": "account",
          "type": "address"
        },
        {
          "indexed": true,
          "internalType": "address",
          "name": "sender",
          "type": "address"
        }
      ],
      "name": "RoleGranted",
      "type": "event"
    },
    {
      "anonymous": false,
      "inputs": [
        {
          "indexed": true,
          "internalType": "bytes32",
          "name": "role",
          "type": "bytes32"
        },
        {
          "indexed": true,
          "internalType": "address",
          "name": "account",
          "type": "address"
        },
        {
          "indexed": true,
          "internalType": "address",
          "name": "sender",
          "type": "address"
        }
      ],
      "name": "RoleRevoked",
      "type": "event"
    },
    {
      "anonymous": false,
      "inputs": [
        {
          "indexed": false,
          "internalType": "address",
          "name": "account",
          "type": "address"
        }
      ],
      "name": "Unpaused",
      "type": "event"
    },
    {
      "inputs": [],
      "name": "DEFAULT_ADMIN_ROLE",
      "outputs": [
        {
          "internalType": "bytes32",
          "name": "",
          "type": "bytes32"
        }
      ],
      "stateMutability": "view",
      "type": "function"
    },
    {
      "inputs": [],
      "name": "MANAGER_ROLE",
      "outputs": [
        {
          "internalType": "bytes32",
          "name": "",
          "type": "bytes32"
        }
      ],
      "stateMutability": "view",
      "type": "function"
    },
    {
      "inputs": [],
      "name": "PAUSER_ROLE",
      "outputs": [
        {
          "internalType": "bytes32",
          "name": "",
          "type": "bytes32"
        }
      ],
      "stateMutability": "view",
      "type": "function"
    },
    {
      "inputs": [
        {
          "internalType": "uint256",
          "name": "localJobId",
          "type": "uint256"
        }
      ],
      "name": "acceptCrossChainJob",
      "outputs": [
        {
          "internalType": "bytes32",
          "name": "messageId",
          "type": "bytes32"
        }
      ],
      "stateMutability": "payable",
      "type": "function"
    },
    {
      "inputs": [
        {
          "internalType": "uint256",
          "name": "localJobId",
          "type": "uint256"
        }
      ],
      "name": "cancelCrossChainJob",
      "outputs": [
        {
          "internalType": "bytes32",
          "name": "messageId",
          "type": "bytes32"
        }
      ],
      "stateMutability": "payable",
      "type": "function"
    },
    {
      "inputs": [
        {
          "components": [
            {
              "internalType": "bytes32",
              "name": "messageId",
              "type": "bytes32"
            },
            {
              "internalType": "uint64",
              "name": "sourceChainSelector",
              "type": "uint64"
            },
            {
              "internalType": "bytes",
              "name": "sender",
              "type": "bytes"
            },
            {
              "internalType": "bytes",
              "name": "data",
              "type": "bytes"
            },
            {
              "components": [
                {
                  "internalType": "address",
                  "name": "token",
                  "type": "address"
                },
                {
                  "internalType": "uint256",
                  "name": "amount",
                  "type": "uint256"
                }
              ],
              "internalType": "struct Client.EVMTokenAmount[]",
              "name": "destTokenAmounts",
              "type": "tuple[]"
            }
          ],
          "internalType": "struct Client.Any2EVMMessage",
          "name": "message",
          "type": "tuple"
        }
      ],
      "name": "ccipReceive",
      "outputs": [],
      "stateMutability": "nonpayable",
      "type": "function"
    },
    {
      "inputs": [],
      "name": "ccipRouter",
      "outputs": [
        {
          "internalType": "contract IRouterClient",
          "name": "",
          "type": "address"
        }
      ],
      "stateMutability": "view",
      "type": "function"
    },
    {
      "inputs": [
        {
          "internalType": "uint64",
          "name": "destinationChain",
          "type": "uint64"
        },
        {
          "internalType": "address",
          "name": "freelancer",
          "type": "address"
        },
        {
          "internalType": "uint256",
          "name": "amount",
          "type": "uint256"
        },
        {
          "internalType": "address",
          "name": "token",
          "type": "address"
        },
        {
          "internalType": "bytes",
          "name": "jobData",
          "type": "bytes"
        }
      ],
      "name": "createCrossChainJob",
      "outputs": [
        {
          "internalType": "uint256",
          "name": "localJobId",
          "type": "uint256"
        },
        {
          "internalType": "bytes32",
          "name": "messageId",
          "type": "bytes32"
        }
      ],
      "stateMutability": "payable",
      "type": "function"
    },
    {
      "inputs": [
        {
          "internalType": "uint256",
          "name": "",
          "type": "uint256"
        }
      ],
      "name": "crossChainJobs",
      "outputs": [
        {
          "internalType": "uint256",
          "name": "localJobId",
          "type": "uint256"
        },
        {
          "internalType": "uint256",
          "name": "remoteJobId",
          "type": "uint256"
        },
        {
          "internalType": "uint64",
          "name": "sourceChain",
          "type": "uint64"
        },
        {
          "internalType": "uint64",
          "name": "destinationChain",
          "type": "uint64"
        },
        {
          "internalType": "address",
          "name": "client",
          "type": "address"
        },
        {
          "internalType": "address",
          "name": "freelancer",
          "type": "address"
        },
        {
          "internalType": "uint256",
          "name": "amount",
          "type": "uint256"
        },
        {
          "internalType": "address",
          "name": "token",
          "type": "address"
        },
        {
          "internalType": "enum CrossChainEscrowManager.JobStatus",
          "name": "status",
          "type": "uint8"
        },
        {
          "internalType": "uint256",
          "name": "createdAt",
          "type": "uint256"
        },
        {
          "internalType": "bytes32",
          "name": "lastMessageId",
          "type": "bytes32"
        }
      ],
      "stateMutability": "view",
      "type": "function"
    },
    {
      "inputs": [
        {
          "internalType": "uint64",
          "name": "destinationChain",
          "type": "uint64"
        },
        {
          "internalType": "bytes",
          "name": "data",
          "type": "bytes"
        }
      ],
      "name": "estimateMessageFee",
      "outputs": [
        {
          "internalType": "uint256",
          "name": "fee",
          "type": "uint256"
        }
      ],
      "stateMutability": "view",
      "type": "function"
    },
    {
      "inputs": [
        {
          "internalType": "bytes32",
          "name": "role",
          "type": "bytes32"
        }
      ],
      "name": "getRoleAdmin",
      "outputs": [
        {
          "internalType": "bytes32",
          "name": "",
          "type": "bytes32"
        }
      ],
      "stateMutability": "view",
      "type": "function"
    },
    {
      "inputs": [],
      "name": "getRouter",
      "outputs": [
        {
          "internalType": "address",
          "name": "",
          "type": "address"
        }
      ],
      "stateMutability": "view",
      "type": "function"
    },
    {
      "inputs": [
        {
          "internalType": "address",
          "name": "user",
          "type": "address"
        },
        {
          "internalType": "uint64",
          "name": "chainSelector",
          "type": "uint64"
        }
      ],
      "name": "getUserJobsByChain",
      "outputs": [
        {
          "internalType": "uint256[]",
          "name": "",
          "type": "uint256[]"
        }
      ],
      "stateMutability": "view",
      "type": "function"
    },
    {
      "inputs": [
        {
          "internalType": "bytes32",
          "name": "role",
          "type": "bytes32"
        },
        {
          "internalType": "address",
          "name": "account",
          "type": "address"
        }
      ],
      "name": "grantRole",
      "outputs": [],
      "stateMutability": "nonpayable",
      "type": "function"
    },
    {
      "inputs": [
        {
          "internalType": "bytes32",
          "name": "role",
          "type": "bytes32"
        },
        {
          "internalType": "address",
          "name": "account",
          "type": "address"
        }
      ],
      "name": "hasRole",
      "outputs": [
        {
          "internalType": "bool",
          "name": "",
          "type": "bool"
        }
      ],
      "stateMutability": "view",
      "type": "function"
    },
    {
      "inputs": [
        {
          "internalType": "uint256",
          "name": "localJobId",
          "type": "uint256"
        },
        {
          "internalType": "string",
          "name": "evidence",
          "type": "string"
        }
      ],
      "name": "initiateCrossChainDispute",
      "outputs": [
        {
          "internalType": "bytes32",
          "name": "messageId",
          "type": "bytes32"
        }
      ],
      "stateMutability": "payable",
      "type": "function"
    },
    {
      "inputs": [],
      "name": "nextJobId",
      "outputs": [
        {
          "internalType": "uint256",
          "name": "",
          "type": "uint256"
        }
      ],
      "stateMutability": "view",
      "type": "function"
    },
    {
      "inputs": [],
      "name": "pause",
      "outputs": [],
      "stateMutability": "nonpayable",
      "type": "function"
    },
    {
      "inputs": [],
      "name": "paused",
      "outputs": [
        {
          "internalType": "bool",
          "name": "",
          "type": "bool"
        }
      ],
      "stateMutability": "view",
      "type": "function"
    },
    {
      "inputs": [
        {
          "internalType": "bytes32",
          "name": "",
          "type": "bytes32"
        }
      ],
      "name": "processedMessages",
      "outputs": [
        {
          "internalType": "bool",
          "name": "",
          "type": "bool"
        }
      ],
      "stateMutability": "view",
      "type": "function"
    },
    {
      "inputs": [
        {
          "internalType": "uint256",
          "name": "localJobId",
          "type": "uint256"
        }
      ],
      "name": "releaseCrossChainPayment",
      "outputs": [
        {
          "internalType": "bytes32",
          "name": "messageId",
          "type": "bytes32"
        }
      ],
      "stateMutability": "payable",
      "type": "function"
    },
    {
      "inputs": [
        {
          "internalType": "uint64",
          "name": "",
          "type": "uint64"
        }
      ],
      "name": "remoteManagers",
      "outputs": [
        {
          "internalType": "address",
          "name": "",
          "type": "address"
        }
      ],
      "stateMutability": "view",
      "type": "function"
    },
    {
      "inputs": [
        {
          "internalType": "bytes32",
          "name": "role",
          "type": "bytes32"
        },
        {
          "internalType": "address",
          "name": "callerConfirmation",
          "type": "address"
        }
      ],
      "name": "renounceRole",
      "outputs": [],
      "stateMutability": "nonpayable",
      "type": "function"
    },
    {
      "inputs": [
        {
          "internalType": "uint256",
          "name": "localJobId",
          "type": "uint256"
        },
        {
          "internalType": "uint256",
          "name": "ruling",
          "type": "uint256"
        }
      ],
      "name": "resolveCrossChainDispute",
      "outputs": [
        {
          "internalType": "bytes32",
          "name": "messageId",
          "type": "bytes32"
        }
      ],
      "stateMutability": "payable",
      "type": "function"
    },
    {
      "inputs": [
        {
          "internalType": "bytes32",
          "name": "role",
          "type": "bytes32"
        },
        {
          "internalType": "address",
          "name": "account",
          "type": "address"
        }
      ],
      "name": "revokeRole",
      "outputs": [],
      "stateMutability": "nonpayable",
      "type": "function"
    },
    {
      "inputs": [
        {
          "internalType": "uint64",
          "name": "chainSelector",
          "type": "uint64"
        },
        {
          "internalType": "address",
          "name": "manager",
          "type": "address"
        }
      ],
      "name": "setRemoteManager",
      "outputs": [],
      "stateMutability": "nonpayable",
      "type": "function"
    },
    {
      "inputs": [
        {
          "internalType": "uint64",
          "name": "chainSelector",
          "type": "uint64"
        },
        {
          "internalType": "bool",
          "name": "supported",
          "type": "bool"
        }
      ],
      "name": "setSupportedChain",
      "outputs": [],
      "stateMutability": "nonpayable",
      "type": "function"
    },
    {
      "inputs": [
        {
          "internalType": "uint64",
          "name": "",
          "type": "uint64"
        }
      ],
      "name": "supportedChains",
      "outputs": [
        {
          "internalType": "bool",
          "name": "",
          "type": "bool"
        }
      ],
      "stateMutability": "view",
      "type": "function"
    },
    {
      "inputs": [
        {
          "internalType": "bytes4",
          "name": "interfaceId",
          "type": "bytes4"
        }
      ],
      "name": "supportsInterface",
      "outputs": [
        {
          "internalType": "bool",
          "name": "",
          "type": "bool"
        }
      ],
      "stateMutability": "view",
      "type": "function"
    },
    {
      "inputs": [],
      "name": "unpause",
      "outputs": [],
      "stateMutability": "nonpayable",
      "type": "function"
    },
    {
      "inputs": [
        {
          "internalType": "uint256",
          "name": "localJobId",
          "type": "uint256"
        },
        {
          "internalType": "enum CrossChainEscrowManager.JobStatus",
          "name": "newStatus",
          "type": "uint8"
        }
      ],
      "name": "updateJobStatus",
      "outputs": [],
      "stateMutability": "nonpayable",
      "type": "function"
    },
    {
      "inputs": [
        {
          "internalType": "address",
          "name": "",
          "type": "address"
        },
        {
          "internalType": "uint64",
          "name": "",
          "type": "uint64"
        },
        {
          "internalType": "uint256",
          "name": "",
          "type": "uint256"
        }
      ],
      "name": "userJobsByChain",
      "outputs": [
        {
          "internalType": "uint256",
          "name": "",
          "type": "uint256"
        }
      ],
      "stateMutability": "view",
      "type": "function"
    },
    {
      "stateMutability": "payable",
      "type": "receive"
    }
  ],
  "bytecode": "0x60a0346200010957601f6200243438819003918201601f19168301916001600160401b038311848410176200010d57808492604094855283398101031262000109576200005a6020620000528362000121565b920162000121565b6001600160a01b03909116908115620000d45781620000ac9260018060a01b03195f5416175f5560016002556001600955608052620000998162000136565b50620000a581620001a6565b5062000247565b506040516121119081620002e38239608051818181610488015281816116bd0152611d400152f35b60405162461bcd60e51b815260206004820152600d60248201526c24b73b30b634b22937baba32b960991b6044820152606490fd5b5f80fd5b634e487b7160e01b5f52604160045260245ffd5b51906001600160a01b03821682036200010957565b6001600160a01b03165f8181525f8051602062002414833981519152602052604090205460ff16620001a1575f8181525f805160206200241483398151915260205260408120805460ff191660011790553391905f80516020620023f48339815191528180a4600190565b505f90565b6001600160a01b03165f8181527ffdb122eb892c6b3193f8499f050265ce5458caab5f6480270d8972921f24f42960205260409020547f241ecf16d79d0f8dbfb92cbc07fe17840425976cf0667f022fe9877caa831b08919060ff166200024157815f52600160205260405f20815f5260205260405f20600160ff1982541617905533915f80516020620023f48339815191525f80a4600190565b50505f90565b6001600160a01b03165f8181527fb9cbbae02fe941283ec0eefd7b121e3bc7f89fae077b27bdd75a7fd4cf1543a860205260409020547f65d7a28e3265b37a6474929f336521b332c1681b933f6cb9f3376673440d862a919060ff166200024157815f52600160205260405f20815f5260205260405f20600160ff1982541617905533915f80516020620023f48339815191525f80a460019056fe6040608081526004908136101561001f575b5050361561001d575f80fd5b005b5f3560e01c806301269ca51461174057806301ffc9a7146116ec5780630de22984146116a9578063248a9ca31461167f57806325015f0b146116125780632712e54b1461158d5780632f2ff15d1461156557806336568abe146115215780633f4ba83a146114ba57806350750f901461147b5780635125fc80146113c85780635c975abb146113a55780635ecc18741461122c5780638456cb59146111d357806385572ffb14610c9c57806388ba16ab14610c7057806391d1485414610c2c5780639256a6f414610b60578063a217fddf14610b46578063a47bda4c146109f4578063b0c2aa5e146109d6578063b0f479a1146109af578063c25b45071461083d578063cbc368a8146107b2578063d547741f14610779578063e63ab1e914610752578063ec87621c1461072b578063f1ee3572146104f8578063f34a31e6146103a7578063f5b5b80414610355578063f9c3f332146103195763faa1ec5f03610011576020366003190112610315578135610199611c83565b6101a1611ca1565b805f5282602052815f208054156102ff5760038101546001600160a01b0390811633036102ef5760068201805460ff8160a01c1660088110156102dc5787811415806102d1575b6102ac575060ff60a01b1916600560a01b179055600182015485830154600584018054875160036020820152808901889052606081019490945291909316608083015260a082810191909152815290946001600160401b039060c083019082821184831017610299576020600888885f8051602061209c833981519152828d8b61027d8c8c8c86526002840154861c16611cc2565b96879101555481519081528587820152a2600160025551908152f35b604190634e487b7160e01b5f525260245ffd5b865163f924664d60e01b815260449189906102ca90838301906118f6565b6024820152fd5b5060038114156101e8565b602188634e487b7160e01b5f525260245ffd5b5050505163ea8e4eb560e01b8152fd5b5090516350c83b9560e01b815291820152602490fd5b5f80fd5b5034610315576020366003190112610315576020906001600160401b0361033e6118b7565b165f526007825260ff815f20541690519015158152f35b503461031557806003193601126103155761036e6118b7565b906024359182151580930361031557610385611bb3565b60018060401b03165f5260076020525f209060ff801983541691161790555f80f35b5090346103155781600319360112610315576103c16118b7565b91602435916001600160401b03808411610315576103e56104849436908401611917565b909186165f5260209586936006855260018060a01b039283875f2054169487519587870152868652610416866119b2565b61045788519161042583611968565b5f83526104418a5161043681611968565b6207a1208152611ff6565b938a519861044e8a611997565b89523691611a5b565b86880152878601525f6060860152608085015285516320487ded60e01b8152968794859384938401611ae6565b03917f0000000000000000000000000000000000000000000000000000000000000000165afa9182156104ee575f926104bf575b5051908152f35b9091508281813d83116104e7575b6104d781836119cd565b810103126103155751905f6104b8565b503d6104cd565b50513d5f823e3d90fd5b509060a03660031901126103155761050e6118b7565b9061051761188b565b6001600160a01b039160643583811692604435929091849003610315576001600160401b0395608435878111610315576105549036908401611917565b939061055e611c83565b610566611ca1565b88831694855f526020976007895260ff8c5f2054161561071457865f5260068952898c5f2054161561070457908b92916009549b8c956105a587611a10565b600955865f52888c52855f209c8d928884558960028501914616600160401b60019003198354161782556105d891611a32565b896003840193600160a01b600190031994338682541617905501911680928254161790558960058d015560068c01600160a01b83600160a81b6001900319835416171790554260078d015584519586958c87015f905286015233606086015260808501528860a085015260c084015260e0830160e0905261010083019061065e926119f0565b03601f198101825261067090826119cd565b61067991611cc2565b600881960155335f5260088452865f20825f528452865f20805491600160401b8310156102995750906106b1916001820181556118cd565b81549060031b9087821b915f19901b191617905585519182528383830152847fefba44b236ef1288e0df6e95ab4639d689000ac4d7080302bca29577afd17bb9873394a460016002558351928352820152f35b8b51630bd4d7d760e21b81528690fd5b8b5163d18765a560e01b8152808701889052602490fd5b5034610315575f36600319011261031557602090515f8051602061205c8339815191528152f35b5034610315575f36600319011261031557602090515f8051602061207c8339815191528152f35b503461031557806003193601126103155761001d91356107ad600161079c61188b565b93835f52816020525f200154611c61565b611f3c565b5090346103155781600319360112610315578035916024356008811015610315576107db611bb3565b835f5282602052815f20928354156108265750806107fe60059260068601611944565b1461080557005b60055f8051602061209c83398151915292015481519081525f6020820152a2005b82516350c83b9560e01b8152908101859052602490fd5b5090602036600319011261031557803590610856611c83565b61085e611ca1565b815f5280602052825f20908154156109985760038201546001600160a01b0316330361098a5760068201805460ff8160a01c1660088110156109775760018114158061096c575b610947575060ff60a01b1916600760a01b1790556001820154845160066020820152808601859052606080820192909252908152906001600160401b0390608083019082821184831017610299576020600888888861090f89898986526002840154861c16611cc2565b93849101557fbcfc1b13f991393bc92c0beb7be83dc2cfd18fe190e47389a2738140182a3a19848351858152a2600160025551908152f35b865163f924664d60e01b815260449161096390828701906118f6565b60016024820152fd5b5060028114156108a5565b602184634e487b7160e01b5f525260245ffd5b835163ea8e4eb560e01b8152fd5b83516350c83b9560e01b8152908101839052602490fd5b5034610315575f366003190112610315575f5490516001600160a01b039091168152602090f35b5034610315575f366003190112610315576020906009549051908152f35b50806003193601126103155781356001600160401b0360243581811161031557610a219036908601611917565b9091610a2b611c83565b610a33611ca1565b835f5285602052845f2092835415610b2f576003840154336001600160a01b0391821614159081610b1f575b50610b0f5791610ad791610aca602098610abc8796600660089b9a9901600360a11b60ff60a01b198254161790556001880154958a519687948e8601528a8c860152606085015233608085015260a08085015260c08401916119f0565b03601f1981018452836119cd565b6002840154861c16611cc2565b93849101557fc27e475d414d6fddfbb00a2372543720688fcb71ab6fd160fbe026d370169e41848351858152a2600160025551908152f35b855163ea8e4eb560e01b81528790fd5b905087850154163314155f610a5f565b85516350c83b9560e01b8152808801869052602490fd5b5034610315575f36600319011261031557602090515f8152f35b5034610315578060031936011261031557610b79611875565b90610b826118a1565b6001600160a01b039092165f908152600860209081528282206001600160401b0390941682529283528181208251815480825291835284832090948581019390928492915b818110610c185750505084610bdd9103856119cd565b825181815293518185018190528493840192915f5b828110610c0157505050500390f35b835185528695509381019392810192600101610bf2565b825484529284019260019283019201610bc7565b5034610315578060031936011261031557602091610c4861188b565b90355f5260018352815f209060018060a01b03165f52825260ff815f20541690519015158152f35b503461031557602036600319011261031557602091355f526005825260ff815f20541690519015158152f35b5090346103155760031960203682018113610315578235916001600160401b038084116103155760a0848601928536030112610315575f546001600160a01b039590861633036111a057823595865f526005855260ff885f20541661118957865f5260058552875f20600160ff19825416179055606486019385610d208683611fb0565b9080929181010312610315573594600791828710156103155786610e8a5790610d4891611fb0565b8101929060e08185031261031557828135101561031557610d6a8b8201612047565b90610d7760608201612047565b610d8360a08301612047565b9260c08301358981116103155783019680601f89011215610315578d988f8988938f809c35920191610db492611a5b565b50816009549a610dc38c611a10565b6009558b5f52525f209889558d8d86013560018b0155602401610de590611fe2565b60028a0180546001600160401b031916918d16919091178155610e0b90468d1690611a32565b6003890180546001600160a01b03199081169484169490941790558801805490921692169190911790556080013560058501556006840180546001600160a81b0319169190921617600160a01b1790554290820155600801555f805160206120bc83398151915293610e81906024905b01611fe2565b169451908152a3005b97919060018703610f3557610ea190608099611fb0565b908099918101031261031557873510156103155786610e81938a602494610ed860605f805160206120bc8339815191529c01612047565b1692898101355f52828a52815f20938454610ef8575b5050505050610e7b565b60068501805460ff60a01b1916600160a11b17905592840180546001600160a01b0319169093179092550135600191909101555f808a8180610eee565b919790925060038603610fb75760a09291610f4f91611fb0565b90809391810103126103155781351015610315575f805160206120bc83398151915295610e81928683610f86606060249601612047565b5001355f528652885f208054610f9d575b50610e7b565b600601805460ff60a01b1916600560a01b1790555f610f97565b600686036110265760609291610fcc91611fb0565b90809391810103126103155781351015610315575f805160206120bc83398151915295610e81928660249301355f528652885f20805461100c5750610e7b565b600601805460ff60a01b1916600760a01b1790555f610f97565b919692918583036110cd579061103b91611fb0565b819391019660a08489031261031557833510156103155761105e60608401612047565b5060808301358481116103155783019187601f840112156103155786610e819461109d5f805160206120bc8339815191529a8684602498359101611a5b565b5001355f528652885f2080546110b35750610e7b565b600601805460ff60a01b1916600360a11b1790555f610f97565b600586989498146110f6575b50505050610e8160245f805160206120bc83398151915295610e7b565b608093979161110491611fb0565b9080949181010312610315578683351015610315575f805160206120bc8339815191529683602493886060610e819701359201355f5288528a5f20908154611151575b50508197506110d9565b61116b926003820361117357505060066005915b01611944565b5f8080611147565b600691600203611184575b91611165565b61117e565b875163398560f160e11b8152808301889052602490fd5b865162461bcd60e51b8152908101849052600d60248201526c24b73b30b634b22937baba32b960991b6044820152606490fd5b5034610315575f3660031901126103155760207f62e78cea01bee320cd4e420270b5ea74000d11b0c9f74754ebdbfc544b05a25891611210611c19565b611218611c83565b600160ff19600354161760035551338152a1005b50602036600319011261031557813591611244611c83565b61124c611ca1565b825f5280602052815f209081541561138e57600682019081549160ff8360a01c16600881101561137b576001810361135f57508382018054909390926001600160a01b0384168015159081611354575b506113465760206008888a8989898989600160a11b9060ff60a01b1916179055339060018060a01b03191617905561130b600182015484519060018883015284868301526060820152336080820152608081526112f881611997565b60028301546001600160401b0316611cc2565b93849101558151908382527fe26db2f5bae7fb65226bafcef2d84e961eed4b456194f453cbd11d6e993aecfb853393a3600160025551908152f35b865163ea8e4eb560e01b8152fd5b90503314155f61129c565b855163f924664d60e01b815260449161096390828601906118f6565b602183634e487b7160e01b5f525260245ffd5b82516350c83b9560e01b8152908101849052602490fd5b5034610315575f3660031901126103155760209060ff6003541690519015158152f35b5034610315576020366003190112610315578161016092355f5280602052815f2061146d815493600183015493600284015460018060401b0360018060a01b03928380600389015416918801541691600588015493600689015496600860078b01549a01549a81519c8d5260208d0152828216818d01521c1660608a0152608089015260a088015260c0870152811660e086015260ff61010086019160a01c166118f6565b610120830152610140820152f35b5034610315576020366003190112610315576020906001600160401b036114a06118b7565b165f526006825260018060a01b03815f2054169051908152f35b5034610315575f366003190112610315576114d3611c19565b6003549160ff831615611513577f5db9ee0a495bf2e6ff9c91a7834c1ba4fdd244a5e8aa4e537bd38aeae4b073aa6020838560ff191660035551338152a1005b9051638dfc202b60e01b8152fd5b503461031557806003193601126103155761153a61188b565b90336001600160a01b03831603611556575061001d9135611f3c565b5163334bd91960e11b81529050fd5b503461031557806003193601126103155761001d9135611588600161079c61188b565b611ebe565b50346103155780600319360112610315577f528d5809e60f0883eb98af4cea71d5df090f2b646d7f2a02282124f84d08a9fe60206115c96118b7565b6115d161188b565b906115da611bb3565b6001600160401b03165f8181526006845285902080546001600160a01b0319166001600160a01b0390931692831790559351908152a2005b50346103155760603660031901126103155761162c611875565b906116356118a1565b6044359260018060a01b03165f526008602052815f209060018060401b03165f52602052805f20805483101561031557602092611671916118cd565b91905490519160031b1c8152f35b503461031557602036600319011261031557602091355f52600182526001815f2001549051908152f35b5034610315575f36600319011261031557517f00000000000000000000000000000000000000000000000000000000000000006001600160a01b03168152602090f35b509034610315576020366003190112610315573563ffffffff60e01b811680910361031557602091637965db0b60e01b821491821561172f575b50519015158152f35b6301ffc9a760e01b1491505f611726565b50908160031936011261031557803560243561175a611bb3565b611762611c83565b61176a611ca1565b815f5282602052835f209283541561185e57600684019060ff825460a01c16600881101561184b57600681036118255760206008888861180589896117b98a6003830361181d57600590611944565b60018401548551926005898501528684015260608301526080820152608081526117e281611997565b60028301546001600160401b039081811646831681036118155750851c16611cc2565b9283910155600160025551908152f35b915050611cc2565b600790611944565b865163f924664d60e01b81526044929091611842918301906118f6565b60066024820152fd5b602182634e487b7160e01b5f525260245ffd5b84516350c83b9560e01b8152908101839052602490fd5b600435906001600160a01b038216820361031557565b602435906001600160a01b038216820361031557565b602435906001600160401b038216820361031557565b600435906001600160401b038216820361031557565b80548210156118e2575f5260205f2001905f90565b634e487b7160e01b5f52603260045260245ffd5b9060088210156119035752565b634e487b7160e01b5f52602160045260245ffd5b9181601f84011215610315578235916001600160401b038311610315576020838186019501011161031557565b90600881101561190357815460ff60a01b191660a09190911b60ff60a01b16179055565b602081019081106001600160401b0382111761198357604052565b634e487b7160e01b5f52604160045260245ffd5b60a081019081106001600160401b0382111761198357604052565b604081019081106001600160401b0382111761198357604052565b601f909101601f19168101906001600160401b0382119082101761198357604052565b908060209392818452848401375f828201840152601f01601f1916010190565b5f198114611a1e5760010190565b634e487b7160e01b5f52601160045260245ffd5b8054600160401b600160801b03191660409290921b600160401b600160801b0316919091179055565b9192916001600160401b0382116119835760405191611a84601f8201601f1916602001846119cd565b829481845281830111610315578281602093845f960137010152565b5f5b838110611ab15750505f910152565b8181015183820152602001611aa2565b90602091611ada81518092818552858086019101611aa0565b601f01601f1916010190565b9092919260409060018060401b03168252602091604083820152611b16855160a0604084015260e0830190611ac1565b91611b328487015193603f199485858303016060860152611ac1565b604087015194848483030160808501528080875193848152019601925f905b838210611b8a57505050505060c06080611b87959660018060a01b0360608201511660a085015201519282850301910152611ac1565b90565b845180516001600160a01b03168952830151888401529687019693820193600190910190611b51565b335f9081527ffdb122eb892c6b3193f8499f050265ce5458caab5f6480270d8972921f24f42960205260409020545f8051602061205c8339815191529060ff1615611bfb5750565b6044906040519063e2517d3f60e01b82523360048301526024820152fd5b335f9081527fb9cbbae02fe941283ec0eefd7b121e3bc7f89fae077b27bdd75a7fd4cf1543a860205260409020545f8051602061207c8339815191529060ff1615611bfb5750565b805f52600160205260405f20335f5260205260ff60405f20541615611bfb5750565b60ff60035416611c8f57565b60405163d93c066560e01b8152600490fd5b6002805414611cb05760028055565b604051633ee5aeb560e01b8152600490fd5b6001600160401b0381165f908152600660209081526040918290205482516001600160a01b03918216818401528281529194929392611d00836119b2565b8451611d0b81611968565b5f8152611d1c865161043681611968565b91865194611d2986611997565b855287850152858401525f606084015260808301527f0000000000000000000000000000000000000000000000000000000000000000168351926320487ded60e01b8452858480611d7e868560048401611ae6565b0381855afa938415611eb4575f94611e85575b50833410611e4e57918591611dbc938587518096819582946396f4e9f960e01b845260048401611ae6565b03925af1938415611e44575f94611e14575b5050803411611ddc57505090565b80340390348211611a1e575f808093819382903414611e0b575b3390f115611e02575090565b513d5f823e3d90fd5b506108fc611df6565b9080929450813d8311611e3d575b611e2c81836119cd565b810103126103155751915f80611dce565b503d611e22565b83513d5f823e3d90fd5b845162461bcd60e51b815260048101879052601060248201526f496e73756666696369656e742066656560801b6044820152606490fd5b9093508581813d8311611ead575b611e9d81836119cd565b810103126103155751925f611d91565b503d611e93565b85513d5f823e3d90fd5b90815f52600160205260405f209060018060a01b031690815f5260205260ff60405f205416155f14611f3657815f52600160205260405f20815f5260205260405f20600160ff1982541617905533917f2f8788117e7eff1d82e926ec794901d17c78024a50270940304540a733656f0d5f80a4600190565b50505f90565b90815f52600160205260405f209060018060a01b031690815f5260205260ff60405f2054165f14611f3657815f52600160205260405f20815f5260205260405f2060ff19815416905533917ff6391f5c32d9c69d2a47ea670b442974b53935d1edc7fd64eb21e047a839171b5f80a4600190565b903590601e198136030182121561031557018035906001600160401b0382116103155760200191813603831361031557565b356001600160401b03811681036103155790565b611b8760246120379260405190602082019051815260208252612018826119b2565b6040519485926397a657c960e01b602085015251809285850190611aa0565b81010360048101845201826119cd565b35906001600160a01b03821682036103155756fe241ecf16d79d0f8dbfb92cbc07fe17840425976cf0667f022fe9877caa831b0865d7a28e3265b37a6474929f336521b332c1681b933f6cb9f3376673440d862a3f1e77af4adc49786f13236eba1880a6b24a5f2355fe96570bff2da2339fcc05bccb96f8bdc00c6959f4484c4f6fbfaa1eb4d18953b08fb2d0c6b832fbf0f12fa2646970667358221220d91955e7f523685bc1e29b9a2eb9a37d991b6bf674a18d9c36d918703d3fa7d764736f6c634300081800332f8788117e7eff1d82e926ec794901d17c78024a50270940304540a733656f0da6eef7e35abe7026729641147f7915573c7e97b47efa546f5f6e3230263bcb49",
  "linkReferences": {},
  "deployedLinkReferences": {}
}