{
  "_format": "hh-sol-artifact-1",
  "contractName": "FreelanceEscrow",
  "sourceName": "contracts/FreelanceEscrow.sol",
  "abi": [
    {
      "inputs": [],
      "stateMutability": "nonpayable",
      "type": "constructor"
    },
    {
      "inputs": [],
      "name": "AccessControlBadConfirmation",
      "type": "error"
    },
    {
      "inputs": [
        {
          "internalType": "address",
          "name": "account",
          "type": "address"
        },
        {
          "internalType": "bytes32",
          "name": "neededRole",
          "type": "bytes32"
        }
      ],
      "name": "AccessControlUnauthorizedAccount",
      "type": "error"
    },
    {
      "inputs": [
        {
          "internalType": "address",
          "name": "target",
          "type": "address"
        }
      ],
      "name": "AddressEmptyCode",
      "type": "error"
    },
    {
      "inputs": [],
      "name": "AlreadyPaid",
      "type": "error"
    },
    {
      "inputs": [
        {
          "internalType": "address",
          "name": "implementation",
          "type": "address"
        }
      ],
      "name": "ERC1967InvalidImplementation",
      "type": "error"
    },
    {
      "inputs": [],
      "name": "ERC1967NonPayable",
      "type": "error"
    },
    {
      "inputs": [
        {
          "internalType": "address",
          "name": "sender",
          "type": "address"
        },
        {
          "internalType": "uint256",
          "name": "tokenId",
          "type": "uint256"
        },
        {
          "internalType": "address",
          "name": "owner",
          "type": "address"
        }
      ],
      "name": "ERC721IncorrectOwner",
      "type": "error"
    },
    {
      "inputs": [
        {
          "internalType": "address",
          "name": "operator",
          "type": "address"
        },
        {
          "internalType": "uint256",
          "name": "tokenId",
          "type": "uint256"
        }
      ],
      "name": "ERC721InsufficientApproval",
      "type": "error"
    },
    {
      "inputs": [
        {
          "internalType": "address",
          "name": "approver",
          "type": "address"
        }
      ],
      "name": "ERC721InvalidApprover",
      "type": "error"
    },
    {
      "inputs": [
        {
          "internalType": "address",
          "name": "operator",
          "type": "address"
        }
      ],
      "name": "ERC721InvalidOperator",
      "type": "error"
    },
    {
      "inputs": [
        {
          "internalType": "address",
          "name": "owner",
          "type": "address"
        }
      ],
      "name": "ERC721InvalidOwner",
      "type": "error"
    },
    {
      "inputs": [
        {
          "internalType": "address",
          "name": "receiver",
          "type": "address"
        }
      ],
      "name": "ERC721InvalidReceiver",
      "type": "error"
    },
    {
      "inputs": [
        {
          "internalType": "address",
          "name": "sender",
          "type": "address"
        }
      ],
      "name": "ERC721InvalidSender",
      "type": "error"
    },
    {
      "inputs": [
        {
          "internalType": "uint256",
          "name": "tokenId",
          "type": "uint256"
        }
      ],
      "name": "ERC721NonexistentToken",
      "type": "error"
    },
    {
      "inputs": [],
      "name": "EmergencyActive",
      "type": "error"
    },
    {
      "inputs": [],
      "name": "EnforcedPause",
      "type": "error"
    },
    {
      "inputs": [],
      "name": "ExpectedPause",
      "type": "error"
    },
    {
      "inputs": [],
      "name": "FailedCall",
      "type": "error"
    },
    {
      "inputs": [],
      "name": "InvalidAddress",
      "type": "error"
    },
    {
      "inputs": [],
      "name": "InvalidInitialization",
      "type": "error"
    },
    {
      "inputs": [],
      "name": "InvalidMilestone",
      "type": "error"
    },
    {
      "inputs": [],
      "name": "InvalidStatus",
      "type": "error"
    },
    {
      "inputs": [],
      "name": "LowStake",
      "type": "error"
    },
    {
      "inputs": [],
      "name": "LowValue",
      "type": "error"
    },
    {
      "inputs": [],
      "name": "MilestoneAlreadyReleased",
      "type": "error"
    },
    {
      "inputs": [],
      "name": "NotAuthorized",
      "type": "error"
    },
    {
      "inputs": [],
      "name": "NotInitializing",
      "type": "error"
    },
    {
      "inputs": [],
      "name": "ReentrancyGuardReentrantCall",
      "type": "error"
    },
    {
      "inputs": [
        {
          "internalType": "address",
          "name": "token",
          "type": "address"
        }
      ],
      "name": "SafeERC20FailedOperation",
      "type": "error"
    },
    {
      "inputs": [],
      "name": "TokenNotWhitelisted",
      "type": "error"
    },
    {
      "inputs": [],
      "name": "TransferFailed",
      "type": "error"
    },
    {
      "inputs": [],
      "name": "UUPSUnauthorizedCallContext",
      "type": "error"
    },
    {
      "inputs": [
        {
          "internalType": "bytes32",
          "name": "slot",
          "type": "bytes32"
        }
      ],
      "name": "UUPSUnsupportedProxiableUUID",
      "type": "error"
    },
    {
      "anonymous": false,
      "inputs": [
        {
          "indexed": true,
          "internalType": "address",
          "name": "owner",
          "type": "address"
        },
        {
          "indexed": true,
          "internalType": "address",
          "name": "approved",
          "type": "address"
        },
        {
          "indexed": true,
          "internalType": "uint256",
          "name": "tokenId",
          "type": "uint256"
        }
      ],
      "name": "Approval",
      "type": "event"
    },
    {
      "anonymous": false,
      "inputs": [
        {
          "indexed": true,
          "internalType": "address",
          "name": "owner",
          "type": "address"
        },
        {
          "indexed": true,
          "internalType": "address",
          "name": "operator",
          "type": "address"
        },
        {
          "indexed": false,
          "internalType": "bool",
          "name": "approved",
          "type": "bool"
        }
      ],
      "name": "ApprovalForAll",
      "type": "event"
    },
    {
      "anonymous": false,
      "inputs": [
        {
          "indexed": true,
          "internalType": "address",
          "name": "user",
          "type": "address"
        },
        {
          "indexed": true,
          "internalType": "address",
          "name": "token",
          "type": "address"
        },
        {
          "indexed": false,
          "internalType": "uint256",
          "name": "amount",
          "type": "uint256"
        },
        {
          "indexed": false,
          "internalType": "enum IYieldManager.Strategy",
          "name": "strategy",
          "type": "uint8"
        }
      ],
      "name": "BalanceStaked",
      "type": "event"
    },
    {
      "anonymous": false,
      "inputs": [
        {
          "indexed": true,
          "internalType": "address",
          "name": "user",
          "type": "address"
        },
        {
          "indexed": true,
          "internalType": "address",
          "name": "token",
          "type": "address"
        },
        {
          "indexed": false,
          "internalType": "uint256",
          "name": "amount",
          "type": "uint256"
        },
        {
          "indexed": false,
          "internalType": "enum IYieldManager.Strategy",
          "name": "strategy",
          "type": "uint8"
        }
      ],
      "name": "BalanceUnstaked",
      "type": "event"
    },
    {
      "anonymous": false,
      "inputs": [
        {
          "indexed": true,
          "internalType": "contract IArbitrator",
          "name": "_arbitrator",
          "type": "address"
        },
        {
          "indexed": true,
          "internalType": "uint256",
          "name": "_disputeID",
          "type": "uint256"
        },
        {
          "indexed": false,
          "internalType": "uint256",
          "name": "_metaEvidenceID",
          "type": "uint256"
        },
        {
          "indexed": false,
          "internalType": "uint256",
          "name": "_evidenceID",
          "type": "uint256"
        }
      ],
      "name": "Dispute",
      "type": "event"
    },
    {
      "anonymous": false,
      "inputs": [
        {
          "indexed": true,
          "internalType": "uint256",
          "name": "jobId",
          "type": "uint256"
        },
        {
          "indexed": false,
          "internalType": "uint256",
          "name": "disputeId",
          "type": "uint256"
        }
      ],
      "name": "DisputeRaised",
      "type": "event"
    },
    {
      "anonymous": false,
      "inputs": [
        {
          "indexed": true,
          "internalType": "uint256",
          "name": "jobId",
          "type": "uint256"
        },
        {
          "indexed": false,
          "internalType": "uint256",
          "name": "freelancerBps",
          "type": "uint256"
        }
      ],
      "name": "DisputeResolved",
      "type": "event"
    },
    {
      "anonymous": false,
      "inputs": [
        {
          "indexed": true,
          "internalType": "contract IArbitrator",
          "name": "_arbitrator",
          "type": "address"
        },
        {
          "indexed": true,
          "internalType": "uint256",
          "name": "_evidenceID",
          "type": "uint256"
        },
        {
          "indexed": true,
          "internalType": "address",
          "name": "_party",
          "type": "address"
        },
        {
          "indexed": false,
          "internalType": "string",
          "name": "_evidence",
          "type": "string"
        }
      ],
      "name": "Evidence",
      "type": "event"
    },
    {
      "anonymous": false,
      "inputs": [
        {
          "indexed": true,
          "internalType": "uint256",
          "name": "jobId",
          "type": "uint256"
        },
        {
          "indexed": true,
          "internalType": "address",
          "name": "freelancer",
          "type": "address"
        }
      ],
      "name": "FreelancerPicked",
      "type": "event"
    },
    {
      "anonymous": false,
      "inputs": [
        {
          "indexed": true,
          "internalType": "uint256",
          "name": "jobId",
          "type": "uint256"
        },
        {
          "indexed": true,
          "internalType": "address",
          "name": "freelancer",
          "type": "address"
        },
        {
          "indexed": false,
          "internalType": "uint256",
          "name": "amount",
          "type": "uint256"
        },
        {
          "indexed": false,
          "internalType": "uint256",
          "name": "nftId",
          "type": "uint256"
        }
      ],
      "name": "FundsReleased",
      "type": "event"
    },
    {
      "anonymous": false,
      "inputs": [
        {
          "indexed": false,
          "internalType": "uint64",
          "name": "version",
          "type": "uint64"
        }
      ],
      "name": "Initialized",
      "type": "event"
    },
    {
      "anonymous": false,
      "inputs": [
        {
          "indexed": true,
          "internalType": "uint256",
          "name": "jobId",
          "type": "uint256"
        },
        {
          "indexed": true,
          "internalType": "address",
          "name": "freelancer",
          "type": "address"
        }
      ],
      "name": "JobAccepted",
      "type": "event"
    },
    {
      "anonymous": false,
      "inputs": [
        {
          "indexed": true,
          "internalType": "uint256",
          "name": "jobId",
          "type": "uint256"
        },
        {
          "indexed": true,
          "internalType": "address",
          "name": "freelancer",
          "type": "address"
        },
        {
          "indexed": false,
          "internalType": "uint256",
          "name": "stake",
          "type": "uint256"
        }
      ],
      "name": "JobApplied",
      "type": "event"
    },
    {
      "anonymous": false,
      "inputs": [
        {
          "indexed": true,
          "internalType": "uint256",
          "name": "jobId",
          "type": "uint256"
        },
        {
          "indexed": true,
          "internalType": "address",
          "name": "client",
          "type": "address"
        },
        {
          "indexed": true,
          "internalType": "address",
          "name": "freelancer",
          "type": "address"
        },
        {
          "indexed": false,
          "internalType": "uint256",
          "name": "amount",
          "type": "uint256"
        },
        {
          "indexed": false,
          "internalType": "uint256",
          "name": "deadline",
          "type": "uint256"
        }
      ],
      "name": "JobCreated",
      "type": "event"
    },
    {
      "anonymous": false,
      "inputs": [
        {
          "indexed": true,
          "internalType": "uint256",
          "name": "jobId",
          "type": "uint256"
        },
        {
          "indexed": true,
          "internalType": "address",
          "name": "freelancer",
          "type": "address"
        },
        {
          "indexed": true,
          "internalType": "uint256",
          "name": "milestoneId",
          "type": "uint256"
        },
        {
          "indexed": false,
          "internalType": "uint256",
          "name": "amount",
          "type": "uint256"
        }
      ],
      "name": "MilestoneReleased",
      "type": "event"
    },
    {
      "anonymous": false,
      "inputs": [
        {
          "indexed": false,
          "internalType": "address",
          "name": "account",
          "type": "address"
        }
      ],
      "name": "Paused",
      "type": "event"
    },
    {
      "anonymous": false,
      "inputs": [
        {
          "indexed": true,
          "internalType": "uint256",
          "name": "jobId",
          "type": "uint256"
        },
        {
          "indexed": true,
          "internalType": "address",
          "name": "client",
          "type": "address"
        },
        {
          "indexed": true,
          "internalType": "address",
          "name": "freelancer",
          "type": "address"
        },
        {
          "indexed": false,
          "internalType": "uint8",
          "name": "rating",
          "type": "uint8"
        },
        {
          "indexed": false,
          "internalType": "string",
          "name": "review",
          "type": "string"
        }
      ],
      "name": "ReviewSubmitted",
      "type": "event"
    },
    {
      "anonymous": false,
      "inputs": [
        {
          "indexed": true,
          "internalType": "bytes32",
          "name": "role",
          "type": "bytes32"
        },
        {
          "indexed": true,
          "internalType": "bytes32",
          "name": "previousAdminRole",
          "type": "bytes32"
        },
        {
          "indexed": true,
          "internalType": "bytes32",
          "name": "newAdminRole",
          "type": "bytes32"
        }
      ],
      "name": "RoleAdminChanged",
      "type": "event"
    },
    {
      "anonymous": false,
      "inputs": [
        {
          "indexed": true,
          "internalType": "bytes32",
          "name": "role",
          "type": "bytes32"
        },
        {
          "indexed": true,
          "internalType": "address",
          "name": "account",
          "type": "address"
        },
        {
          "indexed": true,
          "internalType": "address",
          "name": "sender",
          "type": "address"
        }
      ],
      "name": "RoleGranted",
      "type": "event"
    },
    {
      "anonymous": false,
      "inputs": [
        {
          "indexed": true,
          "internalType": "bytes32",
          "name": "role",
          "type": "bytes32"
        },
        {
          "indexed": true,
          "internalType": "address",
          "name": "account",
          "type": "address"
        },
        {
          "indexed": true,
          "internalType": "address",
          "name": "sender",
          "type": "address"
        }
      ],
      "name": "RoleRevoked",
      "type": "event"
    },
    {
      "anonymous": false,
      "inputs": [
        {
          "indexed": true,
          "internalType": "contract IArbitrator",
          "name": "_arbitrator",
          "type": "address"
        },
        {
          "indexed": true,
          "internalType": "uint256",
          "name": "_disputeID",
          "type": "uint256"
        },
        {
          "indexed": false,
          "internalType": "uint256",
          "name": "_ruling",
          "type": "uint256"
        }
      ],
      "name": "Ruling",
      "type": "event"
    },
    {
      "anonymous": false,
      "inputs": [
        {
          "indexed": true,
          "internalType": "address",
          "name": "from",
          "type": "address"
        },
        {
          "indexed": true,
          "internalType": "address",
          "name": "to",
          "type": "address"
        },
        {
          "indexed": true,
          "internalType": "uint256",
          "name": "tokenId",
          "type": "uint256"
        }
      ],
      "name": "Transfer",
      "type": "event"
    },
    {
      "anonymous": false,
      "inputs": [
        {
          "indexed": false,
          "internalType": "address",
          "name": "account",
          "type": "address"
        }
      ],
      "name": "Unpaused",
      "type": "event"
    },
    {
      "anonymous": false,
      "inputs": [
        {
          "indexed": true,
          "internalType": "address",
          "name": "implementation",
          "type": "address"
        }
      ],
      "name": "Upgraded",
      "type": "event"
    },
    {
      "inputs": [],
      "name": "APPLICATION_STAKE_PERCENT",
      "outputs": [
        {
          "internalType": "uint256",
          "name": "",
          "type": "uint256"
        }
      ],
      "stateMutability": "view",
      "type": "function"
    },
    {
      "inputs": [],
      "name": "ARBITRATOR_ROLE",
      "outputs": [
        {
          "internalType": "bytes32",
          "name": "",
          "type": "bytes32"
        }
      ],
      "stateMutability": "view",
      "type": "function"
    },
    {
      "inputs": [],
      "name": "BASIS_POINTS_DIVISOR",
      "outputs": [
        {
          "internalType": "uint256",
          "name": "",
          "type": "uint256"
        }
      ],
      "stateMutability": "view",
      "type": "function"
    },
    {
      "inputs": [],
      "name": "DEFAULT_ADMIN_ROLE",
      "outputs": [
        {
          "internalType": "bytes32",
          "name": "",
          "type": "bytes32"
        }
      ],
      "stateMutability": "view",
      "type": "function"
    },
    {
      "inputs": [],
      "name": "MANAGER_ROLE",
      "outputs": [
        {
          "internalType": "bytes32",
          "name": "",
          "type": "bytes32"
        }
      ],
      "stateMutability": "view",
      "type": "function"
    },
    {
      "inputs": [],
      "name": "MAX_APPLICATIONS_PER_JOB",
      "outputs": [
        {
          "internalType": "uint256",
          "name": "",
          "type": "uint256"
        }
      ],
      "stateMutability": "view",
      "type": "function"
    },
    {
      "inputs": [],
      "name": "MAX_PLATFORM_FEE_BPS",
      "outputs": [
        {
          "internalType": "uint256",
          "name": "",
          "type": "uint256"
        }
      ],
      "stateMutability": "view",
      "type": "function"
    },
    {
      "inputs": [],
      "name": "REWARD_BASE",
      "outputs": [
        {
          "internalType": "uint256",
          "name": "",
          "type": "uint256"
        }
      ],
      "stateMutability": "view",
      "type": "function"
    },
    {
      "inputs": [],
      "name": "SUPREME_REWARD_BOOST",
      "outputs": [
        {
          "internalType": "uint256",
          "name": "",
          "type": "uint256"
        }
      ],
      "stateMutability": "view",
      "type": "function"
    },
    {
      "inputs": [],
      "name": "UPGRADE_INTERFACE_VERSION",
      "outputs": [
        {
          "internalType": "string",
          "name": "",
          "type": "string"
        }
      ],
      "stateMutability": "view",
      "type": "function"
    },
    {
      "inputs": [
        {
          "internalType": "uint256",
          "name": "jobId",
          "type": "uint256"
        }
      ],
      "name": "acceptJob",
      "outputs": [],
      "stateMutability": "payable",
      "type": "function"
    },
    {
      "inputs": [
        {
          "internalType": "uint256",
          "name": "jobId",
          "type": "uint256"
        }
      ],
      "name": "applyForJob",
      "outputs": [],
      "stateMutability": "payable",
      "type": "function"
    },
    {
      "inputs": [
        {
          "internalType": "address",
          "name": "to",
          "type": "address"
        },
        {
          "internalType": "uint256",
          "name": "tokenId",
          "type": "uint256"
        }
      ],
      "name": "approve",
      "outputs": [],
      "stateMutability": "nonpayable",
      "type": "function"
    },
    {
      "inputs": [],
      "name": "arbitrator",
      "outputs": [
        {
          "internalType": "address",
          "name": "",
          "type": "address"
        }
      ],
      "stateMutability": "view",
      "type": "function"
    },
    {
      "inputs": [
        {
          "internalType": "address",
          "name": "owner",
          "type": "address"
        }
      ],
      "name": "balanceOf",
      "outputs": [
        {
          "internalType": "uint256",
          "name": "",
          "type": "uint256"
        }
      ],
      "stateMutability": "view",
      "type": "function"
    },
    {
      "inputs": [
        {
          "internalType": "address",
          "name": "",
          "type": "address"
        },
        {
          "internalType": "address",
          "name": "",
          "type": "address"
        }
      ],
      "name": "balances",
      "outputs": [
        {
          "internalType": "uint256",
          "name": "",
          "type": "uint256"
        }
      ],
      "stateMutability": "view",
      "type": "function"
    },
    {
      "inputs": [
        {
          "internalType": "uint256",
          "name": "jobId",
          "type": "uint256"
        },
        {
          "internalType": "uint8",
          "name": "rating",
          "type": "uint8"
        }
      ],
      "name": "completeJob",
      "outputs": [],
      "stateMutability": "nonpayable",
      "type": "function"
    },
    {
      "inputs": [],
      "name": "completionCertContract",
      "outputs": [
        {
          "internalType": "address",
          "name": "",
          "type": "address"
        }
      ],
      "stateMutability": "view",
      "type": "function"
    },
    {
      "inputs": [
        {
          "components": [
            {
              "internalType": "uint256",
              "name": "categoryId",
              "type": "uint256"
            },
            {
              "internalType": "address",
              "name": "freelancer",
              "type": "address"
            },
            {
              "internalType": "address",
              "name": "token",
              "type": "address"
            },
            {
              "internalType": "uint256",
              "name": "amount",
              "type": "uint256"
            },
            {
              "internalType": "string",
              "name": "ipfsHash",
              "type": "string"
            },
            {
              "internalType": "uint256",
              "name": "deadline",
              "type": "uint256"
            },
            {
              "internalType": "uint256[]",
              "name": "mAmounts",
              "type": "uint256[]"
            },
            {
              "internalType": "string[]",
              "name": "mHashes",
              "type": "string[]"
            },
            {
              "internalType": "bool[]",
              "name": "mIsUpfront",
              "type": "bool[]"
            },
            {
              "internalType": "enum IYieldManager.Strategy",
              "name": "yieldStrategy",
              "type": "uint8"
            },
            {
              "internalType": "address",
              "name": "paymentToken",
              "type": "address"
            },
            {
              "internalType": "uint256",
              "name": "paymentAmount",
              "type": "uint256"
            },
            {
              "internalType": "uint256",
              "name": "minAmountOut",
              "type": "uint256"
            }
          ],
          "internalType": "struct FreelanceEscrow.CreateParams",
          "name": "p",
          "type": "tuple"
        }
      ],
      "name": "createJob",
      "outputs": [
        {
          "internalType": "uint256",
          "name": "",
          "type": "uint256"
        }
      ],
      "stateMutability": "payable",
      "type": "function"
    },
    {
      "inputs": [
        {
          "internalType": "uint256",
          "name": "jobId",
          "type": "uint256"
        }
      ],
      "name": "dispute",
      "outputs": [],
      "stateMutability": "payable",
      "type": "function"
    },
    {
      "inputs": [
        {
          "internalType": "uint256",
          "name": "",
          "type": "uint256"
        }
      ],
      "name": "disputeIdToJobId",
      "outputs": [
        {
          "internalType": "uint256",
          "name": "",
          "type": "uint256"
        }
      ],
      "stateMutability": "view",
      "type": "function"
    },
    {
      "inputs": [],
      "name": "emergencyMode",
      "outputs": [
        {
          "internalType": "bool",
          "name": "",
          "type": "bool"
        }
      ],
      "stateMutability": "view",
      "type": "function"
    },
    {
      "inputs": [],
      "name": "entryPoint",
      "outputs": [
        {
          "internalType": "address",
          "name": "",
          "type": "address"
        }
      ],
      "stateMutability": "view",
      "type": "function"
    },
    {
      "inputs": [
        {
          "internalType": "uint256",
          "name": "tokenId",
          "type": "uint256"
        }
      ],
      "name": "getApproved",
      "outputs": [
        {
          "internalType": "address",
          "name": "",
          "type": "address"
        }
      ],
      "stateMutability": "view",
      "type": "function"
    },
    {
      "inputs": [
        {
          "internalType": "uint256",
          "name": "jobId",
          "type": "uint256"
        }
      ],
      "name": "getJobApplications",
      "outputs": [
        {
          "components": [
            {
              "internalType": "address",
              "name": "freelancer",
              "type": "address"
            },
            {
              "internalType": "uint256",
              "name": "stake",
              "type": "uint256"
            }
          ],
          "internalType": "struct FreelanceEscrowBase.Application[]",
          "name": "",
          "type": "tuple[]"
        }
      ],
      "stateMutability": "view",
      "type": "function"
    },
    {
      "inputs": [
        {
          "internalType": "bytes32",
          "name": "role",
          "type": "bytes32"
        }
      ],
      "name": "getRoleAdmin",
      "outputs": [
        {
          "internalType": "bytes32",
          "name": "",
          "type": "bytes32"
        }
      ],
      "stateMutability": "view",
      "type": "function"
    },
    {
      "inputs": [
        {
          "internalType": "bytes32",
          "name": "role",
          "type": "bytes32"
        },
        {
          "internalType": "address",
          "name": "account",
          "type": "address"
        }
      ],
      "name": "grantRole",
      "outputs": [],
      "stateMutability": "nonpayable",
      "type": "function"
    },
    {
      "inputs": [
        {
          "internalType": "uint256",
          "name": "",
          "type": "uint256"
        },
        {
          "internalType": "address",
          "name": "",
          "type": "address"
        }
      ],
      "name": "hasApplied",
      "outputs": [
        {
          "internalType": "bool",
          "name": "",
          "type": "bool"
        }
      ],
      "stateMutability": "view",
      "type": "function"
    },
    {
      "inputs": [
        {
          "internalType": "bytes32",
          "name": "role",
          "type": "bytes32"
        },
        {
          "internalType": "address",
          "name": "account",
          "type": "address"
        }
      ],
      "name": "hasRole",
      "outputs": [
        {
          "internalType": "bool",
          "name": "",
          "type": "bool"
        }
      ],
      "stateMutability": "view",
      "type": "function"
    },
    {
      "inputs": [
        {
          "internalType": "address",
          "name": "admin",
          "type": "address"
        },
        {
          "internalType": "address",
          "name": "forwarder",
          "type": "address"
        },
        {
          "internalType": "address",
          "name": "_sbt",
          "type": "address"
        },
        {
          "internalType": "address",
          "name": "_entry",
          "type": "address"
        }
      ],
      "name": "initialize",
      "outputs": [],
      "stateMutability": "nonpayable",
      "type": "function"
    },
    {
      "inputs": [
        {
          "internalType": "address",
          "name": "owner",
          "type": "address"
        },
        {
          "internalType": "address",
          "name": "operator",
          "type": "address"
        }
      ],
      "name": "isApprovedForAll",
      "outputs": [
        {
          "internalType": "bool",
          "name": "",
          "type": "bool"
        }
      ],
      "stateMutability": "view",
      "type": "function"
    },
    {
      "inputs": [
        {
          "internalType": "address",
          "name": "",
          "type": "address"
        }
      ],
      "name": "isSupreme",
      "outputs": [
        {
          "internalType": "bool",
          "name": "",
          "type": "bool"
        }
      ],
      "stateMutability": "view",
      "type": "function"
    },
    {
      "inputs": [
        {
          "internalType": "uint256",
          "name": "",
          "type": "uint256"
        },
        {
          "internalType": "uint256",
          "name": "",
          "type": "uint256"
        }
      ],
      "name": "jobApplications",
      "outputs": [
        {
          "internalType": "address",
          "name": "freelancer",
          "type": "address"
        },
        {
          "internalType": "uint256",
          "name": "stake",
          "type": "uint256"
        }
      ],
      "stateMutability": "view",
      "type": "function"
    },
    {
      "inputs": [],
      "name": "jobCount",
      "outputs": [
        {
          "internalType": "uint256",
          "name": "",
          "type": "uint256"
        }
      ],
      "stateMutability": "view",
      "type": "function"
    },
    {
      "inputs": [
        {
          "internalType": "uint256",
          "name": "",
          "type": "uint256"
        },
        {
          "internalType": "uint256",
          "name": "",
          "type": "uint256"
        }
      ],
      "name": "jobMilestones",
      "outputs": [
        {
          "internalType": "uint256",
          "name": "amount",
          "type": "uint256"
        },
        {
          "internalType": "string",
          "name": "ipfsHash",
          "type": "string"
        },
        {
          "internalType": "bool",
          "name": "isReleased",
          "type": "bool"
        },
        {
          "internalType": "bool",
          "name": "isUpfront",
          "type": "bool"
        }
      ],
      "stateMutability": "view",
      "type": "function"
    },
    {
      "inputs": [
        {
          "internalType": "uint256",
          "name": "",
          "type": "uint256"
        }
      ],
      "name": "jobs",
      "outputs": [
        {
          "internalType": "address",
          "name": "client",
          "type": "address"
        },
        {
          "internalType": "uint32",
          "name": "id",
          "type": "uint32"
        },
        {
          "internalType": "uint48",
          "name": "deadline",
          "type": "uint48"
        },
        {
          "internalType": "enum FreelanceEscrowBase.JobStatus",
          "name": "status",
          "type": "uint8"
        },
        {
          "internalType": "uint8",
          "name": "rating",
          "type": "uint8"
        },
        {
          "internalType": "address",
          "name": "freelancer",
          "type": "address"
        },
        {
          "internalType": "uint16",
          "name": "categoryId",
          "type": "uint16"
        },
        {
          "internalType": "uint16",
          "name": "milestoneCount",
          "type": "uint16"
        },
        {
          "internalType": "bool",
          "name": "paid",
          "type": "bool"
        },
        {
          "internalType": "enum IYieldManager.Strategy",
          "name": "yieldStrategy",
          "type": "uint8"
        },
        {
          "internalType": "address",
          "name": "token",
          "type": "address"
        },
        {
          "internalType": "uint256",
          "name": "amount",
          "type": "uint256"
        },
        {
          "internalType": "uint256",
          "name": "freelancerStake",
          "type": "uint256"
        },
        {
          "internalType": "uint256",
          "name": "totalPaidOut",
          "type": "uint256"
        },
        {
          "internalType": "string",
          "name": "ipfsHash",
          "type": "string"
        }
      ],
      "stateMutability": "view",
      "type": "function"
    },
    {
      "inputs": [
        {
          "internalType": "uint256",
          "name": "",
          "type": "uint256"
        }
      ],
      "name": "milestoneBitmask",
      "outputs": [
        {
          "internalType": "uint256",
          "name": "",
          "type": "uint256"
        }
      ],
      "stateMutability": "view",
      "type": "function"
    },
    {
      "inputs": [],
      "name": "name",
      "outputs": [
        {
          "internalType": "string",
          "name": "",
          "type": "string"
        }
      ],
      "stateMutability": "view",
      "type": "function"
    },
    {
      "inputs": [
        {
          "internalType": "uint256",
          "name": "tokenId",
          "type": "uint256"
        }
      ],
      "name": "ownerOf",
      "outputs": [
        {
          "internalType": "address",
          "name": "",
          "type": "address"
        }
      ],
      "stateMutability": "view",
      "type": "function"
    },
    {
      "inputs": [],
      "name": "pause",
      "outputs": [],
      "stateMutability": "nonpayable",
      "type": "function"
    },
    {
      "inputs": [],
      "name": "paused",
      "outputs": [
        {
          "internalType": "bool",
          "name": "",
          "type": "bool"
        }
      ],
      "stateMutability": "view",
      "type": "function"
    },
    {
      "inputs": [
        {
          "internalType": "uint256",
          "name": "jobId",
          "type": "uint256"
        },
        {
          "internalType": "address",
          "name": "freelancer",
          "type": "address"
        }
      ],
      "name": "pickFreelancer",
      "outputs": [],
      "stateMutability": "nonpayable",
      "type": "function"
    },
    {
      "inputs": [],
      "name": "platformFeeBps",
      "outputs": [
        {
          "internalType": "uint256",
          "name": "",
          "type": "uint256"
        }
      ],
      "stateMutability": "view",
      "type": "function"
    },
    {
      "inputs": [],
      "name": "polyToken",
      "outputs": [
        {
          "internalType": "address",
          "name": "",
          "type": "address"
        }
      ],
      "stateMutability": "view",
      "type": "function"
    },
    {
      "inputs": [],
      "name": "privacyShield",
      "outputs": [
        {
          "internalType": "address",
          "name": "",
          "type": "address"
        }
      ],
      "stateMutability": "view",
      "type": "function"
    },
    {
      "inputs": [],
      "name": "proxiableUUID",
      "outputs": [
        {
          "internalType": "bytes32",
          "name": "",
          "type": "bytes32"
        }
      ],
      "stateMutability": "view",
      "type": "function"
    },
    {
      "inputs": [
        {
          "internalType": "uint256",
          "name": "jobId",
          "type": "uint256"
        }
      ],
      "name": "raiseDispute",
      "outputs": [],
      "stateMutability": "payable",
      "type": "function"
    },
    {
      "inputs": [
        {
          "internalType": "uint256",
          "name": "jobId",
          "type": "uint256"
        }
      ],
      "name": "refundExpiredJob",
      "outputs": [],
      "stateMutability": "nonpayable",
      "type": "function"
    },
    {
      "inputs": [
        {
          "internalType": "uint256",
          "name": "jobId",
          "type": "uint256"
        }
      ],
      "name": "releaseFunds",
      "outputs": [],
      "stateMutability": "nonpayable",
      "type": "function"
    },
    {
      "inputs": [
        {
          "internalType": "uint256",
          "name": "jobId",
          "type": "uint256"
        },
        {
          "internalType": "uint256",
          "name": "mId",
          "type": "uint256"
        }
      ],
      "name": "releaseMilestone",
      "outputs": [],
      "stateMutability": "nonpayable",
      "type": "function"
    },
    {
      "inputs": [
        {
          "internalType": "bytes32",
          "name": "role",
          "type": "bytes32"
        },
        {
          "internalType": "address",
          "name": "callerConfirmation",
          "type": "address"
        }
      ],
      "name": "renounceRole",
      "outputs": [],
      "stateMutability": "nonpayable",
      "type": "function"
    },
    {
      "inputs": [],
      "name": "reputationContract",
      "outputs": [
        {
          "internalType": "address",
          "name": "",
          "type": "address"
        }
      ],
      "stateMutability": "view",
      "type": "function"
    },
    {
      "inputs": [],
      "name": "reputationThreshold",
      "outputs": [
        {
          "internalType": "uint256",
          "name": "",
          "type": "uint256"
        }
      ],
      "stateMutability": "view",
      "type": "function"
    },
    {
      "inputs": [
        {
          "internalType": "uint256",
          "name": "jobId",
          "type": "uint256"
        },
        {
          "internalType": "uint256",
          "name": "freelancerBps",
          "type": "uint256"
        }
      ],
      "name": "resolveDisputeManual",
      "outputs": [],
      "stateMutability": "nonpayable",
      "type": "function"
    },
    {
      "inputs": [],
      "name": "reviewSBT",
      "outputs": [
        {
          "internalType": "address",
          "name": "",
          "type": "address"
        }
      ],
      "stateMutability": "view",
      "type": "function"
    },
    {
      "inputs": [
        {
          "internalType": "bytes32",
          "name": "role",
          "type": "bytes32"
        },
        {
          "internalType": "address",
          "name": "account",
          "type": "address"
        }
      ],
      "name": "revokeRole",
      "outputs": [],
      "stateMutability": "nonpayable",
      "type": "function"
    },
    {
      "inputs": [
        {
          "internalType": "uint256",
          "name": "dId",
          "type": "uint256"
        },
        {
          "internalType": "uint256",
          "name": "ruling",
          "type": "uint256"
        }
      ],
      "name": "rule",
      "outputs": [],
      "stateMutability": "nonpayable",
      "type": "function"
    },
    {
      "inputs": [
        {
          "internalType": "address",
          "name": "from",
          "type": "address"
        },
        {
          "internalType": "address",
          "name": "to",
          "type": "address"
        },
        {
          "internalType": "uint256",
          "name": "tokenId",
          "type": "uint256"
        }
      ],
      "name": "safeTransferFrom",
      "outputs": [],
      "stateMutability": "nonpayable",
      "type": "function"
    },
    {
      "inputs": [
        {
          "internalType": "address",
          "name": "from",
          "type": "address"
        },
        {
          "internalType": "address",
          "name": "to",
          "type": "address"
        },
        {
          "internalType": "uint256",
          "name": "tokenId",
          "type": "uint256"
        },
        {
          "internalType": "bytes",
          "name": "data",
          "type": "bytes"
        }
      ],
      "name": "safeTransferFrom",
      "outputs": [],
      "stateMutability": "nonpayable",
      "type": "function"
    },
    {
      "inputs": [],
      "name": "sbtContract",
      "outputs": [
        {
          "internalType": "address",
          "name": "",
          "type": "address"
        }
      ],
      "stateMutability": "view",
      "type": "function"
    },
    {
      "inputs": [
        {
          "internalType": "address",
          "name": "operator",
          "type": "address"
        },
        {
          "internalType": "bool",
          "name": "approved",
          "type": "bool"
        }
      ],
      "name": "setApprovalForAll",
      "outputs": [],
      "stateMutability": "nonpayable",
      "type": "function"
    },
    {
      "inputs": [
        {
          "internalType": "address",
          "name": "_arb",
          "type": "address"
        }
      ],
      "name": "setArbitrator",
      "outputs": [],
      "stateMutability": "nonpayable",
      "type": "function"
    },
    {
      "inputs": [
        {
          "internalType": "address",
          "name": "_cert",
          "type": "address"
        }
      ],
      "name": "setCompletionCertContract",
      "outputs": [],
      "stateMutability": "nonpayable",
      "type": "function"
    },
    {
      "inputs": [
        {
          "internalType": "address",
          "name": "_entry",
          "type": "address"
        }
      ],
      "name": "setEntryPoint",
      "outputs": [],
      "stateMutability": "nonpayable",
      "type": "function"
    },
    {
      "inputs": [
        {
          "internalType": "uint256",
          "name": "_bps",
          "type": "uint256"
        }
      ],
      "name": "setPlatformFee",
      "outputs": [],
      "stateMutability": "nonpayable",
      "type": "function"
    },
    {
      "inputs": [
        {
          "internalType": "address",
          "name": "_token",
          "type": "address"
        }
      ],
      "name": "setPolyToken",
      "outputs": [],
      "stateMutability": "nonpayable",
      "type": "function"
    },
    {
      "inputs": [
        {
          "internalType": "address",
          "name": "_ps",
          "type": "address"
        }
      ],
      "name": "setPrivacyShield",
      "outputs": [],
      "stateMutability": "nonpayable",
      "type": "function"
    },
    {
      "inputs": [
        {
          "internalType": "address",
          "name": "_rep",
          "type": "address"
        }
      ],
      "name": "setReputationContract",
      "outputs": [],
      "stateMutability": "nonpayable",
      "type": "function"
    },
    {
      "inputs": [
        {
          "internalType": "uint256",
          "name": "_t",
          "type": "uint256"
        }
      ],
      "name": "setReputationThreshold",
      "outputs": [],
      "stateMutability": "nonpayable",
      "type": "function"
    },
    {
      "inputs": [
        {
          "internalType": "address",
          "name": "_rsbt",
          "type": "address"
        }
      ],
      "name": "setReviewSBT",
      "outputs": [],
      "stateMutability": "nonpayable",
      "type": "function"
    },
    {
      "inputs": [
        {
          "internalType": "address",
          "name": "_sbt",
          "type": "address"
        }
      ],
      "name": "setSBTContract",
      "outputs": [],
      "stateMutability": "nonpayable",
      "type": "function"
    },
    {
      "inputs": [
        {
          "internalType": "address",
          "name": "_sm",
          "type": "address"
        }
      ],
      "name": "setSwapManager",
      "outputs": [],
      "stateMutability": "nonpayable",
      "type": "function"
    },
    {
      "inputs": [
        {
          "internalType": "address",
          "name": "_token",
          "type": "address"
        },
        {
          "internalType": "bool",
          "name": "_status",
          "type": "bool"
        }
      ],
      "name": "setTokenWhitelist",
      "outputs": [],
      "stateMutability": "nonpayable",
      "type": "function"
    },
    {
      "inputs": [
        {
          "internalType": "address",
          "name": "_vault",
          "type": "address"
        }
      ],
      "name": "setVault",
      "outputs": [],
      "stateMutability": "nonpayable",
      "type": "function"
    },
    {
      "inputs": [
        {
          "internalType": "address",
          "name": "_ym",
          "type": "address"
        }
      ],
      "name": "setYieldManager",
      "outputs": [],
      "stateMutability": "nonpayable",
      "type": "function"
    },
    {
      "inputs": [
        {
          "internalType": "address",
          "name": "token",
          "type": "address"
        },
        {
          "internalType": "uint256",
          "name": "amount",
          "type": "uint256"
        },
        {
          "internalType": "enum IYieldManager.Strategy",
          "name": "strategy",
          "type": "uint8"
        }
      ],
      "name": "stakeBalance",
      "outputs": [],
      "stateMutability": "nonpayable",
      "type": "function"
    },
    {
      "inputs": [
        {
          "internalType": "uint256",
          "name": "jobId",
          "type": "uint256"
        },
        {
          "internalType": "string",
          "name": "evidenceHash",
          "type": "string"
        }
      ],
      "name": "submitEvidence",
      "outputs": [],
      "stateMutability": "nonpayable",
      "type": "function"
    },
    {
      "inputs": [
        {
          "internalType": "uint256",
          "name": "jobId",
          "type": "uint256"
        },
        {
          "internalType": "string",
          "name": "ipfsHash",
          "type": "string"
        }
      ],
      "name": "submitWork",
      "outputs": [],
      "stateMutability": "nonpayable",
      "type": "function"
    },
    {
      "inputs": [
        {
          "internalType": "bytes4",
          "name": "id",
          "type": "bytes4"
        }
      ],
      "name": "supportsInterface",
      "outputs": [
        {
          "internalType": "bool",
          "name": "",
          "type": "bool"
        }
      ],
      "stateMutability": "view",
      "type": "function"
    },
    {
      "inputs": [],
      "name": "swapManager",
      "outputs": [
        {
          "internalType": "address",
          "name": "",
          "type": "address"
        }
      ],
      "stateMutability": "view",
      "type": "function"
    },
    {
      "inputs": [],
      "name": "symbol",
      "outputs": [
        {
          "internalType": "string",
          "name": "",
          "type": "string"
        }
      ],
      "stateMutability": "view",
      "type": "function"
    },
    {
      "inputs": [
        {
          "internalType": "bool",
          "name": "_active",
          "type": "bool"
        }
      ],
      "name": "toggleEmergencyMode",
      "outputs": [],
      "stateMutability": "nonpayable",
      "type": "function"
    },
    {
      "inputs": [
        {
          "internalType": "uint256",
          "name": "jobId",
          "type": "uint256"
        }
      ],
      "name": "tokenURI",
      "outputs": [
        {
          "internalType": "string",
          "name": "",
          "type": "string"
        }
      ],
      "stateMutability": "view",
      "type": "function"
    },
    {
      "inputs": [
        {
          "internalType": "address",
          "name": "",
          "type": "address"
        }
      ],
      "name": "tokenWhitelist",
      "outputs": [
        {
          "internalType": "bool",
          "name": "",
          "type": "bool"
        }
      ],
      "stateMutability": "view",
      "type": "function"
    },
    {
      "inputs": [
        {
          "internalType": "address",
          "name": "from",
          "type": "address"
        },
        {
          "internalType": "address",
          "name": "to",
          "type": "address"
        },
        {
          "internalType": "uint256",
          "name": "tokenId",
          "type": "uint256"
        }
      ],
      "name": "transferFrom",
      "outputs": [],
      "stateMutability": "nonpayable",
      "type": "function"
    },
    {
      "inputs": [],
      "name": "unpause",
      "outputs": [],
      "stateMutability": "nonpayable",
      "type": "function"
    },
    {
      "inputs": [
        {
          "internalType": "address",
          "name": "token",
          "type": "address"
        },
        {
          "internalType": "uint256",
          "name": "amount",
          "type": "uint256"
        },
        {
          "internalType": "enum IYieldManager.Strategy",
          "name": "strategy",
          "type": "uint8"
        }
      ],
      "name": "unstakeBalance",
      "outputs": [],
      "stateMutability": "nonpayable",
      "type": "function"
    },
    {
      "inputs": [
        {
          "internalType": "address",
          "name": "newImplementation",
          "type": "address"
        },
        {
          "internalType": "bytes",
          "name": "data",
          "type": "bytes"
        }
      ],
      "name": "upgradeToAndCall",
      "outputs": [],
      "stateMutability": "payable",
      "type": "function"
    },
    {
      "inputs": [
        {
          "internalType": "address",
          "name": "",
          "type": "address"
        },
        {
          "internalType": "address",
          "name": "",
          "type": "address"
        },
        {
          "internalType": "enum IYieldManager.Strategy",
          "name": "",
          "type": "uint8"
        }
      ],
      "name": "userStakes",
      "outputs": [
        {
          "internalType": "uint256",
          "name": "",
          "type": "uint256"
        }
      ],
      "stateMutability": "view",
      "type": "function"
    },
    {
      "inputs": [],
      "name": "vault",
      "outputs": [
        {
          "internalType": "address",
          "name": "",
          "type": "address"
        }
      ],
      "stateMutability": "view",
      "type": "function"
    },
    {
      "inputs": [
        {
          "internalType": "address",
          "name": "token",
          "type": "address"
        }
      ],
      "name": "withdraw",
      "outputs": [],
      "stateMutability": "nonpayable",
      "type": "function"
    },
    {
      "inputs": [],
      "name": "yieldManager",
      "outputs": [
        {
          "internalType": "address",
          "name": "",
          "type": "address"
        }
      ],
      "stateMutability": "view",
      "type": "function"
    }
  ],
  "bytecode": "0x60a08060405234620000d157306080527ff0c57e16840df040f15088dc2f81fe391c3923bec73e23a9662efc9c229c6a009081549060ff8260401c16620000c257506001600160401b036002600160401b0319828216016200007c575b6040516170589081620000d682396080518181816135e8015261378b0152f35b6001600160401b031990911681179091556040519081527fc7f505b2f371ae2175ee4913f4499e1f2633a7b5936321eed1cdaeb6115181d290602090a15f80806200005c565b63f92ee8a960e01b8152600490fd5b5f80fdfe6080806040526004361015610012575f80fd5b5f905f3560e01c90816301ffc9a71461545a57508063042fc31314615432578063061583601461540a57806306fdde0314615372578063081812fc1461532a5780630905f560146153055780630918d10e1461516b578063095ea7b31461507f5780630c856d18146147d2578063126082cf146147b557806312e8e2c31461478957806315152c061461475f578063180aedf31461461e5780631e009f31146145fa5780631ebcfb4b146143d457806322dcd13e146143b657806323b872dd1461439e578063248a9ca3146143655780632f2ff15d1461431b57806330095f89146142d357806330284efc1461428e578063311a6c5614613f85578063315ecb6414613f6257806336568abe14613f105780633f4ba83a14613ef75780633fd0929314613eb857806342842e0e14613e9057806348f4393b14613e745780634c5d8a0f14613e565780634d68282f146139215780634f1ef2861461374d57806351cff8d91461363f57806352d1902d146135d5578063584465f21461358d5780635c975abb1461355e5780636352211e1461352d57806363b2f3c91461345a5780636817031b1461341257806368574222146132305780636b0a30e2146131eb5780636cc6cde1146131c25780636faa22a514613199578063709d039d1461317057806370a082311461312357806373a2b57f146130a5578063747143b914612fa257806374ce962c14612f5d578063753d756314612f1e57806376686eab14612e7157806379d5773214612e2c5780637c084cb314612e1057806380b7af1814612de75780638456cb5914612d6e57806386d6282c146127b457806387bc142514612d455780638d01513c14612d2857806391d1485414612cd25780639584660f14612c8d57806395d89b4114612bbd5780639853d80214612b5a5780639cea078714612b32578063a17e8af014612b09578063a217fddf14612aed578063a22cb46514612a49578063a39bf544146129ff578063a5c1674e146127b4578063a6a7f0eb14612699578063a9f335a51461266f578063ad3cb1cc14612629578063b099a7df14612361578063b0d691fe14612338578063b0eefabe146122f0578063b88d4fde146122a1578063c1b1835e1461210b578063c23f001f146120be578063c87b56dd14611766578063c9bcc97e146116c4578063cc6dbc631461169b578063cf93736514611656578063d410e8ba14611638578063d547741f146115ea578063da8accf91461148e578063dbaf09101461142b578063dca137b414610e3a578063e0c94ae514610b16578063e985e9c514610ac9578063ead39a1114610a71578063ec87621c14610a49578063f4daaef314610a04578063f565c626146109e8578063f8c8765e1461043d5763fbfa77cf14610412575f80fd5b3461043a578060031936011261043a57600c546040516001600160a01b039091168152602090f35b80fd5b503461043a57608036600319011261043a57610457615525565b9061046061553b565b604435906001600160a01b03821682036109e4576064356001600160a01b03811681036109e4575f80516020616fc383398151915254926001600160401b038416801590816109d4575b60011490816109ca575b1590816109c1575b506109af576001600160401b031984166001175f80516020616fc383398151915255604084901c60ff1615610987575b6001600160a01b038616158015610976575b8015610965575b8015610954575b610942576040519561051d87615660565b6018875277141bdb1e53185b98d94816995b9a5d1a08141c9bda9958dd60421b60208801526040519661054f88615660565b60068852650b48a9c92a8960d31b602089015261056a61696b565b61057261696b565b8051906001600160401b03821161092e5761059a5f80516020616da383398151915254615584565b601f81116108d6575b50602090601f831160011461084b576105c69291899183610748575b5050615d52565b5f80516020616da3833981519152555b86516001600160401b038111610837576105fd5f80516020616fe383398151915254615584565b601f81116107df575b506020601f821160011461075357908061062b92899a60ff9a92610748575050615d52565b5f80516020616fe3833981519152555b61064361696b565b61064b61696b565b61065361696b565b60015f80516020616f838339815191525561066c61696b565b61067461696b565b61067d81615fd7565b506106878161605c565b50610691816160ee565b5060018060a01b03199360018060a01b031684600a541617600a5560018060a01b031683600854161760085560018060a01b031682600954161760095560018060a01b031690600b541617600b5560fa600f55600a60155560401c16156106f55780f35b60ff60401b195f80516020616fc383398151915254165f80516020616fc3833981519152557fc7f505b2f371ae2175ee4913f4499e1f2633a7b5936321eed1cdaeb6115181d2602060405160018152a180f35b015190505f806105bf565b5f80516020616fe383398151915288525f80516020616dc383398151915298885b601f19841681106107c7575098829160ff999a600194601f198116106107af575b505050811b015f80516020616fe38339815191525561063b565b01515f1960f88460031b161c191690555f8080610795565b828201518b556001909a019960209283019201610774565b5f80516020616fe38339815191525f525f80516020616dc3833981519152601f830160051c810160208410610830575b601f830160051c82018110610825575050610606565b5f815560010161080f565b508061080f565b634e487b7160e01b87526041600452602487fd5b5f80516020616da383398151915289528892915f80516020617003833981519152915b601f19841685106108bb576001945083601f198116106108a3575b505050811b015f80516020616da3833981519152556105d6565b01515f1960f88460031b161c191690555f8080610889565b8181015183556020948501946001909301929091019061086e565b5f80516020616da38339815191525f525f80516020617003833981519152601f840160051c810160208510610927575b601f830160051c8201811061091c5750506105a3565b5f8155600101610906565b5080610906565b634e487b7160e01b88526041600452602488fd5b60405163e6c4247b60e01b8152600490fd5b506001600160a01b0382161561050c565b506001600160a01b03811615610505565b506001600160a01b038316156104fe565b6001600160481b031984166001600160401b01175f80516020616fc3833981519152556104ec565b60405163f92ee8a960e01b8152600490fd5b9050155f6104bc565b303b1591506104b4565b604086901c60ff161591506104aa565b5f80fd5b503461043a578060031936011261043a57602060405160038152f35b503461043a57602036600319011261043a57610a1e615525565b610a26615f41565b601380546001600160a01b0319166001600160a01b039290921691909117905580f35b503461043a578060031936011261043a5760206040515f80516020616ec38339815191528152f35b503461043a57610a803661574c565b9082526002602052604082208054821015610ac557610a9f9250615866565b508054600190910154604051918291610ac1916001600160a01b031683615893565b0390f35b8280fd5b503461043a57604036600319011261043a57610ae3615525565b610af4610aee61553b565b9161579a565b9060018060a01b03165f52602052602060ff60405f2054166040519015158152f35b50602080600319360112610e3657600435610b2f615dd9565b610b37615e03565b8083528282526040832080549092906001600160a01b0390818116156109425760f01c60ff166007811015610e2257610e1057828552600382526040852081610b7e615e32565b165f52825260ff60405f205416610e105782855260028252603260408620541015610dfe576003840154600581029080820460051490151715610dea576064869104946002810183815416878115155f14610dcc57610be691610bdf615e32565b309161662a565b83600d54168781151580610d91575b610d05575b50505050505b8285526002825260408520610c13615e32565b908260405192610c2284615660565b16825283820186815281549091600160401b821015610cf15790610c4b91600182018155615866565b929092610cdd575182546001600160a01b0319169084161782555160019091015582855260038252604085207f81bbe3bd8cd7aca942797e968d27abaa8f12cfb189d8d0e56b49453fb8590c7392919081610ca4615e32565b165f52825260405f20600160ff19825416179055610cc0615e32565b1693604051908152a360015f80516020616f838339815191525580f35b634e487b7160e01b88526004889052602488fd5b634e487b7160e01b89526041600452602489fd5b610d129186845416615e6c565b8360ff600182600d541694015460c81c1691541690823b15610d8d57610d53928492838a93604051968795869485936241c0b960e11b8552600485016158cf565b03925af18015610d8257610d6a575b808087610bfa565b610d739061564d565b610d7e57845f610d62565b8480fd5b6040513d84823e3d90fd5b8380fd5b50509091925060ff600184015460c81c166004811015610db8579087899493921515610bf5565b634e487b7160e01b89526021600452602489fd5b9350505050341015610c00576040516369b915a760e01b8152600490fd5b634e487b7160e01b86526011600452602486fd5b60405163ea8e4eb560e01b8152600490fd5b6040516307a92f1960e51b8152600490fd5b634e487b7160e01b86526021600452602486fd5b5080fd5b503461043a57604036600319011261043a5760ff602435166024350361043a57610e62615dd9565b610e6a615e03565b60043581528060205260408120610e7f615e32565b815491906001600160a01b03808416911603610dfe5760ff8260f01c16600781101561141757600203610e1057600181015460ff8160c01c1661140557600382015492846005840154612710610ee2610ed883896158ae565b97600f5490615bb1565b04938685116113fd575b86610f0860a083901c61ffff166001600160a01b0384166164f0565b92836113f3575b81610f5e91610f2289610f7596956158ae565b60ff60c01b198516600160c01b1760018c01556001600160f01b0390981660243560f81b6001600160f81b03191617600560f01b178a556158f5565b6005880155600435906001600160a01b03166161c2565b6012546001600160a01b031680611353575b5060115482906001600160a01b03168061129e575b5050600560ff60243516148061128a575b611236575b6010546001600160a01b0316806111ba575b5050600d546001600160a01b031680151580611185575b61110d575b50506004830154610ff0916158f5565b60018060a01b03600184015416855260046020526040852090600284019160018060a01b038354165f5260205261102c60405f209182546158f5565b9055811515806110f9575b6110bb575b505060018060a01b03600182015416809260405190815260043560208201525f80516020616d83833981519152604060043592a360018060a01b0390541660405160ff602435168152604060208201528360408201525f80516020616f03833981519152606060043592a460015f80516020616f838339815191525580f35b60018060a01b03600c541685526004602052604085209060018060a01b039054165f526020526110f060405f209182546158f5565b90555f8061103c565b50600c546001600160a01b03161515611037565b60ff600186015460c81c1660018060a01b03600287015416906111346004880154896158f5565b92803b15610d7e576111629385809460405196879586948593636169f00160e01b85523092600486016159a1565b03925af18015610d825715610fe05761117a9061564d565b610d7e57845f610fe0565b50905060ff600185015460c81c1660048110156111a6579086911515610fdb565b634e487b7160e01b87526021600452602487fd5b82911561122757681043561a88293000005b60018701546040516340c10f1960e01b6020820190815292859261121191839161120391906001600160a01b031660248401615893565b03601f1981018352826156e7565b51925af15061121e615d64565b50845f80610fc4565b68056bc75e2d631000006111cc565b60135460018601546040516335313c2160e11b602082019081526001600160a01b0392831660248084019190915282528593849316918390611277816156cc565b51925af150611284615d64565b50610fb2565b506013546001600160a01b03161515610fad565b819060018801548260405161ffff60208201936335a42fa760e01b855260018060a01b038116602484015260a01c16604482015260016064820152606481526112e681615696565b51925af1506112f3615d64565b50818060018060a01b036011541660018060a01b03600189015416826040516020810192631bcdee0160e31b8452602482015260ff6024351660448201526044815261133e816156b1565b51925af15061134b615d64565b50815f610f9c565b602061ffff60a460018901548660018060a01b038b5416956040519687958694630100160360e01b865260018060a01b038116600487015260a01c16602485015260ff602435166044850152600435606485015260848401525af180156113e85715610f87576020809293503d83116113e1575b6113d181836156e7565b810103126109e45785905f610f87565b503d6113c7565b6040513d85823e3d90fd5b9395508593610f0f565b869450610eec565b604051630d70a0e360e41b8152600490fd5b634e487b7160e01b84526021600452602484fd5b503461043a5761143a3661574c565b611442615dd9565b61144a615e03565b818352826020526040832061145d615e32565b90546001600160a01b03908116911603610dfe5761147a91616351565b60015f80516020616f838339815191525580f35b503461043a57604036600319011261043a576001600160401b0390602435828111610e365736602382011215610e36576114d29036906024816004013591016157ed565b916114db615dd9565b600435825260209082602052604083206114f3615e32565b6001808301549092916001600160a01b03918216911603610dfe5760ff815460f01c166007811015610e2257600203610e10576006019285519283116115d657611547836115418654615584565b86615d03565b602091601f84116001146115715750508190849561156c949592610748575050615d52565b905580f35b95601f92919219841696858752602087209387915b8983106115bf57505050836001959697106115a7575b505050811b01905580f35b01515f1960f88460031b161c191690555f808061159c565b838501518655948501949381019391810191611586565b634e487b7160e01b85526041600452602485fd5b503461043a57604036600319011261043a5761163460043561160a61553b565b908084525f80516020616ee383398151915260205261162f6001604086200154615f95565b6162c6565b5080f35b503461043a578060031936011261043a576020601554604051908152f35b503461043a57602036600319011261043a57611670615525565b611678615f41565b601280546001600160a01b0319166001600160a01b039290921691909117905580f35b503461043a578060031936011261043a576012546040516001600160a01b039091168152602090f35b503461043a57604036600319011261043a576116de615525565b906116e7615841565b6116ef615e32565b6001600160a01b039081165f8181525f80516020616f6383398151915260205260409020545f80516020616ec383398151915295919060ff16156117485750611745939450168352601760205260408320615cf2565b80f35b604490866040519163e2517d3f60e01b835260048301526024820152fd5b503461043a57602036600319011261043a5761202a611f4a611da660e2610ac194600435815280602052604081209061ffff600183015460a01c166003830154906117c96006855460f81c956117c260405180938193016155bc565b03906156e7565b611db4610355611da66117db87616999565b9391651e17b9bb339f60d11b6117f2600435616759565b956117fc89616895565b6118058b616759565b918d80156120a757609161181b61191092616b31565b926040519384917f3c7465787420783d223530252220793d223830252220746578742d616e63686f602084015270391e9136b4b232363291103334b6361e9160791b60408401526118f1815192602083019361187b8160518801876154df565b85017f2220666f6e742d66616d696c793d22417269616c2220666f6e742d73697a653d60518201527711191911103337b73a16bbb2b4b3b43a1e913137b632111f60411b60718201526118d88251809360206089850191016154df565b0191600160fd1b6089840152518093608a8401906154df565b01661e17ba32bc3a1f60c91b608a8201520360718101845201826156e7565b915b6040519889967f3c73766720786d6c6e733d22687474703a2f2f7777772e77332e6f72672f323060208901527f30302f737667222077696474683d2234303022206865696768743d2234303022604089015276103b34b2bba137bc1e91181018101a1818101a1818111f60491b60608901527f3c726563742077696474683d223130302522206865696768743d223130302522607789015270103334b6361e911198b098b1993191179f60791b60978901527f3c646566733e3c6c696e6561724772616469656e742069643d2267726164222060a88901527f78313d223025222079313d223025222078323d2231303025222079323d22313060c8890152631812911f60e11b60e88901527f3c73746f70206f66667365743d22302522207374796c653d2273746f702d636f60ec890152633637b91d60e11b61010c89015261011096611a688151809260208b8d0191016154df565b8801966211179f60e91b918280928a01527f3c73746f70206f66667365743d223130302522207374796c653d2273746f702d6101138a01526531b7b637b91d60d11b6101338a015261013998611ac78251809360208d850191016154df565b0197880152771e17b634b732b0b923b930b234b2b73a1f1e17b232b3399f60411b61013c8801527f3c636972636c652063783d22323030222063793d223230302220723d223135306101548801527f222066696c6c3d2275726c2823677261642922206f7061636974793d22302e396101748801526101948701527f3c7465787420783d223530252220793d223330252220746578742d616e63686f6101978701527f723d226d6964646c65222066696c6c3d2277686974652220666f6e742d66616d90816101b78801527f696c793d22417269616c2220666f6e742d73697a653d2232342220666f6e742d6101d78801527f7765696768743d22626f6c64223e504f4c594c414e434520574f524b3c2f74656101f7880152623c3a1f60e91b6102178801527f3c7465787420783d223530252220793d223435252220746578742d616e63686f61021a8801528161023a8801527f696c793d22417269616c2220666f6e742d73697a653d223138223e4a6f62202361025a88015261027a96611c598251809360208b850191016154df565b0195661e17ba32bc3a1f60c91b938480928901527f3c7465787420783d223530252220793d223535252220746578742d616e63686f6102818901527f723d226d6964646c65222066696c6c3d22236662626632342220666f6e742d666102a18901527f616d696c793d22417269616c2220666f6e742d73697a653d223230223e0000006102c18901526102de97611cf98251809360208c850191016154df565b01968701527f3c7465787420783d223530252220793d223635252220746578742d616e63686f6102e58701526103058601527f696c793d22417269616c2220666f6e742d73697a653d223136223e42756467656103258601526203a1d160ed1b61034586015261034894611d7682518093602089850191016154df565b019384015261034f92611d9282518093602087850191016154df565b0191820152036103358101845201826156e7565b611dae6166c8565b90616c06565b611ea1611e9b60405195611e0c603a8860208101967919185d184e9a5b5859d94bdcdd99cade1b5b0ed8985cd94d8d0b60321b8852611dfc81518092602086860191016154df565b810103601a81018a5201886156e7565b611e17600435616759565b97801561209157611e289150616759565b611e95604760405180937f7b2274726169745f74797065223a2022526174696e67222c202276616c7565226020830152621d101160e91b6040830152611e788151809260206043860191016154df565b8101630113e96160e51b60438201520360278101845201826156e7565b93616895565b93616759565b93604051988996787b226e616d65223a2022506f6c794c616e6365204a6f62202360381b6020890152611ede81518092602060398c0191016154df565b8701917f222c20226465736372697074696f6e223a202250726f6f66206f6620576f726b60398401527f20666f7220506f6c794c616e6365204d61726b6574706c616365222c2022696d60598401526630b3b2911d101160c91b607984015251809360808401906154df565b0171222c202261747472696275746573223a205b60701b6080820152611f7a8251809360206092850191016154df565b017f7b2274726169745f74797065223a202243617465676f7279222c202276616c7560928201526432911d101160d91b60b2820152611fc382518093602060b7850191016154df565b017f227d2c207b2274726169745f74797065223a2022427564676574222c2022766160b782015266363ab2911d101160c91b60d782015261200e82518093602060de850191016154df565b0163227d5d7d60e01b60de8201520360c28101845201826156e7565b61207d603d60405180937f646174613a6170706c69636174696f6e2f6a736f6e3b6261736536342c000000602083015261206d81518092602086860191016154df565b810103601d8101845201826156e7565b604051918291602083526020830190615500565b506040519061209f8261567b565b815293616895565b50506040516120b58161567b565b8c815291611912565b503461043a57604036600319011261043a576120d8615525565b60406120e261553b565b9260018060a01b03809316815260046020522091165f52602052602060405f2054604051908152f35b503461043a5761211a36615551565b90612123615dd9565b61212b615e03565b80158015612266575b612254576001600160a01b0380612149615e32565b168552601860205284604081209482811695865f5260205261216e8560405f20615850565b6121798582546158ae565b905582600d5416803b15610ac55785839186836121af9560405196879586948593636169f00160e01b85523092600486016159a1565b03925af18015610d8257612240575b50507f5651a00489e904a3312c6cbdef155fc6f114f0dcef7cc6cedbdeca47e36816a19161222b826040936121f1615e32565b1688526004602052838820875f52602052835f206122108482546158f5565b905561221a615e32565b16948351928352602083019061570a565ba360015f80516020616f838339815191525580f35b6122499061564d565b610d7e57845f6121be565b60405163bb16825360e01b8152600490fd5b506001600160a01b0380612278615e32565b1685526018602052604085209084165f526020528061229a8360405f20615850565b5410612134565b503461043a57608036600319011261043a576122bb615525565b6122c361553b565b606435916001600160401b038311610d8d576122e6611745933690600401615823565b9160443591615bc4565b503461043a57602036600319011261043a5761230a615525565b612312615f41565b6001600160a01b0316801561094257600880546001600160a01b03191691909117905580f35b503461043a578060031936011261043a57600b546040516001600160a01b039091168152602090f35b503461043a576123703661574c565b612378615e32565b6001600160a01b039081165f8181525f80516020616e438339815191526020908152604090912054929390929091905f80516020616e038339815191529060ff161561260b5750506123c8615dd9565b6123d0615e03565b8385528482526040852060ff815460f01c1660078110156111a657600303610e105760038101549060058101948761240a875480956158ae565b6127106124178783615bb1565b049761242d826124278b826158ae565b976158f5565b90556113888611156126015761244560055b8561597d565b82600d541690811515806125ca575b61254e575b507fb4121f1f91a696a3fc75f6d151f3c9865abffa0738bda595e71c381c02af2faa979150508015612516576004830154612493916158f5565b8160018401541689526004865260408920826002850154165f5286526124be60405f209182546158f5565b90555b826124e5575b505050604051908152a260015f80516020616f838339815191525580f35b80825416885260048552600260408920920154165f52835261250c60405f209182546158f5565b90555f80806124c7565b5060048201548160018401541689526004865260408920826002850154165f52865261254760405f209182546158f5565b90556124c1565b60ff600186015460c81c1661256f85600288015416926004880154906158f5565b92803b15610d7e5761259d9385809460405196879586948593636169f00160e01b85523092600486016159a1565b03925af18015610d82576125b2575b80612459565b6125bb9061564d565b6125c657875f6125ac565b8780fd5b5090915060ff600185015460c81c1660048110156125ed57908a92911515612454565b634e487b7160e01b8b52602160045260248bfd5b612445600661243f565b604492506040519163e2517d3f60e01b835260048301526024820152fd5b503461043a578060031936011261043a57610ac160405161264981615660565b60058152640352e302e360dc1b6020820152604051918291602083526020830190615500565b503461043a57602036600319011261043a5760406020916004358152600683522054604051908152f35b503461043a57604036600319011261043a576001600160401b03600435602435828111610d8d5736602382011215610d8d578060040135928311610d8d573660248483010111610d8d576126eb615dd9565b8184528360205260408420906126ff615e32565b82546001600160a01b03939091841684831614159081612798575b50610dfe5760f01c60ff166007811015610e2257600303610e1057602460407fdccf2f8b2cc26eafcd61905cba744cff4b81d14740725f6376390dc6298a6a3c92846008541694612769615e32565b16968083519485936020855282602086015201848401378181018301899052601f01601f19168101030190a480f35b9050838060016127a6615e32565b93015416911614155f61271a565b50602080600319360112610e36576004356127cd615dd9565b6127d5615e03565b80835282825260408320916127e8615e32565b83546001600160a01b03949185168582161415806129e5575b610dfe5760ff8160f01c16600781101590816129d15780151591826129c3575b826129b1575b5050610e105760ff60f01b1916600360f01b179055600854831692831515806129a7575b156129765760405163f7434ea960e01b81528260048201528560248201528281604481885afa801561296b57612941575b50816064946040519586809263c13517e160e01b8252600260048301526040602483015289604483015234905af19384156129365785946128fa575b505f80516020616de3833981519152916040918587526006825284838820556008541693825191818352820152a360015f80516020616f838339815191525580f35b9093508181813d831161292f575b61291281836156e7565b810103126109e45751925f80516020616de38339815191526128b8565b503d612908565b6040513d87823e3d90fd5b8290813d8311612964575b61295681836156e7565b810103126109e4575f61287c565b503d61294c565b6040513d88823e3d90fd5b507f1954f0ea9e3f5fbdc693320e038db1549f419ae5351b74d36cee7c9ef13dd2b6919250604051838152a261147a565b503084141561284b565b9091506111a657600214155f80612827565b50600181141591505f612821565b634e487b7160e01b88526021600452602488fd5b506129ee615e32565b858060018501541691161415612801565b503461043a57604036600319011261043a576040612a1b61553b565b9160043581526003602052209060018060a01b03165f52602052602060ff60405f2054166040519015158152f35b503461043a57604036600319011261043a57612a63615525565b612a6b615841565b612a73615e32565b6001600160a01b0392831692908315612ad4577f17307eab39ab6107e8899845ad3d59bd9653f200f220920489ca2b5937696c319181612ab460209361579a565b865f528352612ac68560405f20615cf2565b60405194151585521692a380f35b604051630b61174360e31b815260048101859052602490fd5b503461043a578060031936011261043a57602090604051908152f35b503461043a578060031936011261043a576014546040516001600160a01b039091168152602090f35b503461043a578060031936011261043a5760206040515f80516020616e038339815191528152f35b503461043a57606036600319011261043a57612b74615525565b612b7c61553b565b604435916004831015610d8d5790612bb49291604060209560018060a01b038093168152601887522091165f52835260405f20615850565b54604051908152f35b503461043a578060031936011261043a576040515f80516020616fe38339815191528054825f612bec83615584565b92838352602094600191866001821691825f14612c6b575050600114612c2f575b5050612c1b925003836156e7565b610ac1604051928284938452830190615500565b8592505f52815f20905f915b858310612c53575050612c1b93508201018580612c0d565b80548389018501528794508693909201918101612c3b565b9250935050612c1b94915060ff191682840152151560051b8201018580612c0d565b503461043a57602036600319011261043a57612ca7615525565b612caf615f41565b601180546001600160a01b0319166001600160a01b039290921691909117905580f35b503461043a57604036600319011261043a576040612cee61553b565b9160043581525f80516020616ee3833981519152602052209060018060a01b03165f52602052602060ff60405f2054166040519015158152f35b503461043a578060031936011261043a5760206040516103e88152f35b503461043a578060031936011261043a576011546040516001600160a01b039091168152602090f35b503461043a578060031936011261043a57612d87615f41565b612d8f615dd9565b5f80516020616f23833981519152805460ff191660011790557f62e78cea01bee320cd4e420270b5ea74000d11b0c9f74754ebdbfc544b05a2586020612dd3615e32565b6040516001600160a01b039091168152a180f35b503461043a578060031936011261043a57600d546040516001600160a01b039091168152602090f35b503461043a578060031936011261043a57602060405160058152f35b503461043a57602036600319011261043a57612e46615525565b612e4e615f41565b601480546001600160a01b0319166001600160a01b039290921691909117905580f35b503461043a57602036600319011261043a576004358015158082036109e457612e98615f41565b6014805460ff60a01b191660a09290921b60ff60a01b1691909117905515612ec257612d8f615dd9565b5f80516020616f23833981519152805460ff811615612f0c5760ff191690557f5db9ee0a495bf2e6ff9c91a7834c1ba4fdd244a5e8aa4e537bd38aeae4b073aa6020612dd3615e32565b604051638dfc202b60e01b8152600490fd5b503461043a57602036600319011261043a5760209060ff906040906001600160a01b03612f49615525565b168152601784522054166040519015158152f35b503461043a57602036600319011261043a57612f77615525565b612f7f615f41565b600d80546001600160a01b0319166001600160a01b039290921691909117905580f35b503461043a576020908160031936011261043a57600435815260028083526040822080549093906001600160401b038111613091579184919260405191612fee858360051b01846156e7565b8183528483018094875285872087915b8483106130555750505050506040519280840191818552518092526040840192945b82811061302d5784840385f35b855180516001600160a01b031685528201518483015294810194604090930192600101613020565b838860019260409b9a98999b5161306b81615660565b848060a01b03865416815284860154838201528152019201920191909795949697612ffe565b634e487b7160e01b84526041600452602484fd5b503461043a576040906130b73661574c565b90825260016020528282209082526020522080546002604051926130e9846130e281600185016155bc565b03856156e7565b015460ff6131096040519485948552608060208601526080850190615500565b918181161515604085015260081c16151560608301520390f35b503461043a57602036600319011261043a5761313d615525565b906001600160a01b03821615613158576020612bb483615762565b602490604051906322718ad960e21b82526004820152fd5b503461043a578060031936011261043a57600e546040516001600160a01b039091168152602090f35b503461043a578060031936011261043a576010546040516001600160a01b039091168152602090f35b503461043a578060031936011261043a576008546040516001600160a01b039091168152602090f35b503461043a57602036600319011261043a57613205615525565b61320d615f41565b601080546001600160a01b0319166001600160a01b039290921691909117905580f35b503461043a57602036600319011261043a5761324a615dd9565b613252615e03565b60043581528060205260408120613267615e32565b81546001600160a01b03929183821690841603610dfe5760ff8160f01c1660078110156133fe5780151590816133f2575b50610e105760ff60145460a01c16156133ba575b60ff60f01b1916600360f11b17815560018101805460ff60c01b1916600160c01b1790819055600d548491908416908115158061339b575b613331575b5050506003810154918082541684526004602052600260408520920154165f5260205261331b60405f209182546158f5565b905560015f80516020616f838339815191525580f35b8460028501541690600385015492803b15610d7e576133729385809460405196879586948593636169f00160e01b855260ff309360c81c16600486016159a1565b03925af18015610d8257613387575b806132e9565b6133909061564d565b610ac557825f613381565b5090915060ff8160c81c166004811015610e22579085929115156132e4565b65ffffffffffff8160c01c1680421090816133e8575b50156132ac576040516307a92f1960e51b8152600490fd5b905015155f6133d0565b6001915014155f613298565b634e487b7160e01b85526021600452602485fd5b503461043a57602036600319011261043a5761342c615525565b613434615f41565b6001600160a01b0316801561094257600c80546001600160a01b03191691909117905580f35b50602036600319011261043a57600435613472615dd9565b61347a615e03565b808252816020526040822061348d615e32565b60018201546001600160a01b03929190831690831603610dfe57805460ff8160f01c166007811015610e2257600103610e105734613517575b60ff60f01b1916600160f11b1790556134dd615e32565b16907f4426e4a90a9570c8f678a263b11785eaaade8b79d76d18c43d4d8e00062e4f838380a360015f80516020616f838339815191525580f35b600482016135263482546158f5565b90556134c6565b503461043a57602036600319011261043a57602061354c600435615d93565b6040516001600160a01b039091168152f35b503461043a578060031936011261043a57602060ff5f80516020616f2383398151915254166040519015158152f35b503461043a57602036600319011261043a576135a7615525565b6135af615f41565b6001600160a01b0316801561094257600b80546001600160a01b03191691909117905580f35b503461043a578060031936011261043a577f00000000000000000000000000000000000000000000000000000000000000006001600160a01b0316300361362d5760206040515f80516020616ea38339815191528152f35b60405163703e46dd60e11b8152600490fd5b503461043a57602080600319360112610e365761365a615525565b90613663615dd9565b61366b615e03565b6001600160a01b038061367c615e32565b168452600482528060408520931692835f52825260405f2054918215610e10578493826136a7615e32565b1685526004825260408520815f5282528460405f20556136c5615e32565b918161370a575050839283928392165af16136de615d64565b50156136f85760015f80516020616f838339815191525580f35b6040516312171d8360e31b8152600490fd5b9092506137489450613735613743929460405195869363a9059cbb60e01b9085015260248401615893565b03601f1981018452836156e7565b61666e565b61147a565b50604036600319011261043a57613762615525565b6024356001600160401b038111610ac557613781903690600401615823565b6001600160a01b037f00000000000000000000000000000000000000000000000000000000000000008116308114908115613906575b5061362d576137c4615f41565b8216916040516352d1902d60e01b8152602081600481875afa8591816138ce575b5061380357604051634c9c8ce360e01b815260048101859052602490fd5b9284935f80516020616ea3833981519152908181036138b65750823b1561389d5780546001600160a01b0319168217905560405184917fbc7cd75a20ee27fd9adebab32041f755214dbc6bffa90cc0225b39da2e5c2d3b8380a283511561388157508083602061163495519101845af461387b615d64565b91616cff565b925050503461388e575080f35b63b398979f60e01b8152600490fd5b604051634c9c8ce360e01b815260048101839052602490fd5b60249060405190632a87526960e21b82526004820152fd5b9091506020813d6020116138fe575b816138ea602093836156e7565b810103126138fa5751905f6137e5565b8580fd5b3d91506138dd565b9050815f80516020616ea3833981519152541614155f6137b7565b503461043a57602036600319011261043a5761393b615dd9565b613943615e03565b60043581528060205260408120613958615e32565b815491906001600160a01b03808416911603610dfe5760ff8260f01c16600781101561141757600203610e1057600181015460ff8160c01c16611405576003820154928460058401546127106139b1610ed883896158ae565b0493868511613e4e575b866139d760a083901c61ffff166001600160a01b0384166164f0565b9283613e44575b81610f5e916139f189613a1d96956158ae565b60ff60c01b198516600160c01b1760018c01556001600160f01b0390981661050560f01b178a556158f5565b6012546001600160a01b031680613db3575b5060115482906001600160a01b031680613d00575b506013546001600160a01b031680613cb7575b50506010546001600160a01b031680613c49575b5050600d546001600160a01b031680151580613c28575b613bb0575b50506004830154613a97916158f5565b60018060a01b03600184015416855260046020526040852090600284019160018060a01b038354165f52602052613ad360405f209182546158f5565b905581151580613b9c575b613b5e575b505060018060a01b03600182015416809260405190815260043560208201525f80516020616d83833981519152604060043592a360018060a01b0390541660405160058152604060208201528360408201525f80516020616f03833981519152606060043592a460015f80516020616f838339815191525580f35b60018060a01b03600c541685526004602052604085209060018060a01b039054165f52602052613b9360405f209182546158f5565b90555f80613ae3565b50600c546001600160a01b03161515613ade565b60ff600186015460c81c1660018060a01b0360028701541690613bd76004880154896158f5565b92803b15610d7e57613c059385809460405196879586948593636169f00160e01b85523092600486016159a1565b03925af18015610d825715613a8757613c1d9061564d565b610d7e57845f613a87565b50905060ff600185015460c81c1660048110156111a6579086911515613a82565b829115613ca857681043561a88293000005b60018701546040516340c10f1960e01b60208201908152928592613c9291839161120391906001600160a01b031660248401615893565b51925af150613c9f615d64565b50845f80613a6b565b68056bc75e2d63100000613c5b565b819060018060a01b036001890154168260405160208101926335313c2160e11b8452602482015260248152613ceb816156cc565b51925af150613cf8615d64565b50815f613a57565b819060018801548260405161ffff60208201936335a42fa760e01b855260018060a01b038116602484015260a01c1660448201526001606482015260648152613d4881615696565b51925af150613d55615d64565b506011546001860154604051631bcdee0160e31b602082019081526001600160a01b039283166024830152600560448084019190915282528593849316918390613d9e816156b1565b51925af150613dab615d64565b50815f613a44565b602061ffff60a460018901548660018060a01b038b5416956040519687958694630100160360e01b865260018060a01b038116600487015260a01c16602485015260056044850152600435606485015260848401525af180156113e85715613a2f576020809293503d8311613e3d575b613e2d81836156e7565b810103126109e45785905f613a2f565b503d613e23565b93955085936139de565b8694506139bb565b503461043a578060031936011261043a576020600754604051908152f35b503461043a578060031936011261043a57602060405160328152f35b503461043a57611745613ea236615717565b9060405192613eb08461567b565b858452615bc4565b503461043a57602036600319011261043a5760209060ff906040906001600160a01b03613ee3615525565b168152601684522054166040519015158152f35b503461043a578060031936011261043a57612ec2615f41565b503461043a57604036600319011261043a57613f2a61553b565b6001600160a01b0380613f3b615e32565b1690821603613f5057611634906004356162c6565b60405163334bd91960e11b8152600490fd5b503461043a57602036600319011261043a57613f7c615f41565b60043560155580f35b503461043a57613f943661574c565b613f9c615dd9565b613fa4615e03565b613fac615e32565b6008546001600160a01b039190821690821603610dfe578284526020600681526040852054918286528582526040862060ff815460f01c1660078110156129d157600303610e105760038101549061400a60058201928354906158ae565b600482015495896001840194600160c01b60ff60c01b198754161780875587600d54169081151580614259575b6141dd575b5050918693917f394027a5fa6e098a1191094d1719d6929b9abc535fcc0c8f448d6a4e75622276999360018c145f1461410457505050906140bd9183855491600360f11b60ff60f01b19841617875560011c91168c5260048852600260408d20950194848654165f52885260405f206140b68282546158f5565b90556158f5565b92541688526004845282604089209154165f5283526140e160405f209182546158f5565b90555b6008541692604051908152a360015f80516020616f838339815191525580f35b9296919260028c0361415f575050845460ff60f01b198116600360f11b1786559561413293925090506158f5565b921688526004845282600260408a20920154165f52835261415860405f209182546158f5565b90556140e4565b909295919360038c1461417a575b50505050505050506140e4565b60406141a46002926141d09a8995600560f01b60ff60f01b198954161788556140b68282546158f5565b9483875416815260048c5220920154165f5287526141c760405f209182546158f5565b905554166161c2565b5f8082818981808061416d565b88600288015416906141ef8c886158f5565b92803b156138fa576142239386809460405196879586948593636169f00160e01b855260ff309360c81c16600486016159a1565b03925af180156113e857614238575b8061403c565b91614247819a9492959361564d565b61425557919790925f614232565b8880fd5b509091925060ff8160c81c16600481101561427a57908d9392911515614037565b634e487b7160e01b8e52602160045260248efd5b503461043a57602036600319011261043a576142a8615525565b6142b0615f41565b600e80546001600160a01b0319166001600160a01b039290921691909117905580f35b503461043a57602036600319011261043a576142ed615525565b6142f5615f41565b6001600160a01b0316801561094257600980546001600160a01b03191691909117905580f35b503461043a57604036600319011261043a5761163460043561433b61553b565b908084525f80516020616ee38339815191526020526143606001604086200154615f95565b616160565b503461043a57602036600319011261043a576001604060209260043581525f80516020616ee38339815191528452200154604051908152f35b503461043a576117456143b036615717565b916159d2565b503461043a578060031936011261043a576020600f54604051908152f35b503461043a57604036600319011261043a576143ee61553b565b6143f6615dd9565b6004358252816020526040822061440b615e32565b8154906001600160a01b03808316911603610dfe5760ff8160f01c1660078110156133fe57610e10576001820180546001600160a01b0319166001600160a01b03851617905560ff60f01b1916600160f01b178155600435835260026020526040832090835b82548110156145c4576144848184615866565b50546001600160a01b038581169116146145a957600d5485906001600160a01b031680151580614588575b61450f575b50508060016144c4819386615866565b5001546144d18286615866565b50838060a01b039054168752600460205260408720838060a01b036002860154165f5260205261450660405f209182546158f5565b90555b01614471565b60ff600185015460c81c1660018060a01b036002860154169060016145348689615866565b50015492803b15610d7e576145659385809460405196879586948593636169f00160e01b85523092600486016159a1565b03925af18015610d8257156144b45761457d9061564d565b610d7e57845f6144b4565b50905060ff600184015460c81c1660048110156111a65790869115156144af565b8060016145b7819386615866565b5001546004840155614509565b5050506001600160a01b03166004357faa8ddb0a6be8eabb7afdafe9579df1131d7b727572b572ddd6de6cc8ef3081238380a380f35b503461043a578060031936011261043a57602060405168056bc75e2d631000008152f35b503461043a57602036600319011261043a576004358152806020526006604082209182549260018060a01b039360ff8160f01c1694600183015461ffff908260028601541691600386015493600487015495614690600589015498614689604051809d8193016155bc565b038b6156e7565b6040519a6101e0998383168d528c602063ffffffff8560a01c169101528c604065ffffffffffff8560c01c16910152600782101561474b575092614724928c9b99979592610ac19b99979560608e015260f81c60808d0152821660a08c0152808260a01c1660c08c01528160b01c1660e08b015260ff8160c01c1615156101008b015260ff6101208b019160c81c1661570a565b6101408801526101608701526101808601526101a0850152806101c0850152830190615500565b634e487b7160e01b81526021600452602490fd5b503461043a57602036600319011261043a5760406020916004358152600583522054604051908152f35b503461043a57602036600319011261043a576004356147a6615f41565b6103e88111610e1057600f5580f35b503461043a578060031936011261043a5760206040516127108152f35b50600319602036820112610e36576001600160401b0360043511610e36576101a0906004353603011261043a57614807615dd9565b61480f615e03565b60646004350135156122545761482f608460043501600435600401615902565b905015610e10576001600160a01b0361484c600435604401615934565b16151580615052575b615040576007545f19811461502c5760018101600755614879604460043501615934565b91600461012481350135101580610e365761489961014460043501615934565b6001600160a01b03908116906004356064013590861682141580615018575b15614fbd5750602081158015614f7d575b600e546001600160a01b03169015614f745760a434935b60405163d5bcb9b560e01b81526004808201929092526001600160a01b038a16602482015290356101648101356044830152610184013560648201523060848201529384928391905af19081156113e8578391614f42575b50935b600d546001600160a01b03168581151580614f2c575b80614f1a575b614e9c575b50505061496d602460043501615934565b61497b604460043501615934565b91614990608460043501600435600401615902565b91610d7e576149a960c460043501600435600401615948565b60018801875260208790526040872095909491506001600160a01b036149cd615e32565b875491166001600160a01b03199182161787556001870180546001600160a01b03948516908316811790915560028801805493909416929091169190911790915560038501889055614e9257614a23858561597d565b6001600160401b0382116115d657614a4b82614a426006870154615584565b60068701615d03565b8490601f8311600114614e2557614a6b9291869183614e1a575050615d52565b60068301555b60018201805460b09290921b61ffff60b01b1665ff00ffffffff60a01b19909216600480359081013560a01b61ffff60a01b16919091179290921761012483013560c81b60ff60c81b1617905560a40135614e0e5762093a804201804211614dfa575b815465ffffffffffff60c01b191660c09190911b65ffffffffffff60c01b16179055614b04600435602401615934565b92614b1960c460043501600435600401615948565b9094614b2f60e460043501600435600401615948565b614b4761010460049493943501600435600401615948565b919093875b868110614be95760208a8a8a614b60615e32565b9165ffffffffffff6040614b78602460043501615934565b92600187018152808852205460c01c166040519283528583015260018060a01b03169160018060a01b0316907f9f708ef692516d5076ae0cb779688ef01c75caad86fb2e2fa1b80612ee7e64a460406001860192a460015f80516020616f8383398151915255600160405191018152f35b614bf481888d615f24565b3583821015614de657614c0c8260051b840184615902565b91614c20614c1b85898c615f24565b615f34565b604051939092906001600160401b036080860190811190861117614dd257614c529260808601604052855236916157ed565b602083810191825260408085018e9052921515606085015260018e81018e528152828d20858e529052908b208251815590518051906001600160401b038211614dbe57614caf82614ca66001860154615584565b60018601615d03565b6020908d601f8411600114614d4b5783606094600294600199989794614cdb9492610748575050615d52565b868201555b0191614cf26040820151151584615cf2565b0151815461ff00191690151560081b61ff001617905560a082901b829003861680151590614d37575b614d26575b01614b4c565b614d3281838d01616351565b614d20565b50614d46614c1b82878a615f24565b614d1b565b919060018501835260208320925b601f1985168110614da65750836002936001989796938993606097601f19811610614d8e575b505050811b0186820155614ce0565b01515f1960f88460031b161c191690555f8080614d7f565b91926020600181928685015181550194019201614d59565b634e487b7160e01b8d52604160045260248dfd5b634e487b7160e01b5f52604160045260245ffd5b634e487b7160e01b8a52603260045260248afd5b634e487b7160e01b83526011600452602483fd5b60a46004350135614ad4565b013590505f806105bf565b600685939293018652602086209086935b601f1984168510614e7a576001945083601f19811610614e61575b505050811b016006830155614a71565b01355f19600384901b60f8161c191690555f8080614e51565b81810135835560209485019460019093019201614e36565b614a23600161243f565b614eaf916001600160a01b038416615e6c565b600d546001600160a01b031690813b15610d8d5785614eee928592836040518096819582946241c0b960e11b84526101246004350135600485016158cf565b03925af180156113e857908391614f06575b8561495c565b614f0f9061564d565b610e3657815f614f00565b506001600160a01b0383161515614957565b505091505f918561012460043501351515614951565b90506020813d602011614f6c575b81614f5d602093836156e7565b810103126109e457515f614938565b3d9150614f50565b60a485936148e0565b614f99614f88615e32565b61016460043501359030908661662a565b600e54614fb8906004356101640135906001600160a01b031685615e6c565b6148c9565b9490506001600160a01b03811615614ff857614ff3614fda615e32565b600435606401359030906001600160a01b03851661662a565b61493b565b6064600435013534101561493b5760405163bb16825360e01b8152600490fd5b50600e546001600160a01b031615156148b8565b634e487b7160e01b82526011600452602482fd5b6040516307c241ad60e51b8152600490fd5b506001600160a01b03615069600435604401615934565b168152601760205260ff60408220541615614855565b503461043a57604036600319011261043a57615099615525565b6024356150a4615e32565b916150ae82615d93565b6001600160a01b039390919084168015158061515f575b80615141575b615129575083169282918491167f8c5be1e5ebec7d5bd14f71427d1e84f3dd0314c0f7b2291e5b200ac8c7c3b9255f80a45f9081525f80516020616fa38339815191526020526040902080546001600160a01b031916909117905580f35b6024906040519063a9fbf51f60e01b82526004820152fd5b5061514b8361579a565b815f5260205260ff60405f205416156150cb565b508085841614156150c5565b50346109e45761517a36615551565b90615183615dd9565b61518b615e03565b801580156152d3575b61225457600d546001600160a01b039081161580156152ae575b610e1057806151bb615e32565b165f52600460205260405f209381811694855f5260205260405f206151e18482546158ae565b90556151f28383600d541687615e6c565b81600d5416803b156109e457835f9161522293836040518096819582946241c0b960e11b84528c600485016158cf565b03925af180156152a357615278575b505f80516020616e638339815191529161222b82604093615250615e32565b1688526018602052838820875f5260205261526d86855f20615850565b6122108482546158f5565b6040919550916152955f80516020616e638339815191529361564d565b61222b5f9692505091615231565b6040513d5f823e3d90fd5b5060048310156152bf5782156151ae565b634e487b7160e01b5f52602160045260245ffd5b506001600160a01b03806152e5615e32565b165f52600460205260405f209084165f526020528060405f205410615194565b346109e4575f3660031901126109e457602060ff60145460a01c166040519015158152f35b346109e45760203660031901126109e45760043561534781615d93565b505f525f80516020616fa3833981519152602052602060018060a01b0360405f205416604051908152f35b346109e4575f3660031901126109e4576040515f80516020616da38339815191528054825f6153a083615584565b92838352602094600191866001821691825f14612c6b5750506001146153ce575050612c1b925003836156e7565b8592505f52815f20905f915b8583106153f2575050612c1b93508201018580612c0d565b805483890185015287945086939092019181016153da565b346109e4575f3660031901126109e4576009546040516001600160a01b039091168152602090f35b346109e4575f3660031901126109e4576013546040516001600160a01b039091168152602090f35b346109e45760203660031901126109e4576004359063ffffffff60e01b82168092036109e457602091637965db0b60e01b811490811561549c575b5015158152f35b6380ac58cd60e01b8114915081156154ce575b81156154bd575b5083615495565b6301ffc9a760e01b149050836154b6565b635b5e139f60e01b811491506154af565b5f5b8381106154f05750505f910152565b81810151838201526020016154e1565b90602091615519815180928185528580860191016154df565b601f01601f1916010190565b600435906001600160a01b03821682036109e457565b602435906001600160a01b03821682036109e457565b60609060031901126109e4576004356001600160a01b03811681036109e457906024359060443560048110156109e45790565b90600182811c921680156155b2575b602083101461559e57565b634e487b7160e01b5f52602260045260245ffd5b91607f1691615593565b80545f93926155ca82615584565b918282526020936001916001811690815f1461562e57506001146155f0575b5050505050565b90939495505f92919252835f2092845f945b83861061561a57505050500101905f808080806155e9565b805485870183015294019385908201615602565b60ff19168685015250505090151560051b010191505f808080806155e9565b6001600160401b038111614dd257604052565b604081019081106001600160401b03821117614dd257604052565b602081019081106001600160401b03821117614dd257604052565b60a081019081106001600160401b03821117614dd257604052565b608081019081106001600160401b03821117614dd257604052565b606081019081106001600160401b03821117614dd257604052565b601f909101601f19168101906001600160401b03821190821017614dd257604052565b9060048210156152bf5752565b60609060031901126109e4576001600160a01b039060043582811681036109e4579160243590811681036109e4579060443590565b60409060031901126109e4576004359060243590565b6001600160a01b03165f9081527f80bb2b638cc20bc4d0a60d66940f3ab4a00c1d7b313497ca82fb0b4ab00793036020526040902090565b6001600160a01b03165f9081527f80bb2b638cc20bc4d0a60d66940f3ab4a00c1d7b313497ca82fb0b4ab00793056020526040902090565b6001600160401b038111614dd257601f01601f191660200190565b9291926157f9826157d2565b9161580760405193846156e7565b8294818452818301116109e4578281602093845f960137010152565b9080601f830112156109e45781602061583e933591016157ed565b90565b6024359081151582036109e457565b9060048110156152bf575f5260205260405f2090565b805482101561587f575f5260205f209060011b01905f90565b634e487b7160e01b5f52603260045260245ffd5b6001600160a01b039091168152602081019190915260400190565b919082039182116158bb57565b634e487b7160e01b5f52601160045260245ffd5b6040919493926158e382606081019761570a565b6001600160a01b031660208201520152565b919082018092116158bb57565b903590601e19813603018212156109e457018035906001600160401b0382116109e4576020019181360383136109e457565b356001600160a01b03811681036109e45790565b903590601e19813603018212156109e457018035906001600160401b0382116109e457602001918160051b360383136109e457565b9060078110156152bf57815460ff60f01b191660f09190911b60ff60f01b16179055565b92936060929195946159b785608081019861570a565b6001600160a01b039283166020860152604085015216910152565b6001600160a01b0382811693918415615b9957826159ee615e32565b94815f525f80516020616f438339815191528060205260409185835f205416978681168015159081615ada575b505050615a2c9088615a9f57615762565b60018154019055825f52602052805f208760018060a01b03198254161790555195857fddf252ad1be2c89b69c2b068fc378daa952ba7f163c4a11628f55a4df523b3ef5f80a416808303615a805750505050565b6364283d7b60e01b845260048401526024830152604482015260649150fd5b5f8581525f80516020616fa383398151915260205284902080546001600160a01b0319169055615ace89615762565b80545f19019055615762565b908092939495965091615b3e575b5015615afa5790818088959493615a1b565b83879189155f14615b1d578151637e27328960e01b815260048101849052602490fd5b905163177e802f60e01b8152918291615b3a919060048401615893565b0390fd5b89811491508115615b7b575b8115615b58575b505f615ae8565b9050875f525f80516020616fa383398151915260205286855f205416145f615b51565b9050615b868961579a565b815f5260205260ff855f20541690615b4a565b604051633250574960e11b81525f6004820152602490fd5b818102929181159184041417156158bb57565b919091615bd28284836159d2565b615bda615e32565b92803b615be8575050505050565b604051630a85bd0160e11b8082526001600160a01b03958616600483015292851660248201526044810193909352608060648401529092169260209082908190615c36906084830190615500565b03815f875af15f9181615cad575b50615c7b5782615c52615d64565b8051919082615c7457604051633250574960e11b815260048101839052602490fd5b6020915001fd5b6001600160e01b03191603615c9557505f808080806155e9565b60249060405190633250574960e11b82526004820152fd5b9091506020813d602011615cea575b81615cc9602093836156e7565b810103126109e457516001600160e01b0319811681036109e457905f615c44565b3d9150615cbc565b9060ff801983541691151516179055565b601f8211615d1057505050565b5f5260205f20906020601f840160051c83019310615d48575b601f0160051c01905b818110615d3d575050565b5f8155600101615d32565b9091508190615d29565b8160011b915f199060031b1c19161790565b3d15615d8e573d90615d75826157d2565b91615d8360405193846156e7565b82523d5f602084013e565b606090565b5f8181525f80516020616f4383398151915260205260409020546001600160a01b0316908115615dc1575090565b60249060405190637e27328960e01b82526004820152fd5b60ff5f80516020616f238339815191525416615df157565b60405163d93c066560e01b8152600490fd5b5f80516020616f838339815191526002815414615e205760029055565b604051633ee5aeb560e01b8152600490fd5b600a546001600160a01b0316331480615e61575b615e4e573390565b60131936013681116158bb573560601c90565b506014361015615e46565b6040519160205f818501615ea186615e9363095ea7b360e01b998a85528760248401615893565b03601f1981018852876156e7565b85519082865af15f513d82615eff575b505015615ebf575b50505050565b615ef6936137439160405191602083015260018060a01b031660248201525f604482015260448152615ef0816156b1565b8261666e565b5f808080615eb9565b909150615f1c57506001600160a01b0382163b15155b5f80615eb1565b600114615f15565b919081101561587f5760051b0190565b3580151581036109e45790565b615f49615e32565b6001600160a01b03165f8181525f80516020616e83833981519152602052604090205460ff1615615f775750565b6044906040519063e2517d3f60e01b825260048201525f6024820152fd5b615f9d615e32565b90805f525f80516020616ee383398151915260205260405f209160018060a01b031691825f5260205260ff60405f2054161561260b575050565b6001600160a01b039081165f8181525f80516020616e8383398151915260205260409020549091905f80516020616ee38339815191529060ff16616055575f805260205260405f20825f5260205260405f20600160ff1982541617905561603c615e32565b16905f5f80516020616d638339815191528180a4600190565b5050505f90565b6001600160a01b039081165f8181525f80516020616f6383398151915260205260409020545f80516020616ec383398151915292905f80516020616ee38339815191529060ff166160e657835f5260205260405f20825f5260205260405f20600160ff198254161790556160ce615e32565b16915f80516020616d638339815191525f80a4600190565b505050505f90565b6001600160a01b039081165f8181525f80516020616e4383398151915260205260409020545f80516020616e0383398151915292905f80516020616ee38339815191529060ff166160e657835f5260205260405f20825f5260205260405f20600160ff198254161790556160ce615e32565b5f8181525f80516020616ee3833981519152602081815260408084206001600160a01b039687168086529252909220549293919260ff166160e657835f5260205260405f20825f5260205260405f20600160ff198254161790556160ce615e32565b6009546001600160a01b0392908316806161dc5750505050565b815f526020915f835282808660a460405f20975f61ffff60018b015460a01c1697848b54166040519889968795630100160360e01b8752169a8b6004870152602486015260056044860152606485015260848401525af1918261629d575b5050616294575f80949361627d82956009541694611203604051938492830196636902622f60e11b885260248401526040604484015260066064840191016155bc565b51925af15061628a615d64565b505f808080615eb9565b50505050615ef6565b813d83116162bf575b6162b081836156e7565b810103126109e457825f61623a565b503d6162a6565b5f8181525f80516020616ee3833981519152602081815260408084206001600160a01b039687168086529252909220549293919260ff16156160e657835f5260205260405f20825f5260205260405f2060ff198154169055616326615e32565b16917ff6391f5c32d9c69d2a47ea670b442974b53935d1edc7fd64eb21e047a839171b5f80a4600190565b91905f92805f526020905f8252604091825f209560019687861b6005845280865f2054166164df57845f5260058452855f20908154179055878352845f20865f5283526002855f20018860ff19825416179055835f52878352845f20865f528352845f205491600582016163c68482546158f5565b9055600d546001600160a01b0392908316801515806164c4575b61642d575b50826002885f80516020616e2383398151915298999a9b9c8401948386541681526004895220920154165f528452865f206164218482546158f5565b905554169451908152a4565b60ff8b83015460c81c168460028401541690823b156109e45761646c92875f80948d5196879586948593636169f00160e01b85523092600486016159a1565b03925af180156164ba579780999a9b85925f80516020616e23833981519152999a61649f575b509b9a99509796506163e5565b915093506164ad915061564d565b826002895f949091616492565b88513d5f823e3d90fd5b5060ff8b83015460c81c1660048110156152bf5715156163e0565b85516340dabeef60e11b8152600490fd5b9060018060a01b0380831692835f526020926016845260ff60405f2054166166205783908360115416806165a0575b50505050601454169182616534575050505f90565b819060246040518095819363b9209e3360e01b835260048301525afa9182915f93616567575b505061583e578080616055565b9080929350813d8311616599575b61657f81836156e7565b810103126109e4575180151581036109e457905f8061655a565b503d616575565b604051627eeac760e11b8152938492839182916165c09160048401615893565b03915afa5f91816165f1575b506165da575b82818061651f565b60155411156165e9575f6165d2565b505050600190565b9091508381813d8311616619575b61660981836156e7565b810103126109e45751905f6165cc565b503d6165ff565b5050505050600190565b6040516323b872dd60e01b60208201526001600160a01b03928316602482015292909116604483015260648083019390935291815261666c9161374382615696565b565b905f602091828151910182855af1156152a3575f513d6166bf57506001600160a01b0381163b155b61669d5750565b604051635274afe760e01b81526001600160a01b039091166004820152602490fd5b60011415616696565b604051906166d5826156cc565b604082527f6768696a6b6c6d6e6f707172737475767778797a303132333435363738392b2f6040837f4142434445464748494a4b4c4d4e4f505152535455565758595a61626364656660208201520152565b90616731826157d2565b61673e60405191826156e7565b828152809261674f601f19916157d2565b0190602036910137565b5f908072184f03e93ff9f4daa797ed6e38ed64bf6a1f0160401b80821015616887575b506904ee2d6d415b85acef8160201b80831015616878575b50662386f26fc1000080831015616869575b506305f5e1008083101561685a575b506127108083101561684b575b50606482101561683b575b600a80921015616831575b6001908160216167ea60018701616727565b95860101905b6167fc575b5050505090565b5f19019083906f181899199a1a9b1b9c1cb0b131b232b360811b8282061a83530491821561682c579190826167f0565b6167f5565b91600101916167d8565b91906064600291049101916167cd565b6004919392049101915f6167c2565b6008919392049101915f6167b5565b6010919392049101915f6167a6565b6020919392049101915f616794565b60409350810491505f61677c565b60018114616943576002811461692057600381146168fa576004146168d7576040516168c081615660565b600781526611d95b995c985b60ca1b602082015290565b6040516168e381615660565b600781526657726974696e6760c81b602082015290565b5060405161690781615660565b60098152684d61726b6574696e6760b81b602082015290565b5060405161692d81615660565b60068152652232b9b4b3b760d11b602082015290565b5060405161695081615660565b600b81526a11195d995b1bdc1b595b9d60aa1b602082015290565b60ff5f80516020616fc38339815191525460401c161561698757565b604051631afcd79f60e31b8152600490fd5b60ff166004811015616ace5760038114616a6957616a05576040516169bd81615660565b60078152662334663436653560c81b6020820152906040516169de81615660565b60078152662339333333656160c81b6020820152906040516169ff8161567b565b5f815290565b604051616a1181615660565b600781526611a1a21ba3199960c91b602082015290604051616a3281615660565b60078152662338423435313360c81b602082015290604051616a5381615660565b600681526542524f4e5a4560d01b602082015290565b50604051616a7681615660565b60078152660234330433043360cc1b602082015290604051616a9781615660565b60078152660233830383038360cc1b602082015290604051616ab881615660565b600681526529a4a62b22a960d11b602082015290565b50604051616adb81615660565b60078152660234646443730360cc1b602082015290604051616afc81615660565b60078152660234646413530360cc1b602082015290604051616b1d81615660565b600481526311d3d31160e21b602082015290565b60ff1660058114616be45760048114616bc35760038114616ba35760028114616b8457600114616b67576040516169ff8161567b565b604051616b7381615660565b60018152601560f91b602082015290565b50604051616b9181615660565b6002815261151560f11b602082015290565b50604051616bb081615660565b600381526215151560e91b602082015290565b50604051616bd081615660565b60048152631515151560e11b602082015290565b50604051616bf181615660565b6005815264151515151560d91b602082015290565b919091805115616cf057805192600291600285018095116158bb576003948590046001600160fe1b03811681036158bb57616c469060029694961b616727565b9260208401928291835184019760208901928351945f85525b8a8110616ca357505050506003939495965052510680600114616c9157600214616c87575090565b603d905f19015390565b50603d90815f19820153600119015390565b836004919b989b019a8b51600190603f9082828260121c16870101518453828282600c1c16870101518385015382828260061c168701015187850153168401015185820153019699616c5f565b5090506040516169ff8161567b565b90616d265750805115616d1457602081519101fd5b60405163d6bda27560e01b8152600490fd5b81511580616d59575b616d37575090565b604051639996b31560e01b81526001600160a01b039091166004820152602490fd5b50803b15616d2f56fe2f8788117e7eff1d82e926ec794901d17c78024a50270940304540a733656f0d93e901cc5aea20ea9655887d9290a3215a5b3999c024812f4e4b749f7534349c80bb2b638cc20bc4d0a60d66940f3ab4a00c1d7b313497ca82fb0b4ab0079300f4bad0a69248f59680a4f2b3000328cec71a413447c96781cfe5996daa8c456e74baab670a4015ab2f1b467c5252a96141a2573f2908e58a92081e80d3cfde3d16ceee8289685dd2a02b9c8ae81d2df373176ce53519e6284e2a2950d6546ffa9365ecf0d115674c7526ab28f784fbf6bba13d2eeacadef89369860c2b565f58b5865ad506d0087b5b9864aee427988fc7aba8f4c8ec58b6dc2d0ddfb14bee84fd3c2579264c65263b5b08f088eb61f2efe82cf94c145345a7b05879a75bba0bb7db2dd08fcb62d0c9e08c51941cae53c267786a0b75803fb7960902fc8ef97d360894a13ba1a3210667c828492db98dca3e2076cc3735a920a3ca505d382bbc241ecf16d79d0f8dbfb92cbc07fe17840425976cf0667f022fe9877caa831b0802dd7bc7dec4dceedda775e58dd541e08a116c6c53815c0bd028192f7b6268000d1d6b5fdcc269f15c3c023f437df57afaf129b821fdca9726533515f0717f28cd5ed15c6e187e77e9aee88184c21f4f2182ab5827cb3b7e07fbedcd63f0330080bb2b638cc20bc4d0a60d66940f3ab4a00c1d7b313497ca82fb0b4ab007930206484cc59dc38e4f67c31122333a17ca81b3ca18cdf02bfc298072fa52b0316a9b779b17422d0df92223018b32b4d1fa46e071723d6817e2486d003becc55f0080bb2b638cc20bc4d0a60d66940f3ab4a00c1d7b313497ca82fb0b4ab0079304f0c57e16840df040f15088dc2f81fe391c3923bec73e23a9662efc9c229c6a0080bb2b638cc20bc4d0a60d66940f3ab4a00c1d7b313497ca82fb0b4ab007930137c58c799b6609234b945e882912ee9ad34948a1dfaa20a97485e1a7752bbf81a264697066735822122013d739b7be0f05ad8180208f051306c7a29612d13bb23e48ec979e8a8882d4d764736f6c63430008180033",
  "linkReferences": {},
  "deployedLinkReferences": {}
}