{
  "_format": "hh-sol-artifact-1",
  "contractName": "FreelanceEscrow",
  "sourceName": "contracts/FreelanceEscrow.sol",
  "abi": [
    {
      "inputs": [],
      "stateMutability": "nonpayable",
      "type": "constructor"
    },
    {
      "inputs": [],
      "name": "AccessControlBadConfirmation",
      "type": "error"
    },
    {
      "inputs": [
        {
          "internalType": "address",
          "name": "account",
          "type": "address"
        },
        {
          "internalType": "bytes32",
          "name": "neededRole",
          "type": "bytes32"
        }
      ],
      "name": "AccessControlUnauthorizedAccount",
      "type": "error"
    },
    {
      "inputs": [
        {
          "internalType": "address",
          "name": "target",
          "type": "address"
        }
      ],
      "name": "AddressEmptyCode",
      "type": "error"
    },
    {
      "inputs": [],
      "name": "AlreadyPaid",
      "type": "error"
    },
    {
      "inputs": [
        {
          "internalType": "address",
          "name": "implementation",
          "type": "address"
        }
      ],
      "name": "ERC1967InvalidImplementation",
      "type": "error"
    },
    {
      "inputs": [],
      "name": "ERC1967NonPayable",
      "type": "error"
    },
    {
      "inputs": [
        {
          "internalType": "address",
          "name": "sender",
          "type": "address"
        },
        {
          "internalType": "uint256",
          "name": "tokenId",
          "type": "uint256"
        },
        {
          "internalType": "address",
          "name": "owner",
          "type": "address"
        }
      ],
      "name": "ERC721IncorrectOwner",
      "type": "error"
    },
    {
      "inputs": [
        {
          "internalType": "address",
          "name": "operator",
          "type": "address"
        },
        {
          "internalType": "uint256",
          "name": "tokenId",
          "type": "uint256"
        }
      ],
      "name": "ERC721InsufficientApproval",
      "type": "error"
    },
    {
      "inputs": [
        {
          "internalType": "address",
          "name": "approver",
          "type": "address"
        }
      ],
      "name": "ERC721InvalidApprover",
      "type": "error"
    },
    {
      "inputs": [
        {
          "internalType": "address",
          "name": "operator",
          "type": "address"
        }
      ],
      "name": "ERC721InvalidOperator",
      "type": "error"
    },
    {
      "inputs": [
        {
          "internalType": "address",
          "name": "owner",
          "type": "address"
        }
      ],
      "name": "ERC721InvalidOwner",
      "type": "error"
    },
    {
      "inputs": [
        {
          "internalType": "address",
          "name": "receiver",
          "type": "address"
        }
      ],
      "name": "ERC721InvalidReceiver",
      "type": "error"
    },
    {
      "inputs": [
        {
          "internalType": "address",
          "name": "sender",
          "type": "address"
        }
      ],
      "name": "ERC721InvalidSender",
      "type": "error"
    },
    {
      "inputs": [
        {
          "internalType": "uint256",
          "name": "tokenId",
          "type": "uint256"
        }
      ],
      "name": "ERC721NonexistentToken",
      "type": "error"
    },
    {
      "inputs": [],
      "name": "EmergencyActive",
      "type": "error"
    },
    {
      "inputs": [],
      "name": "EnforcedPause",
      "type": "error"
    },
    {
      "inputs": [],
      "name": "ExpectedPause",
      "type": "error"
    },
    {
      "inputs": [],
      "name": "FailedCall",
      "type": "error"
    },
    {
      "inputs": [],
      "name": "InvalidAddress",
      "type": "error"
    },
    {
      "inputs": [],
      "name": "InvalidInitialization",
      "type": "error"
    },
    {
      "inputs": [],
      "name": "InvalidMilestone",
      "type": "error"
    },
    {
      "inputs": [],
      "name": "InvalidStatus",
      "type": "error"
    },
    {
      "inputs": [],
      "name": "MilestoneAlreadyReleased",
      "type": "error"
    },
    {
      "inputs": [],
      "name": "NotAuthorized",
      "type": "error"
    },
    {
      "inputs": [],
      "name": "NotInitializing",
      "type": "error"
    },
    {
      "inputs": [],
      "name": "ReentrancyGuardReentrantCall",
      "type": "error"
    },
    {
      "inputs": [
        {
          "internalType": "address",
          "name": "token",
          "type": "address"
        }
      ],
      "name": "SafeERC20FailedOperation",
      "type": "error"
    },
    {
      "inputs": [],
      "name": "UUPSUnauthorizedCallContext",
      "type": "error"
    },
    {
      "inputs": [
        {
          "internalType": "bytes32",
          "name": "slot",
          "type": "bytes32"
        }
      ],
      "name": "UUPSUnsupportedProxiableUUID",
      "type": "error"
    },
    {
      "anonymous": false,
      "inputs": [
        {
          "indexed": true,
          "internalType": "address",
          "name": "owner",
          "type": "address"
        },
        {
          "indexed": true,
          "internalType": "address",
          "name": "approved",
          "type": "address"
        },
        {
          "indexed": true,
          "internalType": "uint256",
          "name": "tokenId",
          "type": "uint256"
        }
      ],
      "name": "Approval",
      "type": "event"
    },
    {
      "anonymous": false,
      "inputs": [
        {
          "indexed": true,
          "internalType": "address",
          "name": "owner",
          "type": "address"
        },
        {
          "indexed": true,
          "internalType": "address",
          "name": "operator",
          "type": "address"
        },
        {
          "indexed": false,
          "internalType": "bool",
          "name": "approved",
          "type": "bool"
        }
      ],
      "name": "ApprovalForAll",
      "type": "event"
    },
    {
      "anonymous": false,
      "inputs": [
        {
          "indexed": true,
          "internalType": "contract IArbitrator",
          "name": "_arbitrator",
          "type": "address"
        },
        {
          "indexed": true,
          "internalType": "uint256",
          "name": "_disputeID",
          "type": "uint256"
        },
        {
          "indexed": false,
          "internalType": "uint256",
          "name": "_metaEvidenceID",
          "type": "uint256"
        },
        {
          "indexed": false,
          "internalType": "uint256",
          "name": "_evidenceID",
          "type": "uint256"
        }
      ],
      "name": "Dispute",
      "type": "event"
    },
    {
      "anonymous": false,
      "inputs": [
        {
          "indexed": true,
          "internalType": "uint256",
          "name": "jobId",
          "type": "uint256"
        },
        {
          "indexed": false,
          "internalType": "uint256",
          "name": "disputeId",
          "type": "uint256"
        }
      ],
      "name": "DisputeRaised",
      "type": "event"
    },
    {
      "anonymous": false,
      "inputs": [
        {
          "indexed": true,
          "internalType": "contract IArbitrator",
          "name": "_arbitrator",
          "type": "address"
        },
        {
          "indexed": true,
          "internalType": "uint256",
          "name": "_evidenceID",
          "type": "uint256"
        },
        {
          "indexed": true,
          "internalType": "address",
          "name": "_party",
          "type": "address"
        },
        {
          "indexed": false,
          "internalType": "string",
          "name": "_evidence",
          "type": "string"
        }
      ],
      "name": "Evidence",
      "type": "event"
    },
    {
      "anonymous": false,
      "inputs": [
        {
          "indexed": true,
          "internalType": "uint256",
          "name": "jobId",
          "type": "uint256"
        },
        {
          "indexed": true,
          "internalType": "address",
          "name": "freelancer",
          "type": "address"
        }
      ],
      "name": "FreelancerPicked",
      "type": "event"
    },
    {
      "anonymous": false,
      "inputs": [
        {
          "indexed": true,
          "internalType": "uint256",
          "name": "jobId",
          "type": "uint256"
        },
        {
          "indexed": true,
          "internalType": "address",
          "name": "freelancer",
          "type": "address"
        },
        {
          "indexed": false,
          "internalType": "uint256",
          "name": "amount",
          "type": "uint256"
        },
        {
          "indexed": false,
          "internalType": "uint256",
          "name": "nftId",
          "type": "uint256"
        }
      ],
      "name": "FundsReleased",
      "type": "event"
    },
    {
      "anonymous": false,
      "inputs": [
        {
          "indexed": false,
          "internalType": "uint64",
          "name": "version",
          "type": "uint64"
        }
      ],
      "name": "Initialized",
      "type": "event"
    },
    {
      "anonymous": false,
      "inputs": [
        {
          "indexed": true,
          "internalType": "uint256",
          "name": "jobId",
          "type": "uint256"
        },
        {
          "indexed": true,
          "internalType": "address",
          "name": "freelancer",
          "type": "address"
        }
      ],
      "name": "JobAccepted",
      "type": "event"
    },
    {
      "anonymous": false,
      "inputs": [
        {
          "indexed": true,
          "internalType": "uint256",
          "name": "jobId",
          "type": "uint256"
        },
        {
          "indexed": true,
          "internalType": "address",
          "name": "freelancer",
          "type": "address"
        },
        {
          "indexed": false,
          "internalType": "uint256",
          "name": "stake",
          "type": "uint256"
        }
      ],
      "name": "JobApplied",
      "type": "event"
    },
    {
      "anonymous": false,
      "inputs": [
        {
          "indexed": true,
          "internalType": "uint256",
          "name": "jobId",
          "type": "uint256"
        },
        {
          "indexed": true,
          "internalType": "address",
          "name": "client",
          "type": "address"
        },
        {
          "indexed": true,
          "internalType": "address",
          "name": "freelancer",
          "type": "address"
        },
        {
          "indexed": false,
          "internalType": "uint256",
          "name": "amount",
          "type": "uint256"
        },
        {
          "indexed": false,
          "internalType": "uint256",
          "name": "deadline",
          "type": "uint256"
        }
      ],
      "name": "JobCreated",
      "type": "event"
    },
    {
      "anonymous": false,
      "inputs": [
        {
          "indexed": true,
          "internalType": "uint256",
          "name": "jobId",
          "type": "uint256"
        },
        {
          "indexed": true,
          "internalType": "address",
          "name": "freelancer",
          "type": "address"
        },
        {
          "indexed": true,
          "internalType": "uint256",
          "name": "milestoneId",
          "type": "uint256"
        },
        {
          "indexed": false,
          "internalType": "uint256",
          "name": "amount",
          "type": "uint256"
        }
      ],
      "name": "MilestoneReleased",
      "type": "event"
    },
    {
      "anonymous": false,
      "inputs": [
        {
          "indexed": false,
          "internalType": "address",
          "name": "account",
          "type": "address"
        }
      ],
      "name": "Paused",
      "type": "event"
    },
    {
      "anonymous": false,
      "inputs": [
        {
          "indexed": true,
          "internalType": "uint256",
          "name": "jobId",
          "type": "uint256"
        },
        {
          "indexed": true,
          "internalType": "address",
          "name": "client",
          "type": "address"
        },
        {
          "indexed": true,
          "internalType": "address",
          "name": "freelancer",
          "type": "address"
        },
        {
          "indexed": false,
          "internalType": "uint8",
          "name": "rating",
          "type": "uint8"
        },
        {
          "indexed": false,
          "internalType": "string",
          "name": "review",
          "type": "string"
        }
      ],
      "name": "ReviewSubmitted",
      "type": "event"
    },
    {
      "anonymous": false,
      "inputs": [
        {
          "indexed": true,
          "internalType": "bytes32",
          "name": "role",
          "type": "bytes32"
        },
        {
          "indexed": true,
          "internalType": "bytes32",
          "name": "previousAdminRole",
          "type": "bytes32"
        },
        {
          "indexed": true,
          "internalType": "bytes32",
          "name": "newAdminRole",
          "type": "bytes32"
        }
      ],
      "name": "RoleAdminChanged",
      "type": "event"
    },
    {
      "anonymous": false,
      "inputs": [
        {
          "indexed": true,
          "internalType": "bytes32",
          "name": "role",
          "type": "bytes32"
        },
        {
          "indexed": true,
          "internalType": "address",
          "name": "account",
          "type": "address"
        },
        {
          "indexed": true,
          "internalType": "address",
          "name": "sender",
          "type": "address"
        }
      ],
      "name": "RoleGranted",
      "type": "event"
    },
    {
      "anonymous": false,
      "inputs": [
        {
          "indexed": true,
          "internalType": "bytes32",
          "name": "role",
          "type": "bytes32"
        },
        {
          "indexed": true,
          "internalType": "address",
          "name": "account",
          "type": "address"
        },
        {
          "indexed": true,
          "internalType": "address",
          "name": "sender",
          "type": "address"
        }
      ],
      "name": "RoleRevoked",
      "type": "event"
    },
    {
      "anonymous": false,
      "inputs": [
        {
          "indexed": true,
          "internalType": "contract IArbitrator",
          "name": "_arbitrator",
          "type": "address"
        },
        {
          "indexed": true,
          "internalType": "uint256",
          "name": "_disputeID",
          "type": "uint256"
        },
        {
          "indexed": false,
          "internalType": "uint256",
          "name": "_ruling",
          "type": "uint256"
        }
      ],
      "name": "Ruling",
      "type": "event"
    },
    {
      "anonymous": false,
      "inputs": [
        {
          "indexed": true,
          "internalType": "address",
          "name": "from",
          "type": "address"
        },
        {
          "indexed": true,
          "internalType": "address",
          "name": "to",
          "type": "address"
        },
        {
          "indexed": true,
          "internalType": "uint256",
          "name": "tokenId",
          "type": "uint256"
        }
      ],
      "name": "Transfer",
      "type": "event"
    },
    {
      "anonymous": false,
      "inputs": [
        {
          "indexed": false,
          "internalType": "address",
          "name": "account",
          "type": "address"
        }
      ],
      "name": "Unpaused",
      "type": "event"
    },
    {
      "anonymous": false,
      "inputs": [
        {
          "indexed": true,
          "internalType": "address",
          "name": "implementation",
          "type": "address"
        }
      ],
      "name": "Upgraded",
      "type": "event"
    },
    {
      "inputs": [],
      "name": "APPLICATION_STAKE_PERCENT",
      "outputs": [
        {
          "internalType": "uint256",
          "name": "",
          "type": "uint256"
        }
      ],
      "stateMutability": "view",
      "type": "function"
    },
    {
      "inputs": [],
      "name": "ARBITRATOR_ROLE",
      "outputs": [
        {
          "internalType": "bytes32",
          "name": "",
          "type": "bytes32"
        }
      ],
      "stateMutability": "view",
      "type": "function"
    },
    {
      "inputs": [],
      "name": "DEFAULT_ADMIN_ROLE",
      "outputs": [
        {
          "internalType": "bytes32",
          "name": "",
          "type": "bytes32"
        }
      ],
      "stateMutability": "view",
      "type": "function"
    },
    {
      "inputs": [],
      "name": "MANAGER_ROLE",
      "outputs": [
        {
          "internalType": "bytes32",
          "name": "",
          "type": "bytes32"
        }
      ],
      "stateMutability": "view",
      "type": "function"
    },
    {
      "inputs": [],
      "name": "MAX_APPLICATIONS_PER_JOB",
      "outputs": [
        {
          "internalType": "uint256",
          "name": "",
          "type": "uint256"
        }
      ],
      "stateMutability": "view",
      "type": "function"
    },
    {
      "inputs": [],
      "name": "UPGRADE_INTERFACE_VERSION",
      "outputs": [
        {
          "internalType": "string",
          "name": "",
          "type": "string"
        }
      ],
      "stateMutability": "view",
      "type": "function"
    },
    {
      "inputs": [
        {
          "internalType": "uint256",
          "name": "jobId",
          "type": "uint256"
        }
      ],
      "name": "acceptJob",
      "outputs": [],
      "stateMutability": "payable",
      "type": "function"
    },
    {
      "inputs": [
        {
          "internalType": "uint256",
          "name": "jobId",
          "type": "uint256"
        }
      ],
      "name": "applyForJob",
      "outputs": [],
      "stateMutability": "payable",
      "type": "function"
    },
    {
      "inputs": [
        {
          "internalType": "address",
          "name": "to",
          "type": "address"
        },
        {
          "internalType": "uint256",
          "name": "tokenId",
          "type": "uint256"
        }
      ],
      "name": "approve",
      "outputs": [],
      "stateMutability": "nonpayable",
      "type": "function"
    },
    {
      "inputs": [],
      "name": "arbitrator",
      "outputs": [
        {
          "internalType": "address",
          "name": "",
          "type": "address"
        }
      ],
      "stateMutability": "view",
      "type": "function"
    },
    {
      "inputs": [
        {
          "internalType": "address",
          "name": "owner",
          "type": "address"
        }
      ],
      "name": "balanceOf",
      "outputs": [
        {
          "internalType": "uint256",
          "name": "",
          "type": "uint256"
        }
      ],
      "stateMutability": "view",
      "type": "function"
    },
    {
      "inputs": [
        {
          "internalType": "address",
          "name": "token",
          "type": "address"
        }
      ],
      "name": "claimRefund",
      "outputs": [],
      "stateMutability": "nonpayable",
      "type": "function"
    },
    {
      "inputs": [
        {
          "internalType": "uint256",
          "name": "jobId",
          "type": "uint256"
        },
        {
          "internalType": "uint8",
          "name": "rating",
          "type": "uint8"
        }
      ],
      "name": "completeJob",
      "outputs": [],
      "stateMutability": "nonpayable",
      "type": "function"
    },
    {
      "inputs": [],
      "name": "completionCertContract",
      "outputs": [
        {
          "internalType": "address",
          "name": "",
          "type": "address"
        }
      ],
      "stateMutability": "view",
      "type": "function"
    },
    {
      "inputs": [
        {
          "components": [
            {
              "internalType": "uint256",
              "name": "categoryId",
              "type": "uint256"
            },
            {
              "internalType": "address",
              "name": "freelancer",
              "type": "address"
            },
            {
              "internalType": "address",
              "name": "token",
              "type": "address"
            },
            {
              "internalType": "uint256",
              "name": "amount",
              "type": "uint256"
            },
            {
              "internalType": "string",
              "name": "ipfsHash",
              "type": "string"
            },
            {
              "internalType": "uint256",
              "name": "deadline",
              "type": "uint256"
            },
            {
              "internalType": "uint256[]",
              "name": "mAmounts",
              "type": "uint256[]"
            },
            {
              "internalType": "string[]",
              "name": "mHashes",
              "type": "string[]"
            }
          ],
          "internalType": "struct FreelanceEscrow.CreateParams",
          "name": "p",
          "type": "tuple"
        }
      ],
      "name": "createJob",
      "outputs": [
        {
          "internalType": "uint256",
          "name": "",
          "type": "uint256"
        }
      ],
      "stateMutability": "payable",
      "type": "function"
    },
    {
      "inputs": [
        {
          "internalType": "uint256",
          "name": "jobId",
          "type": "uint256"
        }
      ],
      "name": "dispute",
      "outputs": [],
      "stateMutability": "payable",
      "type": "function"
    },
    {
      "inputs": [
        {
          "internalType": "uint256",
          "name": "",
          "type": "uint256"
        }
      ],
      "name": "disputeIdToJobId",
      "outputs": [
        {
          "internalType": "uint256",
          "name": "",
          "type": "uint256"
        }
      ],
      "stateMutability": "view",
      "type": "function"
    },
    {
      "inputs": [],
      "name": "emergencyMode",
      "outputs": [
        {
          "internalType": "bool",
          "name": "",
          "type": "bool"
        }
      ],
      "stateMutability": "view",
      "type": "function"
    },
    {
      "inputs": [],
      "name": "entryPoint",
      "outputs": [
        {
          "internalType": "address",
          "name": "",
          "type": "address"
        }
      ],
      "stateMutability": "view",
      "type": "function"
    },
    {
      "inputs": [
        {
          "internalType": "uint256",
          "name": "tokenId",
          "type": "uint256"
        }
      ],
      "name": "getApproved",
      "outputs": [
        {
          "internalType": "address",
          "name": "",
          "type": "address"
        }
      ],
      "stateMutability": "view",
      "type": "function"
    },
    {
      "inputs": [
        {
          "internalType": "uint256",
          "name": "jobId",
          "type": "uint256"
        }
      ],
      "name": "getJobApplications",
      "outputs": [
        {
          "components": [
            {
              "internalType": "address",
              "name": "freelancer",
              "type": "address"
            },
            {
              "internalType": "uint256",
              "name": "stake",
              "type": "uint256"
            }
          ],
          "internalType": "struct FreelanceEscrowBase.Application[]",
          "name": "",
          "type": "tuple[]"
        }
      ],
      "stateMutability": "view",
      "type": "function"
    },
    {
      "inputs": [
        {
          "internalType": "bytes32",
          "name": "role",
          "type": "bytes32"
        }
      ],
      "name": "getRoleAdmin",
      "outputs": [
        {
          "internalType": "bytes32",
          "name": "",
          "type": "bytes32"
        }
      ],
      "stateMutability": "view",
      "type": "function"
    },
    {
      "inputs": [
        {
          "internalType": "bytes32",
          "name": "role",
          "type": "bytes32"
        },
        {
          "internalType": "address",
          "name": "account",
          "type": "address"
        }
      ],
      "name": "grantRole",
      "outputs": [],
      "stateMutability": "nonpayable",
      "type": "function"
    },
    {
      "inputs": [
        {
          "internalType": "uint256",
          "name": "",
          "type": "uint256"
        },
        {
          "internalType": "address",
          "name": "",
          "type": "address"
        }
      ],
      "name": "hasApplied",
      "outputs": [
        {
          "internalType": "bool",
          "name": "",
          "type": "bool"
        }
      ],
      "stateMutability": "view",
      "type": "function"
    },
    {
      "inputs": [
        {
          "internalType": "bytes32",
          "name": "role",
          "type": "bytes32"
        },
        {
          "internalType": "address",
          "name": "account",
          "type": "address"
        }
      ],
      "name": "hasRole",
      "outputs": [
        {
          "internalType": "bool",
          "name": "",
          "type": "bool"
        }
      ],
      "stateMutability": "view",
      "type": "function"
    },
    {
      "inputs": [
        {
          "internalType": "address",
          "name": "admin",
          "type": "address"
        },
        {
          "internalType": "address",
          "name": "forwarder",
          "type": "address"
        },
        {
          "internalType": "address",
          "name": "_sbt",
          "type": "address"
        },
        {
          "internalType": "address",
          "name": "_entry",
          "type": "address"
        }
      ],
      "name": "initialize",
      "outputs": [],
      "stateMutability": "nonpayable",
      "type": "function"
    },
    {
      "inputs": [
        {
          "internalType": "address",
          "name": "owner",
          "type": "address"
        },
        {
          "internalType": "address",
          "name": "operator",
          "type": "address"
        }
      ],
      "name": "isApprovedForAll",
      "outputs": [
        {
          "internalType": "bool",
          "name": "",
          "type": "bool"
        }
      ],
      "stateMutability": "view",
      "type": "function"
    },
    {
      "inputs": [
        {
          "internalType": "address",
          "name": "",
          "type": "address"
        }
      ],
      "name": "isSupreme",
      "outputs": [
        {
          "internalType": "bool",
          "name": "",
          "type": "bool"
        }
      ],
      "stateMutability": "view",
      "type": "function"
    },
    {
      "inputs": [
        {
          "internalType": "uint256",
          "name": "",
          "type": "uint256"
        },
        {
          "internalType": "uint256",
          "name": "",
          "type": "uint256"
        }
      ],
      "name": "jobApplications",
      "outputs": [
        {
          "internalType": "address",
          "name": "freelancer",
          "type": "address"
        },
        {
          "internalType": "uint256",
          "name": "stake",
          "type": "uint256"
        }
      ],
      "stateMutability": "view",
      "type": "function"
    },
    {
      "inputs": [],
      "name": "jobCount",
      "outputs": [
        {
          "internalType": "uint256",
          "name": "",
          "type": "uint256"
        }
      ],
      "stateMutability": "view",
      "type": "function"
    },
    {
      "inputs": [
        {
          "internalType": "uint256",
          "name": "",
          "type": "uint256"
        },
        {
          "internalType": "uint256",
          "name": "",
          "type": "uint256"
        }
      ],
      "name": "jobMilestones",
      "outputs": [
        {
          "internalType": "uint256",
          "name": "amount",
          "type": "uint256"
        },
        {
          "internalType": "string",
          "name": "ipfsHash",
          "type": "string"
        },
        {
          "internalType": "bool",
          "name": "isReleased",
          "type": "bool"
        }
      ],
      "stateMutability": "view",
      "type": "function"
    },
    {
      "inputs": [
        {
          "internalType": "uint256",
          "name": "",
          "type": "uint256"
        }
      ],
      "name": "jobs",
      "outputs": [
        {
          "internalType": "address",
          "name": "client",
          "type": "address"
        },
        {
          "internalType": "uint32",
          "name": "id",
          "type": "uint32"
        },
        {
          "internalType": "uint48",
          "name": "deadline",
          "type": "uint48"
        },
        {
          "internalType": "enum FreelanceEscrowBase.JobStatus",
          "name": "status",
          "type": "uint8"
        },
        {
          "internalType": "uint8",
          "name": "rating",
          "type": "uint8"
        },
        {
          "internalType": "address",
          "name": "freelancer",
          "type": "address"
        },
        {
          "internalType": "uint16",
          "name": "categoryId",
          "type": "uint16"
        },
        {
          "internalType": "uint16",
          "name": "milestoneCount",
          "type": "uint16"
        },
        {
          "internalType": "bool",
          "name": "paid",
          "type": "bool"
        },
        {
          "internalType": "address",
          "name": "token",
          "type": "address"
        },
        {
          "internalType": "uint256",
          "name": "amount",
          "type": "uint256"
        },
        {
          "internalType": "uint256",
          "name": "freelancerStake",
          "type": "uint256"
        },
        {
          "internalType": "uint256",
          "name": "totalPaidOut",
          "type": "uint256"
        },
        {
          "internalType": "string",
          "name": "ipfsHash",
          "type": "string"
        }
      ],
      "stateMutability": "view",
      "type": "function"
    },
    {
      "inputs": [
        {
          "internalType": "uint256",
          "name": "",
          "type": "uint256"
        }
      ],
      "name": "milestoneBitmask",
      "outputs": [
        {
          "internalType": "uint256",
          "name": "",
          "type": "uint256"
        }
      ],
      "stateMutability": "view",
      "type": "function"
    },
    {
      "inputs": [],
      "name": "name",
      "outputs": [
        {
          "internalType": "string",
          "name": "",
          "type": "string"
        }
      ],
      "stateMutability": "view",
      "type": "function"
    },
    {
      "inputs": [
        {
          "internalType": "uint256",
          "name": "tokenId",
          "type": "uint256"
        }
      ],
      "name": "ownerOf",
      "outputs": [
        {
          "internalType": "address",
          "name": "",
          "type": "address"
        }
      ],
      "stateMutability": "view",
      "type": "function"
    },
    {
      "inputs": [],
      "name": "pause",
      "outputs": [],
      "stateMutability": "nonpayable",
      "type": "function"
    },
    {
      "inputs": [],
      "name": "paused",
      "outputs": [
        {
          "internalType": "bool",
          "name": "",
          "type": "bool"
        }
      ],
      "stateMutability": "view",
      "type": "function"
    },
    {
      "inputs": [
        {
          "internalType": "address",
          "name": "",
          "type": "address"
        },
        {
          "internalType": "address",
          "name": "",
          "type": "address"
        }
      ],
      "name": "pendingRefunds",
      "outputs": [
        {
          "internalType": "uint256",
          "name": "",
          "type": "uint256"
        }
      ],
      "stateMutability": "view",
      "type": "function"
    },
    {
      "inputs": [
        {
          "internalType": "uint256",
          "name": "jobId",
          "type": "uint256"
        },
        {
          "internalType": "address",
          "name": "freelancer",
          "type": "address"
        }
      ],
      "name": "pickFreelancer",
      "outputs": [],
      "stateMutability": "nonpayable",
      "type": "function"
    },
    {
      "inputs": [],
      "name": "platformFeeBps",
      "outputs": [
        {
          "internalType": "uint256",
          "name": "",
          "type": "uint256"
        }
      ],
      "stateMutability": "view",
      "type": "function"
    },
    {
      "inputs": [],
      "name": "polyToken",
      "outputs": [
        {
          "internalType": "address",
          "name": "",
          "type": "address"
        }
      ],
      "stateMutability": "view",
      "type": "function"
    },
    {
      "inputs": [],
      "name": "privacyShield",
      "outputs": [
        {
          "internalType": "address",
          "name": "",
          "type": "address"
        }
      ],
      "stateMutability": "view",
      "type": "function"
    },
    {
      "inputs": [],
      "name": "proxiableUUID",
      "outputs": [
        {
          "internalType": "bytes32",
          "name": "",
          "type": "bytes32"
        }
      ],
      "stateMutability": "view",
      "type": "function"
    },
    {
      "inputs": [
        {
          "internalType": "uint256",
          "name": "jobId",
          "type": "uint256"
        }
      ],
      "name": "raiseDispute",
      "outputs": [],
      "stateMutability": "payable",
      "type": "function"
    },
    {
      "inputs": [
        {
          "internalType": "uint256",
          "name": "jobId",
          "type": "uint256"
        }
      ],
      "name": "refundExpiredJob",
      "outputs": [],
      "stateMutability": "nonpayable",
      "type": "function"
    },
    {
      "inputs": [
        {
          "internalType": "uint256",
          "name": "jobId",
          "type": "uint256"
        }
      ],
      "name": "releaseFunds",
      "outputs": [],
      "stateMutability": "nonpayable",
      "type": "function"
    },
    {
      "inputs": [
        {
          "internalType": "uint256",
          "name": "jobId",
          "type": "uint256"
        },
        {
          "internalType": "uint256",
          "name": "mId",
          "type": "uint256"
        }
      ],
      "name": "releaseMilestone",
      "outputs": [],
      "stateMutability": "nonpayable",
      "type": "function"
    },
    {
      "inputs": [
        {
          "internalType": "bytes32",
          "name": "role",
          "type": "bytes32"
        },
        {
          "internalType": "address",
          "name": "callerConfirmation",
          "type": "address"
        }
      ],
      "name": "renounceRole",
      "outputs": [],
      "stateMutability": "nonpayable",
      "type": "function"
    },
    {
      "inputs": [],
      "name": "reputationContract",
      "outputs": [
        {
          "internalType": "address",
          "name": "",
          "type": "address"
        }
      ],
      "stateMutability": "view",
      "type": "function"
    },
    {
      "inputs": [],
      "name": "reputationThreshold",
      "outputs": [
        {
          "internalType": "uint256",
          "name": "",
          "type": "uint256"
        }
      ],
      "stateMutability": "view",
      "type": "function"
    },
    {
      "inputs": [
        {
          "internalType": "uint256",
          "name": "jobId",
          "type": "uint256"
        },
        {
          "internalType": "uint256",
          "name": "freelancerBps",
          "type": "uint256"
        }
      ],
      "name": "resolveDisputeManual",
      "outputs": [],
      "stateMutability": "nonpayable",
      "type": "function"
    },
    {
      "inputs": [
        {
          "internalType": "bytes32",
          "name": "role",
          "type": "bytes32"
        },
        {
          "internalType": "address",
          "name": "account",
          "type": "address"
        }
      ],
      "name": "revokeRole",
      "outputs": [],
      "stateMutability": "nonpayable",
      "type": "function"
    },
    {
      "inputs": [
        {
          "internalType": "uint256",
          "name": "dId",
          "type": "uint256"
        },
        {
          "internalType": "uint256",
          "name": "ruling",
          "type": "uint256"
        }
      ],
      "name": "rule",
      "outputs": [],
      "stateMutability": "nonpayable",
      "type": "function"
    },
    {
      "inputs": [
        {
          "internalType": "address",
          "name": "from",
          "type": "address"
        },
        {
          "internalType": "address",
          "name": "to",
          "type": "address"
        },
        {
          "internalType": "uint256",
          "name": "tokenId",
          "type": "uint256"
        }
      ],
      "name": "safeTransferFrom",
      "outputs": [],
      "stateMutability": "nonpayable",
      "type": "function"
    },
    {
      "inputs": [
        {
          "internalType": "address",
          "name": "from",
          "type": "address"
        },
        {
          "internalType": "address",
          "name": "to",
          "type": "address"
        },
        {
          "internalType": "uint256",
          "name": "tokenId",
          "type": "uint256"
        },
        {
          "internalType": "bytes",
          "name": "data",
          "type": "bytes"
        }
      ],
      "name": "safeTransferFrom",
      "outputs": [],
      "stateMutability": "nonpayable",
      "type": "function"
    },
    {
      "inputs": [],
      "name": "sbtContract",
      "outputs": [
        {
          "internalType": "address",
          "name": "",
          "type": "address"
        }
      ],
      "stateMutability": "view",
      "type": "function"
    },
    {
      "inputs": [
        {
          "internalType": "address",
          "name": "operator",
          "type": "address"
        },
        {
          "internalType": "bool",
          "name": "approved",
          "type": "bool"
        }
      ],
      "name": "setApprovalForAll",
      "outputs": [],
      "stateMutability": "nonpayable",
      "type": "function"
    },
    {
      "inputs": [
        {
          "internalType": "address",
          "name": "_arb",
          "type": "address"
        }
      ],
      "name": "setArbitrator",
      "outputs": [],
      "stateMutability": "nonpayable",
      "type": "function"
    },
    {
      "inputs": [
        {
          "internalType": "address",
          "name": "_cert",
          "type": "address"
        }
      ],
      "name": "setCompletionCertContract",
      "outputs": [],
      "stateMutability": "nonpayable",
      "type": "function"
    },
    {
      "inputs": [
        {
          "internalType": "address",
          "name": "_entry",
          "type": "address"
        }
      ],
      "name": "setEntryPoint",
      "outputs": [],
      "stateMutability": "nonpayable",
      "type": "function"
    },
    {
      "inputs": [
        {
          "internalType": "uint256",
          "name": "_bps",
          "type": "uint256"
        }
      ],
      "name": "setPlatformFee",
      "outputs": [],
      "stateMutability": "nonpayable",
      "type": "function"
    },
    {
      "inputs": [
        {
          "internalType": "address",
          "name": "_token",
          "type": "address"
        }
      ],
      "name": "setPolyToken",
      "outputs": [],
      "stateMutability": "nonpayable",
      "type": "function"
    },
    {
      "inputs": [
        {
          "internalType": "address",
          "name": "_ps",
          "type": "address"
        }
      ],
      "name": "setPrivacyShield",
      "outputs": [],
      "stateMutability": "nonpayable",
      "type": "function"
    },
    {
      "inputs": [
        {
          "internalType": "address",
          "name": "_rep",
          "type": "address"
        }
      ],
      "name": "setReputationContract",
      "outputs": [],
      "stateMutability": "nonpayable",
      "type": "function"
    },
    {
      "inputs": [
        {
          "internalType": "uint256",
          "name": "_t",
          "type": "uint256"
        }
      ],
      "name": "setReputationThreshold",
      "outputs": [],
      "stateMutability": "nonpayable",
      "type": "function"
    },
    {
      "inputs": [
        {
          "internalType": "address",
          "name": "_sbt",
          "type": "address"
        }
      ],
      "name": "setSBTContract",
      "outputs": [],
      "stateMutability": "nonpayable",
      "type": "function"
    },
    {
      "inputs": [
        {
          "internalType": "address",
          "name": "_token",
          "type": "address"
        },
        {
          "internalType": "bool",
          "name": "_status",
          "type": "bool"
        }
      ],
      "name": "setTokenWhitelist",
      "outputs": [],
      "stateMutability": "nonpayable",
      "type": "function"
    },
    {
      "inputs": [
        {
          "internalType": "address",
          "name": "_vault",
          "type": "address"
        }
      ],
      "name": "setVault",
      "outputs": [],
      "stateMutability": "nonpayable",
      "type": "function"
    },
    {
      "inputs": [
        {
          "internalType": "uint256",
          "name": "jobId",
          "type": "uint256"
        },
        {
          "internalType": "string",
          "name": "evidenceHash",
          "type": "string"
        }
      ],
      "name": "submitEvidence",
      "outputs": [],
      "stateMutability": "nonpayable",
      "type": "function"
    },
    {
      "inputs": [
        {
          "internalType": "uint256",
          "name": "jobId",
          "type": "uint256"
        },
        {
          "internalType": "string",
          "name": "ipfsHash",
          "type": "string"
        }
      ],
      "name": "submitWork",
      "outputs": [],
      "stateMutability": "nonpayable",
      "type": "function"
    },
    {
      "inputs": [
        {
          "internalType": "bytes4",
          "name": "id",
          "type": "bytes4"
        }
      ],
      "name": "supportsInterface",
      "outputs": [
        {
          "internalType": "bool",
          "name": "",
          "type": "bool"
        }
      ],
      "stateMutability": "view",
      "type": "function"
    },
    {
      "inputs": [],
      "name": "symbol",
      "outputs": [
        {
          "internalType": "string",
          "name": "",
          "type": "string"
        }
      ],
      "stateMutability": "view",
      "type": "function"
    },
    {
      "inputs": [
        {
          "internalType": "bool",
          "name": "_active",
          "type": "bool"
        }
      ],
      "name": "toggleEmergencyMode",
      "outputs": [],
      "stateMutability": "nonpayable",
      "type": "function"
    },
    {
      "inputs": [
        {
          "internalType": "uint256",
          "name": "jobId",
          "type": "uint256"
        }
      ],
      "name": "tokenURI",
      "outputs": [
        {
          "internalType": "string",
          "name": "",
          "type": "string"
        }
      ],
      "stateMutability": "view",
      "type": "function"
    },
    {
      "inputs": [
        {
          "internalType": "address",
          "name": "",
          "type": "address"
        }
      ],
      "name": "tokenWhitelist",
      "outputs": [
        {
          "internalType": "bool",
          "name": "",
          "type": "bool"
        }
      ],
      "stateMutability": "view",
      "type": "function"
    },
    {
      "inputs": [
        {
          "internalType": "address",
          "name": "from",
          "type": "address"
        },
        {
          "internalType": "address",
          "name": "to",
          "type": "address"
        },
        {
          "internalType": "uint256",
          "name": "tokenId",
          "type": "uint256"
        }
      ],
      "name": "transferFrom",
      "outputs": [],
      "stateMutability": "nonpayable",
      "type": "function"
    },
    {
      "inputs": [],
      "name": "unpause",
      "outputs": [],
      "stateMutability": "nonpayable",
      "type": "function"
    },
    {
      "inputs": [
        {
          "internalType": "address",
          "name": "newImplementation",
          "type": "address"
        },
        {
          "internalType": "bytes",
          "name": "data",
          "type": "bytes"
        }
      ],
      "name": "upgradeToAndCall",
      "outputs": [],
      "stateMutability": "payable",
      "type": "function"
    },
    {
      "inputs": [],
      "name": "vault",
      "outputs": [
        {
          "internalType": "address",
          "name": "",
          "type": "address"
        }
      ],
      "stateMutability": "view",
      "type": "function"
    }
  ],
  "bytecode": "0x60a08060405234620000d157306080527ff0c57e16840df040f15088dc2f81fe391c3923bec73e23a9662efc9c229c6a009081549060ff8260401c16620000c257506001600160401b036002600160401b0319828216016200007c575b6040516160ec9081620000d682396080518181816131cc01526132740152f35b6001600160401b031990911681179091556040519081527fc7f505b2f371ae2175ee4913f4499e1f2633a7b5936321eed1cdaeb6115181d290602090a15f80806200005c565b63f92ee8a960e01b8152600490fd5b5f80fdfe6080806040526004361015610012575f80fd5b5f3560e01c90816301ffc9a714614a5d57508063025b67bf1461432f578063061583601461430757806306fdde0314614264578063081812fc1461421c5780630905f560146141f7578063095ea7b31461410d57806312e8e2c3146140e357806315152c06146140b9578063180aedf314613fb05780631ebcfb4b14613e5757806322dcd13e14613e3a57806323b872dd14613e23578063248a9ca314613dea5780632f2ff15d14613da157806330095f8914613d5a578063311a6c5614613b6e578063315ecb6414613b4d57806336568abe14613afc5780633f4ba83a14613ae45780633fd0929314613aa757806342842e0e14613a8057806348f4393b14613a655780634c5d8a0f14613a485780634d68282f146134295780634f1ef2861461323657806352d1902d146131ba578063584465f2146131735780635c975abb146131455780636352211e1461311557806363b2f3c9146130445780636817031b14612ffd5780636857422214612efc5780636b0a30e214612eb95780636cc6cde114612e915780636faa22a514612e6957806370a0823114612e1557806373a2b57f14612da4578063747143b914612cd3578063753d756314612c9657806376686eab14612bea57806379d5773214612ba75780637c084cb314612b8c5780638456cb5914612b1557806386d6282c1461257557806387bc142514612aed5780638c2398e614612aa057806391d1485414612a4b5780639584660f14612a0857806395d89b411461292e5780639cea0787146128f4578063a17e8af0146128cc578063a217fddf146128b2578063a22cb46514612804578063a39bf544146127bb578063a5c1674e14612575578063a6a7f0eb14612465578063a9f335a51461243b578063ad3cb1cc146123f6578063b099a7df146122c0578063b0d691fe14612298578063b0eefabe14612251578063b88d4fde14612203578063bffa55d514612169578063c87b56dd14611785578063c9bcc97e146116b7578063cc6dbc631461168f578063cf9373651461164c578063d410e8ba1461162f578063d547741f146115e4578063da8accf914611460578063dbaf091014611341578063dca137b414610c9e578063e0c94ae514610a5c578063e985e9c514610a10578063ead39a11146109ba578063ec87621c14610980578063f8c8765e146103ad5763fbfa77cf14610381575f80fd5b346103a9575f3660031901126103a957600c546040516001600160a01b039091168152602090f35b5f80fd5b346103a95760803660031901126103a9576103c6614b6f565b6103ce614b85565b6044356001600160a01b03811681036103a957606435916001600160a01b03831683036103a9577ff0c57e16840df040f15088dc2f81fe391c3923bec73e23a9662efc9c229c6a00928354926001600160401b03841680159081610970575b6001149081610966575b15908161095d575b5061094b5760016001600160401b0319851617855560ff8460401c161561092c575b6001600160a01b03861615801561091b575b801561090a575b80156108f9575b6108e7576040519561049287614ae2565b601887527f506f6c794c616e6365205a656e6974682050726f6a65637400000000000000006020880152604051966104c988614ae2565b60068852650b48a9c92a8960d31b60208901526104e4615bac565b6104ec615bac565b8051906001600160401b0382116107c15781906105165f80516020615fb783398151915254614c6d565b601f811161086c575b50602090601f83116001146107e0575f926107d5575b50508160011b915f199060031b1c1916175f80516020615fb7833981519152555b86516001600160401b0381116107c15761057d5f8051602061607783398151915254614c6d565b601f811161074d575b506020601f82116001146106c157819060ff98995f926106b6575b50508160011b915f199060031b1c1916175f80516020616077833981519152555b6105ca615bac565b6105d2615bac565b6105da615bac565b60015f80516020616037833981519152556105f3615bac565b6105fb615bac565b61060481615400565b5061060e816154ab565b5061061881615576565b506001600160601b0360a01b9360018060a01b031684600a541617600a5560018060a01b031683600854161760085560018060a01b031682600954161760095560018060a01b031690600b541617600b5560fa600d5560401c161561067957005b68ff00000000000000001981541690557fc7f505b2f371ae2175ee4913f4499e1f2633a7b5936321eed1cdaeb6115181d2602060405160018152a1005b0151905089806105a1565b5f805160206160778339815191525f525f80516020615fd7833981519152985f5b601f1984168110610735575098829160ff999a600194601f1981161061071d575b505050811b015f80516020616077833981519152556105c2565b01515f1960f88460031b161c19169055898080610703565b828201518b556001909a0199602092830192016106e2565b5f805160206160778339815191525f52601f820160051c5f80516020615fd78339815191520190602083106107ac575b601f0160051c5f80516020615fd783398151915201905b8181106107a15750610586565b5f8155600101610794565b5f80516020615fd7833981519152915061077d565b634e487b7160e01b5f52604160045260245ffd5b015190508980610535565b92505f80516020615fb78339815191525f525f80516020616097833981519152905f935b601f1984168510610851576001945083601f19811610610839575b505050811b015f80516020615fb783398151915255610556565b01515f1960f88460031b161c1916905589808061081f565b81810151835560209485019460019093019290910190610804565b9091505f80516020615fb78339815191525f52601f830160051c5f8051602061609783398151915201602084106108d3575b908392915b601f820160051c5f805160206160978339815191520181106108c5575061051f565b5f81558493506001016108a3565b505f8051602061609783398151915261089e565b60405163e6c4247b60e01b8152600490fd5b506001600160a01b03821615610481565b506001600160a01b0381161561047a565b506001600160a01b03831615610473565b68ffffffffffffffffff19841668010000000000000001178555610461565b60405163f92ee8a960e01b8152600490fd5b9050158761043f565b303b159150610437565b604086901c60ff1615915061042d565b346103a9575f3660031901126103a95760206040517f241ecf16d79d0f8dbfb92cbc07fe17840425976cf0667f022fe9877caa831b088152f35b346103a9576109c836614d6b565b905f52600260205260405f209081548110156103a9576109e791614e00565b508054600190910154604080516001600160a01b039093168352602083019190915290f35b0390f35b346103a95760403660031901126103a957610a29614b6f565b610a3a610a34614b85565b91614db9565b9060018060a01b03165f52602052602060ff60405f2054166040519015158152f35b6020806003193601126103a957600435610a74615204565b610a7c61522e565b5f81815280835260409020805490926001600160a01b0391828116156108e75760f01c60ff166007811015610c8a57610c7857825f526003815260405f2082610ac361525d565b165f52815260ff60405f205416610c7857825f5260028152603260405f20541015610c66576003840154600581029080820460051490151715610c52576002606484920495015416848115155f14610c1957610b2891610b2161525d565b3091615297565b825f526002815260405f2091610b3c61525d565b8160405191610b4a83614ae2565b168152828101938685528054680100000000000000008110156107c157610b7691600182018155614e00565b919091610c06577f81bbe3bd8cd7aca942797e968d27abaa8f12cfb189d8d0e56b49453fb8590c73948360019251166001600160601b0360a01b84541617835551910155835f526003825260405f2081610bce61525d565b165f52825260405f20600160ff19825416179055610bea61525d565b1693604051908152a360015f8051602061603783398151915255005b634e487b7160e01b5f525f60045260245ffd5b9050341015610b28576064906040519062461bcd60e51b8252600482015260096024820152684c6f77207374616b6560b81b6044820152fd5b634e487b7160e01b5f52601160045260245ffd5b60405163ea8e4eb560e01b8152600490fd5b6040516307a92f1960e51b8152600490fd5b634e487b7160e01b5f52602160045260245ffd5b346103a95760403660031901126103a95760ff60243516602435036103a957610cc5615204565b610ccd61522e565b6004355f525f60205260405f20610ce261525d565b815491906001600160a01b03808416911603610c665760ff8260f01c166007811015610c8a57600203610c785760018101549160ff8360c01c1661132f57600382015492600583015490612710610d46610d3c848861506f565b96600d549061507c565b0490858211611327575b600f5486905f906001600160a01b031680611294575b50801580611280575b611209575b611201575b808394610d8c610ddf95610dc89461506f565b60ff60c01b198516600160c01b1760018a01556001600160f01b0390971660243560f81b6001600160f81b03191617600560f01b178855614e65565b6005860155600435906001600160a01b0316615708565b6010546001600160a01b031680611165575b50600f546001600160a01b031680611108575b50600e546001600160a01b0316610f32575b600183015460028401805460048601549194610e4a936001600160a01b0390811693921691610e4491614e65565b91615670565b80151580610f1e575b610efc575b505060018060a01b03600182015416809260405190815260043560208201527f93e901cc5aea20ea9655887d9290a3215a5b3999c024812f4e4b749f7534349c604060043592a360018060a01b0390541660405160ff602435168152604060208201525f60408201527f0d1d6b5fdcc269f15c3c023f437df57afaf129b821fdca9726533515f0717f28606060043592a460015f8051602061603783398151915255005b600c549154610f17926001600160a01b039182169116615670565b8280610e58565b50600c546001600160a01b03161515610e53565b600f5468056bc75e2d63100000905f906001600160a01b03168061107a575b50801580611066575b610fdb575b610fcb575b600e5460018501546040516340c10f1960e01b602082019081526001600160a01b03928316602483015260448201949094525f93849390921691908390610fb881606481015b03601f198101835282614b4e565b51925af150610fc56151d5565b50610e16565b50681043561a8829300000610f64565b601154600186015460405163b9209e3360e01b81526001600160a01b0391821660048201529160209183916024918391165afa5f9181611035575b50611022575b50610f5f565b61102d575b8661101c565b506001611027565b61105891925060203d60201161105f575b6110508183614b4e565b8101906151bd565b9088611016565b503d611046565b506011546001600160a01b03161515610f5a565b5f809160018801548260405161ffff6020820193627eeac760e11b855260018060a01b038116602484015260a01c166044820152604481526110bb81614b33565b51925af16110c76151d5565b90806110fc575b15610f51576020818051810103126103a9576020015160125411156110f4575b86610f51565b5060016110ee565b506020815110156110ce565b5f809160018601548260405161ffff60208201936335a42fa760e01b855260018060a01b038116602484015260a01c166044820152600160648201526064815261115181614b18565b51925af15061115e6151d5565b5084610e04565b602061ffff60a460018701545f60018060a01b03895416956040519687958694630100160360e01b865260018060a01b038116600487015260a01c16602485015260ff602435166044850152600435606485015260848401525af180156111f65715610df157602090813d83116111ef575b6111e18183614b4e565b810103126103a95784610df1565b503d6111d7565b6040513d5f823e3d90fd5b5f9250610d79565b60115460405163b9209e3360e01b81526001600160a01b038581166004830152909160209183916024918391165afa5f918161125f575b5061124c575b50610d74565b611257575b88611246565b506001611251565b61127991925060203d60201161105f576110508183614b4e565b908a611240565b506011546001600160a01b03161515610d6f565b604051627eeac760e11b81526001600160a01b038516600482015261ffff60a086901c16602482015290602090829060449082905afa5f91816112f0575b5015610d665760125411156112e8575b88610d66565b5060016112e2565b935090506020833d60201161131f575b8161130d60209383614b4e565b810103126103a957889251908a6112d2565b3d9150611300565b859150610d50565b604051630d70a0e360e41b8152600490fd5b346103a95761134f36614d6b565b611357615204565b61135f61522e565b815f526020915f835260405f209061137561525d565b82546001600160a01b039190821690821603610c665760019485851b91835f52600582528260405f20541661144e577f9365ecf0d115674c7526ab28f784fbf6bba13d2eeacadef89369860c2b565f5892845f526005835260405f2090815417905586825260405f20865f528252600260405f20018760ff19825416179055835f5286825260405f20865f52825260405f20549460058101611418878254614e65565b90556114338689830192846002818654169201541690615670565b541693604051908152a45f8051602061603783398151915255005b6040516340dabeef60e11b8152600490fd5b346103a95760403660031901126103a9576001600160401b036024358181116103a957611491903690600401614bca565b9061149a615204565b6004355f526020905f825260405f20916114b261525d565b6001808501549094916001600160a01b03918216911603610c665760ff815460f01c166007811015610c8a57600203610c78576006019380519283116107c1576114fc8554614c6d565b601f811161159e575b5081601f841160011461153f57509282939183925f94611534575b50501b915f199060031b1c19161790555f80f35b015192508580611520565b919083601f198116875f52845f20945f905b88838310611584575050501061156c575b505050811b019055005b01515f1960f88460031b161c19169055838080611562565b858701518855909601959485019487935090810190611551565b855f52825f20601f850160051c8101918486106115da575b601f0160051c019085905b8281106115cf575050611505565b5f81550185906115c1565b90915081906115b6565b346103a95760403660031901126103a95761162d600435611603614b85565b90805f525f80516020615ff7833981519152602052611628600160405f2001546153a0565b61580e565b005b346103a9575f3660031901126103a9576020601254604051908152f35b346103a95760203660031901126103a957611665614b6f565b61166d615339565b601080546001600160a01b0319166001600160a01b0392909216919091179055005b346103a9575f3660031901126103a9576010546040516001600160a01b039091168152602090f35b346103a95760403660031901126103a9576116d0614b6f565b6116d8614df1565b6116e061525d565b6001600160a01b039081165f8181527f06484cc59dc38e4f67c31122333a17ca81b3ca18cdf02bfc298072fa52b0316a60205260409020547f241ecf16d79d0f8dbfb92cbc07fe17840425976cf0667f022fe9877caa831b0894919060ff1615611767575061162d9350165f52601460205260405f209060ff801983541691151516179055565b604490856040519163e2517d3f60e01b835260048301526024820152fd5b346103a95760203660031901126103a957600435805f525f60205260405f2060018101546003820154825460f81c9160405160a08101918183106001600160401b038411176107c1576118196120d696611ff696611e2e9661ffff600695610a0c9c60e299604052885260a01c166020870152604086015260608501526118126040518094819301614ca5565b0382614b4e565b6080820152611e3c610355611e2e61183760ff606086015116615bed565b9391651e17b9bb339f60d11b61184d8851615994565b9561185f61ffff60208b015116615ad6565b61186c60408b0151615994565b918a60ff60608201511615155f1461215257609161189360ff606061198d94015116615d85565b926040519384917f3c7465787420783d223530252220793d223830252220746578742d616e63686f602084015270391e9136b4b232363291103334b6361e9160791b604084015261196e81519260208301936118f3816051880187614c27565b85017f2220666f6e742d66616d696c793d22417269616c2220666f6e742d73697a653d60518201527f2232322220666f6e742d7765696768743d22626f6c64223e00000000000000006071820152611955825180936020608985019101614c27565b0191600160fd1b6089840152518093608a840190614c27565b01661e17ba32bc3a1f60c91b608a820152036071810184520182614b4e565b915b6040519889967f3c73766720786d6c6e733d22687474703a2f2f7777772e77332e6f72672f323060208901527f30302f737667222077696474683d2234303022206865696768743d223430302260408901527f2076696577426f783d223020302034303020343030223e00000000000000000060608901527f3c726563742077696474683d223130302522206865696768743d223130302522607789015270103334b6361e911198b098b1993191179f60791b60978901527f3c646566733e3c6c696e6561724772616469656e742069643d2267726164222060a88901527f78313d223025222079313d223025222078323d2231303025222079323d22313060c8890152631812911f60e11b60e88901527f3c73746f70206f66667365743d22302522207374796c653d2273746f702d636f60ec890152633637b91d60e11b61010c89015261011096611aeb8151809260208b8d019101614c27565b8801966211179f60e91b918280928a01527f3c73746f70206f66667365743d223130302522207374796c653d2273746f702d6101138a01526531b7b637b91d60d11b6101338a015261013998611b4a8251809360208d85019101614c27565b01978801527f3c2f6c696e6561724772616469656e743e3c2f646566733e000000000000000061013c8801527f3c636972636c652063783d22323030222063793d223230302220723d223135306101548801527f222066696c6c3d2275726c2823677261642922206f7061636974793d22302e396101748801526101948701527f3c7465787420783d223530252220793d223330252220746578742d616e63686f6101978701527f723d226d6964646c65222066696c6c3d2277686974652220666f6e742d66616d90816101b78801527f696c793d22417269616c2220666f6e742d73697a653d2232342220666f6e742d6101d78801527f7765696768743d22626f6c64223e504f4c594c414e434520574f524b3c2f74656101f7880152623c3a1f60e91b6102178801527f3c7465787420783d223530252220793d223435252220746578742d616e63686f61021a8801528161023a8801527f696c793d22417269616c2220666f6e742d73697a653d223138223e4a6f62202361025a88015261027a96611ce18251809360208b85019101614c27565b0195661e17ba32bc3a1f60c91b938480928901527f3c7465787420783d223530252220793d223535252220746578742d616e63686f6102818901527f723d226d6964646c65222066696c6c3d22236662626632342220666f6e742d666102a18901527f616d696c793d22417269616c2220666f6e742d73697a653d223230223e0000006102c18901526102de97611d818251809360208c85019101614c27565b01968701527f3c7465787420783d223530252220793d223635252220746578742d616e63686f6102e58701526103058601527f696c793d22417269616c2220666f6e742d73697a653d223136223e42756467656103258601526203a1d160ed1b61034586015261034894611dfe8251809360208985019101614c27565b019384015261034f92611e1a8251809360208785019101614c27565b019182015203610335810184520182614b4e565b611e366158f3565b90615e5a565b9060405190611e92603a8360208101957f646174613a696d6167652f7376672b786d6c3b6261736536342c0000000000008752611e828151809260208686019101614c27565b810103601a810185520183614b4e565b611e9c8151615994565b606082015190939060ff161561213d57611ebc60ff606084015116615994565b611f29604760405180937f7b2274726169745f74797065223a2022526174696e67222c202276616c7565226020830152621d101160e91b6040830152611f0c815180926020604386019101614c27565b8101630113e96160e51b6043820152036027810184520182614b4e565b905b611f496040611f4161ffff602087015116615ad6565b940151615994565b936040519889967f7b226e616d65223a2022506f6c794c616e6365204a6f622023000000000000006020890152611f8a81518092602060398c019101614c27565b8701917f222c20226465736372697074696f6e223a202250726f6f66206f6620576f726b60398401527f20666f7220506f6c794c616e6365204d61726b6574706c616365222c2022696d60598401526630b3b2911d101160c91b60798401525180936080840190614c27565b0171222c202261747472696275746573223a205b60701b6080820152612026825180936020609285019101614c27565b017f7b2274726169745f74797065223a202243617465676f7279222c202276616c7560928201526432911d101160d91b60b282015261206f82518093602060b785019101614c27565b017f227d2c207b2274726169745f74797065223a2022427564676574222c2022766160b782015266363ab2911d101160c91b60d78201526120ba82518093602060de85019101614c27565b0163227d5d7d60e01b60de8201520360c2810184520182614b4e565b612129603d60405180937f646174613a6170706c69636174696f6e2f6a736f6e3b6261736536342c00000060208301526121198151809260208686019101614c27565b810103601d810184520182614b4e565b604051918291602083526020830190614c48565b60405161214981614afd565b5f815290611f2b565b505060405161216081614afd565b5f81529161198f565b346103a95760203660031901126103a957612182614b6f565b61218a61522e565b6001600160a01b03908161219c61525d565b165f52600460205260405f209082811691825f5260205260405f2054918215610c78576121f0936121cb61525d565b165f52600460205260405f20905f526020525f60408120556121eb61525d565b615670565b60015f8051602061603783398151915255005b346103a95760803660031901126103a95761221c614b6f565b612224614b85565b606435916001600160401b0383116103a95761224761162d933690600401614bca565b916044359161508f565b346103a95760203660031901126103a95761226a614b6f565b612272615339565b6001600160a01b031680156108e7576001600160601b0360a01b60085416176008555f80f35b346103a9575f3660031901126103a957600b546040516001600160a01b039091168152602090f35b346103a9576122ce36614d6b565b906122d7615339565b6122df61522e565b5f525f60205260405f209060ff825460f01c166007811015610c8a57600303610c7857600382015490611388600584019161231c8354809561506f565b9261233f61271061232d848761507c565b0494612339868261506f565b96614e65565b905511156123ec5761235360055b84614e2d565b80156123bf576123829060018060a01b0390610e44826001870154169260028701541691600487015490614e65565b8061239a5760015f8051602061603783398151915255005b81546002909201546123b8926001600160a01b039182169116615670565b80806121f0565b506001820154600283015460048401546123e79290916001600160a01b039081169116615670565b612382565b612353600661234d565b346103a9575f3660031901126103a957610a0c60405161241581614ae2565b60058152640352e302e360dc1b6020820152604051918291602083526020830190614c48565b346103a95760203660031901126103a9576004355f526006602052602060405f2054604051908152f35b346103a95760403660031901126103a9576001600160401b036004356024358281116103a957366023820112156103a95780600401359283116103a95736602484830101116103a957815f525f60205260405f20906124c261525d565b82546001600160a01b03939091841684831614159081612559575b50610c665760f01c60ff166007811015610c8a57600303610c7857602460407fdccf2f8b2cc26eafcd61905cba744cff4b81d14740725f6376390dc6298a6a3c9284600854169461252c61525d565b16968083519485936020855282602086015201848401375f828201840152601f01601f19168101030190a4005b90508380600161256761525d565b9301541691161415866124dd565b6020806003193601126103a95760043561258d615204565b61259561522e565b805f525f825260405f20916125a861525d565b83546001600160a01b03949185168582161415806127a1575b610c665760ff8160f01c1660078110159081610c8a578015159182612793575b82612781575b5050610c785760ff60f01b1916600360f01b17905560085483169283151580612777575b156127465760405163f7434ea960e01b8152600481018390525f60248201528281604481885afa80156111f65761271c575b50816064946040519586809263c13517e160e01b825260026004830152604060248301525f604483015234905af19384156111f6575f946126cd575b507f74baab670a4015ab2f1b467c5252a96141a2573f2908e58a92081e80d3cfde3d91604091855f526006825284835f20556008541693825191818352820152a360015f8051602061603783398151915255005b9093508181813d8311612715575b6126e58183614b4e565b810103126103a95751927f74baab670a4015ab2f1b467c5252a96141a2573f2908e58a92081e80d3cfde3d612679565b503d6126db565b8290813d831161273f575b6127318183614b4e565b810103126103a9578461263d565b503d612727565b507f1954f0ea9e3f5fbdc693320e038db1549f419ae5351b74d36cee7c9ef13dd2b6919250604051838152a26121f0565b503084141561260b565b909150610c8a576002141586806125e7565b50600181141591505f6125e1565b506127aa61525d565b8580600185015416911614156125c1565b346103a95760403660031901126103a9576127d4614b85565b6004355f52600360205260405f209060018060a01b03165f52602052602060ff60405f2054166040519015158152f35b346103a95760403660031901126103a95761281d614b6f565b612825614df1565b61282d61525d565b6001600160a01b0392831692908315612899577f17307eab39ab6107e8899845ad3d59bd9653f200f220920489ca2b5937696c31918161286e602093614db9565b865f52835261288c8560405f209060ff801983541691151516179055565b60405194151585521692a3005b604051630b61174360e31b815260048101859052602490fd5b346103a9575f3660031901126103a95760206040515f8152f35b346103a9575f3660031901126103a9576011546040516001600160a01b039091168152602090f35b346103a9575f3660031901126103a95760206040517f16ceee8289685dd2a02b9c8ae81d2df373176ce53519e6284e2a2950d6546ffa8152f35b346103a9575f3660031901126103a9576040515f805160206160778339815191528054825f61295c83614c6d565b92838352602094600191866001821691825f146129e657505060011461299f575b505061298b92500383614b4e565b610a0c604051928284938452830190614c48565b8592505f525f80516020615fd7833981519152905f915b8583106129ce57505061298b9350820101858061297d565b805483890185015287945086939092019181016129b6565b925093505061298b94915060ff191682840152151560051b820101858061297d565b346103a95760203660031901126103a957612a21614b6f565b612a29615339565b600f80546001600160a01b0319166001600160a01b0392909216919091179055005b346103a95760403660031901126103a957612a64614b85565b6004355f525f80516020615ff783398151915260205260405f209060018060a01b03165f52602052602060ff60405f2054166040519015158152f35b346103a95760403660031901126103a957612ab9614b6f565b612ac1614b85565b9060018060a01b038091165f52600460205260405f2091165f52602052602060405f2054604051908152f35b346103a9575f3660031901126103a957600f546040516001600160a01b039091168152602090f35b346103a9575f3660031901126103a957612b2d615339565b612b35615204565b5f80516020616017833981519152805460ff191660011790557f62e78cea01bee320cd4e420270b5ea74000d11b0c9f74754ebdbfc544b05a2586020612b7961525d565b6040516001600160a01b039091168152a1005b346103a9575f3660031901126103a957602060405160058152f35b346103a95760203660031901126103a957612bc0614b6f565b612bc8615339565b601180546001600160a01b0319166001600160a01b0392909216919091179055005b346103a95760203660031901126103a9576004358015158082036103a957612c10615339565b6011805460ff60a01b191660a09290921b60ff60a01b1691909117905515612c3a57612b35615204565b5f80516020616017833981519152805460ff811615612c845760ff191690557f5db9ee0a495bf2e6ff9c91a7834c1ba4fdd244a5e8aa4e537bd38aeae4b073aa6020612b7961525d565b604051638dfc202b60e01b8152600490fd5b346103a95760203660031901126103a9576001600160a01b03612cb7614b6f565b165f526014602052602060ff60405f2054166040519015158152f35b346103a9576020806003193601126103a9576004355f526002906002815260405f20918254612d0181614c10565b91612d0f6040519384614b4e565b81835283830180955f52845f205f915b848310612d7257604080518881528751818a018190528a928201908a5f5b828110612d4a5784840385f35b855180516001600160a01b031685528201518483015294810194604090930192600101612d3d565b8387600192604051612d8381614ae2565b848060a01b0386541681528486015483820152815201920192019190612d1f565b346103a957612db236614d6b565b905f52600160205260405f20905f5260205260405f20805460ff600260405193612dea85612de38160018501614ca5565b0386614b4e565b015416612e096040519384938452606060208501526060840190614c48565b90151560408301520390f35b346103a95760203660031901126103a957612e2e614b6f565b6001600160a01b03811615612e5157612e48602091614d81565b54604051908152f35b6040516322718ad960e21b81525f6004820152602490fd5b346103a9575f3660031901126103a957600e546040516001600160a01b039091168152602090f35b346103a9575f3660031901126103a9576008546040516001600160a01b039091168152602090f35b346103a95760203660031901126103a957612ed2614b6f565b612eda615339565b600e80546001600160a01b0319166001600160a01b0392909216919091179055005b346103a95760203660031901126103a957612f15615204565b612f1d61522e565b6004355f525f60205260405f20612f3261525d565b81546001600160a01b0392838216929091908416839003610c665760ff8160f01c166007811015610c8a578015159081612ff1575b50610c785760ff60115460a01c1615612fb9575b60ff60f01b1916600360f11b17815560018101805460ff60c01b1916600160c01b1790556002810154600391909101546121f0939092911690615670565b65ffffffffffff8160c01c168042109081612fe7575b5015612f7b576040516307a92f1960e51b8152600490fd5b9050151585612fcf565b60019150141585612f67565b346103a95760203660031901126103a957613016614b6f565b61301e615339565b6001600160a01b031680156108e7576001600160601b0360a01b600c541617600c555f80f35b60203660031901126103a95760043561305b615204565b61306361522e565b805f525f60205260405f2061307661525d565b60018201546001600160a01b03929190831690831603610c6657805460ff8160f01c166007811015610c8a57600103610c7857346130ff575b60ff60f01b1916600160f11b1790556130c661525d565b16907f4426e4a90a9570c8f678a263b11785eaaade8b79d76d18c43d4d8e00062e4f835f80a360015f8051602061603783398151915255005b6004820161310e348254614e65565b90556130af565b346103a95760203660031901126103a95760206131336004356152e0565b6040516001600160a01b039091168152f35b346103a9575f3660031901126103a957602060ff5f8051602061601783398151915254166040519015158152f35b346103a95760203660031901126103a95761318c614b6f565b613194615339565b6001600160a01b031680156108e7576001600160601b0360a01b600b541617600b555f80f35b346103a9575f3660031901126103a9577f00000000000000000000000000000000000000000000000000000000000000006001600160a01b031630036132245760206040517f360894a13ba1a3210667c828492db98dca3e2076cc3735a920a3ca505d382bbc8152f35b60405163703e46dd60e11b8152600490fd5b60403660031901126103a95761324a614b6f565b6024356001600160401b0381116103a957613269903690600401614bca565b906001600160a01b037f000000000000000000000000000000000000000000000000000000000000000081163081149081156133fb575b50613224576132ad615339565b8116906040516352d1902d60e01b8152602081600481865afa5f91816133c7575b506132ec57604051634c9c8ce360e01b815260048101849052602490fd5b7f360894a13ba1a3210667c828492db98dca3e2076cc3735a920a3ca505d382bbc929192908181036133af5750823b156133965780546001600160a01b03191682179055604051907fbc7cd75a20ee27fd9adebab32041f755214dbc6bffa90cc0225b39da2e5c2d3b5f80a282511561337d57505f8083602061162d95519101845af46133776151d5565b91615f53565b9150503461338757005b63b398979f60e01b8152600490fd5b604051634c9c8ce360e01b815260048101839052602490fd5b60249060405190632a87526960e21b82526004820152fd5b9091506020813d6020116133f3575b816133e360209383614b4e565b810103126103a9575190856132ce565b3d91506133d6565b9050817f360894a13ba1a3210667c828492db98dca3e2076cc3735a920a3ca505d382bbc54161415846132a0565b346103a95760203660031901126103a957613442615204565b61344a61522e565b6004355f525f60205260405f2061345f61525d565b815491906001600160a01b03808416911603610c665760ff8260f01c166007811015610c8a57600203610c785760018101549160ff8360c01c1661132f576003820154926005830154906127106134b9610d3c848861506f565b0490858211613a40575b600f5486905f906001600160a01b0316806139ad575b50801580613999575b613922575b61391a575b8083946134ff61352b95610dc89461506f565b60ff60c01b198516600160c01b1760018a01556001600160f01b0390971661050560f01b178855614e65565b6010546001600160a01b03168061388d575b50600f546001600160a01b031680613830575b50600e546001600160a01b0316613674575b600183015460028401805460048601549194613590936001600160a01b0390811693921691610e4491614e65565b80151580613660575b61363e575b505060018060a01b03600182015416809260405190815260043560208201527f93e901cc5aea20ea9655887d9290a3215a5b3999c024812f4e4b749f7534349c604060043592a360018060a01b0390541660405160058152604060208201525f60408201527f0d1d6b5fdcc269f15c3c023f437df57afaf129b821fdca9726533515f0717f28606060043592a460015f8051602061603783398151915255005b600c549154613659926001600160a01b039182169116615670565b828061359e565b50600c546001600160a01b03161515613599565b600f5468056bc75e2d63100000905f906001600160a01b0316806137a2575b5080158061378e575b613713575b613703575b600e5460018501546040516340c10f1960e01b602082019081526001600160a01b03928316602483015260448201949094525f938493909216919083906136f08160648101610faa565b51925af1506136fd6151d5565b50613562565b50681043561a88293000006136a6565b601154600186015460405163b9209e3360e01b81526001600160a01b0391821660048201529160209183916024918391165afa5f918161376d575b5061375a575b506136a1565b613765575b86613754565b50600161375f565b61378791925060203d60201161105f576110508183614b4e565b908861374e565b506011546001600160a01b0316151561369c565b5f809160018801548260405161ffff6020820193627eeac760e11b855260018060a01b038116602484015260a01c166044820152604481526137e381614b33565b51925af16137ef6151d5565b9080613824575b15613693576020818051810103126103a95760200151601254111561381c575b86613693565b506001613816565b506020815110156137f6565b5f809160018601548260405161ffff60208201936335a42fa760e01b855260018060a01b038116602484015260a01c166044820152600160648201526064815261387981614b18565b51925af1506138866151d5565b5084613550565b602061ffff60a460018701545f60018060a01b03895416956040519687958694630100160360e01b865260018060a01b038116600487015260a01c16602485015260056044850152600435606485015260848401525af180156111f6571561353d57602090813d8311613913575b6139058183614b4e565b810103126103a9578461353d565b503d6138fb565b5f92506134ec565b60115460405163b9209e3360e01b81526001600160a01b038581166004830152909160209183916024918391165afa5f9181613978575b50613965575b506134e7565b613970575b8861395f565b50600161396a565b61399291925060203d60201161105f576110508183614b4e565b908a613959565b506011546001600160a01b031615156134e2565b604051627eeac760e11b81526001600160a01b038516600482015261ffff60a086901c16602482015290602090829060449082905afa5f9181613a09575b50156134d9576012541115613a01575b886134d9565b5060016139fb565b935090506020833d602011613a38575b81613a2660209383614b4e565b810103126103a957889251908a6139eb565b3d9150613a19565b8591506134c3565b346103a9575f3660031901126103a9576020600754604051908152f35b346103a9575f3660031901126103a957602060405160328152f35b346103a95761162d613a9136614d36565b9060405192613a9f84614afd565b5f845261508f565b346103a95760203660031901126103a9576001600160a01b03613ac8614b6f565b165f526013602052602060ff60405f2054166040519015158152f35b346103a9575f3660031901126103a957612c3a615339565b346103a95760403660031901126103a957613b15614b85565b6001600160a01b0380613b2661525d565b1690821603613b3b5761162d9060043561580e565b60405163334bd91960e11b8152600490fd5b346103a95760203660031901126103a957613b66615339565b600435601255005b346103a957613b7c36614d6b565b613b8461522e565b613b8c61525d565b6008546001600160a01b039190821690821603610c6657825f52600660205260405f205490815f525f60205260405f209081549160ff8360f01c166007811015610c8a57600303610c78577f394027a5fa6e098a1191094d1719d6929b9abc535fcc0c8f448d6a4e7562227693826020946003840154936005810194613c148654809261506f565b946004830154938b600185019860018a54928160c01b60ff60c01b198516178c55145f14613ca1575050505050908280613c8296613c77856002610e44975491600360f11b60ff60f01b1984161781550198848a54169060011c98899216615670565b541694541692614e65565b6008541692604051908152a360015f8051602061603783398151915255005b8d6002819b9596979a9b145f14613ced575050505050505090613ce1613ce89492826002865496600360f11b60ff60f01b19891617815501541693614e65565b9216615670565b613c82565b6003909a94979192959993969a14613d0f575b50505050505050505050613c82565b8760028194613ce194613d3988613d4b9f613d449c600560f01b9060ff60f01b1916178555614e65565b905501541693614e65565b5416615708565b85808281808080808080613d00565b346103a95760203660031901126103a957613d73614b6f565b613d7b615339565b6001600160a01b031680156108e7576001600160601b0360a01b60095416176009555f80f35b346103a95760403660031901126103a95761162d600435613dc0614b85565b90805f525f80516020615ff7833981519152602052613de5600160405f2001546153a0565b61560e565b346103a95760203660031901126103a9576004355f525f80516020615ff78339815191526020526020600160405f200154604051908152f35b346103a95761162d613e3436614d36565b91614e72565b346103a9575f3660031901126103a9576020600d54604051908152f35b346103a95760403660031901126103a957600435613e73614b85565b90613e7c615204565b805f5260205f60205260405f20613e9161525d565b8154916001600160a01b039182841690831603610c665760ff8360f01c166007811015610c8a57610c7857600181810180546001600160a01b031916978416978817905560ff60f01b19909316600160f01b1781555f8581526002602081905260408220949591949390865b613f2a575b88887faa8ddb0a6be8eabb7afdafe9579df1131d7b727572b572ddd6de6cc8ef3081235f80a3005b8454861015613fab5786868a84613f42849a8a614e00565b50541614613f935781613f558289614e00565b50015484613f63838a614e00565b5054165f526004865260405f208585890154165f528652613f8960405f20918254614e65565b90555b0195613efd565b81613f9e8289614e00565b5001546004870155613f8c565b613f02565b346103a95760203660031901126103a9576004355f525f60205260405f20805460018060a01b0390600660ff8260f01c1660018501549461ffff918560028301541660038301549060048401549261401e600586015495614017604051809a819301614ca5565b0388614b4e565b604051996101c0968a8a168c5263ffffffff8a60a01c1660208d015265ffffffffffff8a60c01c1660408d01526007831015610c8a578b9a610a0c9a60ff9460608e015260f81c60808d0152821660a08c0152808260a01c1660c08c01528160b01c1660e08b015260c01c161515610100890152610120880152610140870152610160860152610180850152806101a0850152830190614c48565b346103a95760203660031901126103a9576004355f526005602052602060405f2054604051908152f35b346103a95760203660031901126103a9576004356140ff615339565b6103e88111610c7857600d55005b346103a95760403660031901126103a957614126614b6f565b60243561413161525d565b9161413b826152e0565b6001600160a01b03939091908416801515806141eb575b806141cd575b6141b5575083169282918491167f8c5be1e5ebec7d5bd14f71427d1e84f3dd0314c0f7b2291e5b200ac8c7c3b9255f80a45f9081525f805160206160578339815191526020526040902080546001600160a01b0319169091179055005b6024906040519063a9fbf51f60e01b82526004820152fd5b506141d783614db9565b815f5260205260ff60405f20541615614158565b50808584161415614152565b346103a9575f3660031901126103a957602060ff60115460a01c166040519015158152f35b346103a95760203660031901126103a957600435614239816152e0565b505f525f80516020616057833981519152602052602060018060a01b0360405f205416604051908152f35b346103a9575f3660031901126103a9576040515f80516020615fb78339815191528054825f61429283614c6d565b92838352602094600191866001821691825f146129e65750506001146142c057505061298b92500383614b4e565b8592505f525f80516020616097833981519152905f915b8583106142ef57505061298b9350820101858061297d565b805483890185015287945086939092019181016142d7565b346103a9575f3660031901126103a9576009546040516001600160a01b039091168152602090f35b6003196020368201126103a9576001600160401b03600435116103a9576101008091600435360301126103a9576040519081018181106001600160401b038211176107c15760405260043560040135815261438e602460043501614b9b565b60208201526143a1604460043501614b9b565b604082015260043560648101356060830152608401356001600160401b0381116103a9576143d6906004369181350101614bca565b608082015260043560a481013560a083015260c401356001600160401b0381116103a95760043501366023820112156103a957600481013561441781614c10565b916144256040519384614b4e565b81835260208301903660248460051b830101116103a9579060248201915b60248460051b8201018310614a4857858560c082015260e460043501356001600160401b0381116103a95736602382600435010112156103a95760048181350101359061448f82614c10565b9161449d6040519384614b4e565b80835260208301913660248360051b83600435010101116103a9576024816004350101925b60248360051b836004350101018410614a1157858560e08201526144e4615204565b6144ec61522e565b60408101516001600160a01b0316156149d4576040810151614527906001600160a01b031661451961525d565b906060840151913091615297565b6007545f198114610c52576001810160078190555f9081526020819052604090206001600160a01b0361455861525d565b166001600160601b0360a01b908183541617825560018060a01b0360208501511690818160018501541617600184015560018060a01b03604086015116600284019182541617905560608401516003830155155f146149ca576145bc5f5b82614e2d565b60808301519283516001600160401b0381116107c1576145df6006840154614c6d565b601f8111614986575b506020601f821160011461491b5781929394955f92614910575b50508160011b915f199060031b1c19161760068301555b8051600183015461ffff60b01b60c08401515160b01b169161ffff60a01b9060a01b169063ffffffff60a01b1916171760018301555f805b60c0830151805183101561482a579061466d8361467493614e51565b5190614e65565b906146838160c0850151614e51565b516146928260e0860151614e51565b5190604051908160608101106001600160401b036060840111176107c157606082016040528152602081019182525f6040820152600187015f52600160205260405f20835f5260205260405f209181518355518051906001600160401b0382116107c1576147036001850154614c6d565b601f81116147e6575b50602090601f83116001146147705761475e938360019796946002946040945f92614765575b50505f19600383901b1c191690881b17848801555b0151151591019060ff801983541691151516179055565b0190614651565b015190508d80614732565b90600185015f5260205f20915f5b601f19851681106147ce57509360018460029460409461475e98849b9a98601f198116106147b6575b505050811b0187850155614747565b01515f1960f88460031b161c191690558d80806147a7565b9192602060018192868501518155019401920161477e565b600185015f5260205f20601f840160051c810160208510614823575b601f830160051c8201811061481857505061470c565b5f8155600101614802565b5080614802565b8486858460c08201515115159081614901575b50610c785760a0810151806148f8575062093a80420192834211610c52576020935b815465ffffffffffff60c01b19811660c092831b65ffffffffffff60c01b1617928390558386015160609490940151604080519182529390921c65ffffffffffff16828701526001600160a01b0393841693169160018501917f9f708ef692516d5076ae0cb779688ef01c75caad86fb2e2fa1b80612ee7e64a49190a460015f8051602061603783398151915255600160405191018152f35b9260209361485f565b9050606082015114158461483d565b015190508580614602565b600684015f5260205f20905f5b601f198416811061496e575060019394959683601f19811610614956575b505050811b016006830155614619565b01515f1960f88460031b161c19169055858080614946565b9091602060018192858b015181550193019101614928565b600684015f5260205f20601f830160051c8101602084106149c3575b601f830160051c820181106149b85750506145e8565b5f81556001016149a2565b50806149a2565b6145bc60016145b6565b60608101513410156145275760405162461bcd60e51b81526020600482015260096024820152684c6f772076616c756560b81b6044820152606490fd5b8335906001600160401b0382116103a95760208091614a3b60249485369188600435010101614bca565b81520194019390506144c2565b60208060249385358152019301929150614443565b346103a95760203660031901126103a9576004359063ffffffff60e01b82168092036103a957602091637965db0b60e01b8114908115614a9f575b5015158152f35b6380ac58cd60e01b811491508115614ad1575b8115614ac0575b5083614a98565b6301ffc9a760e01b14905083614ab9565b635b5e139f60e01b81149150614ab2565b604081019081106001600160401b038211176107c157604052565b602081019081106001600160401b038211176107c157604052565b60a081019081106001600160401b038211176107c157604052565b608081019081106001600160401b038211176107c157604052565b90601f801991011681019081106001600160401b038211176107c157604052565b600435906001600160a01b03821682036103a957565b602435906001600160a01b03821682036103a957565b35906001600160a01b03821682036103a957565b6001600160401b0381116107c157601f01601f191660200190565b81601f820112156103a957803590614be182614baf565b92614bef6040519485614b4e565b828452602083830101116103a957815f926020809301838601378301015290565b6001600160401b0381116107c15760051b60200190565b5f5b838110614c385750505f910152565b8181015183820152602001614c29565b90602091614c6181518092818552858086019101614c27565b601f01601f1916010190565b90600182811c92168015614c9b575b6020831014614c8757565b634e487b7160e01b5f52602260045260245ffd5b91607f1691614c7c565b80545f9392614cb382614c6d565b918282526020936001916001811690815f14614d175750600114614cd9575b5050505050565b90939495505f92919252835f2092845f945b838610614d0357505050500101905f80808080614cd2565b805485870183015294019385908201614ceb565b60ff19168685015250505090151560051b010191505f80808080614cd2565b60609060031901126103a9576001600160a01b039060043582811681036103a9579160243590811681036103a9579060443590565b60409060031901126103a9576004359060243590565b6001600160a01b03165f9081527f80bb2b638cc20bc4d0a60d66940f3ab4a00c1d7b313497ca82fb0b4ab00793036020526040902090565b6001600160a01b03165f9081527f80bb2b638cc20bc4d0a60d66940f3ab4a00c1d7b313497ca82fb0b4ab00793056020526040902090565b6024359081151582036103a957565b8054821015614e19575f5260205f209060011b01905f90565b634e487b7160e01b5f52603260045260245ffd5b906007811015610c8a57815460ff60f01b191660f09190911b60ff60f01b16179055565b8051821015614e195760209160051b010190565b91908201809211610c5257565b6001600160a01b03828116939184156150575782614e8e61525d565b94815f527f80bb2b638cc20bc4d0a60d66940f3ab4a00c1d7b313497ca82fb0b4ab00793028060205260409185835f205416978681168015159081614f90575b505050614edf9088614f5557614d81565b60018154019055825f52602052805f20876001600160601b0360a01b8254161790555195857fddf252ad1be2c89b69c2b068fc378daa952ba7f163c4a11628f55a4df523b3ef5f80a416808303614f365750505050565b6364283d7b60e01b845260048401526024830152604482015260649150fd5b5f8581525f8051602061605783398151915260205284902080546001600160a01b0319169055614f8489614d81565b80545f19019055614d81565b908092939495965091614ffc575b5015614fb05790818088959493614ece565b83879189155f14614fd3578151637e27328960e01b815260048101849052602490fd5b905163177e802f60e01b81526001600160a01b0390911660048201526024810191909152604490fd5b89811491508115615039575b8115615016575b505f614f9e565b9050875f525f8051602061605783398151915260205286855f205416145f61500f565b905061504489614db9565b815f5260205260ff855f20541690615008565b604051633250574960e11b81525f6004820152602490fd5b91908203918211610c5257565b81810292918115918404141715610c5257565b91909161509d828483614e72565b6150a561525d565b92803b6150b3575050505050565b604051630a85bd0160e11b8082526001600160a01b03958616600483015292851660248201526044810193909352608060648401529092169260209082908190615101906084830190614c48565b03815f875af15f9181615178575b50615146578261511d6151d5565b805191908261513f57604051633250574960e11b815260048101839052602490fd5b6020915001fd5b6001600160e01b0319160361516057505f80808080614cd2565b60249060405190633250574960e11b82526004820152fd5b9091506020813d6020116151b5575b8161519460209383614b4e565b810103126103a957516001600160e01b0319811681036103a957905f61510f565b3d9150615187565b908160209103126103a9575180151581036103a95790565b3d156151ff573d906151e682614baf565b916151f46040519384614b4e565b82523d5f602084013e565b606090565b60ff5f80516020616017833981519152541661521c57565b60405163d93c066560e01b8152600490fd5b5f80516020616037833981519152600281541461524b5760029055565b604051633ee5aeb560e01b8152600490fd5b600a546001600160a01b031633148061528c575b615279573390565b6013193601368111610c52573560601c90565b506014361015615271565b6040516323b872dd60e01b60208201526001600160a01b0392831660248201529290911660448301526064808301939093529181526152de916152d982614b18565b615899565b565b5f8181527f80bb2b638cc20bc4d0a60d66940f3ab4a00c1d7b313497ca82fb0b4ab007930260205260409020546001600160a01b0316908115615321575090565b60249060405190637e27328960e01b82526004820152fd5b61534161525d565b6001600160a01b03165f8181527fb7db2dd08fcb62d0c9e08c51941cae53c267786a0b75803fb7960902fc8ef97d602052604090205460ff16156153825750565b6044906040519063e2517d3f60e01b825260048201525f6024820152fd5b6153a861525d565b90805f525f80516020615ff783398151915260205260405f209160018060a01b031691825f5260205260ff60405f205416156153e2575050565b604492506040519163e2517d3f60e01b835260048301526024820152fd5b6001600160a01b039081165f8181527fb7db2dd08fcb62d0c9e08c51941cae53c267786a0b75803fb7960902fc8ef97d60205260409020549091905f80516020615ff78339815191529060ff166154a4575f805260205260405f20825f5260205260405f20600160ff1982541617905561547861525d565b16905f7f2f8788117e7eff1d82e926ec794901d17c78024a50270940304540a733656f0d8180a4600190565b5050505f90565b6001600160a01b039081165f8181527f06484cc59dc38e4f67c31122333a17ca81b3ca18cdf02bfc298072fa52b0316a60205260409020547f241ecf16d79d0f8dbfb92cbc07fe17840425976cf0667f022fe9877caa831b0892905f80516020615ff78339815191529060ff1661556e57835f5260205260405f20825f5260205260405f20600160ff1982541617905561554361525d565b16917f2f8788117e7eff1d82e926ec794901d17c78024a50270940304540a733656f0d5f80a4600190565b505050505f90565b6001600160a01b039081165f8181527fb5865ad506d0087b5b9864aee427988fc7aba8f4c8ec58b6dc2d0ddfb14bee8460205260409020547f16ceee8289685dd2a02b9c8ae81d2df373176ce53519e6284e2a2950d6546ffa92905f80516020615ff78339815191529060ff1661556e57835f5260205260405f20825f5260205260405f20600160ff1982541617905561554361525d565b5f8181525f80516020615ff7833981519152602081815260408084206001600160a01b039687168086529252909220549293919260ff1661556e57835f5260205260405f20825f5260205260405f20600160ff1982541617905561554361525d565b6001600160a01b03918216806156c957505f809381938293165af16156936151d5565b501561569b57565b60405162461bcd60e51b815260206004820152600660248201526519985a5b195960d21b6044820152606490fd5b60405163a9059cbb60e01b60208201526001600160a01b039290921660248301526044808301949094529281526152de929091506152d9606483614b4e565b6009546001600160a01b039290831680615723575b50505050565b815f526020915f835282808660a460405f20975f61ffff60018b015460a01c1697848b54166040519889968795630100160360e01b8752169a8b6004870152602486015260056044860152606485015260848401525af191826157e5575b50506157dc575f8094936157c482956009541694610faa604051938492830196636902622f60e11b88526024840152604060448401526006606484019101614ca5565b51925af1506157d16151d5565b505b5f80808061571d565b505050506157d3565b813d8311615807575b6157f88183614b4e565b810103126103a957825f615781565b503d6157ee565b5f8181525f80516020615ff7833981519152602081815260408084206001600160a01b039687168086529252909220549293919260ff161561556e57835f5260205260405f20825f5260205260405f2060ff19815416905561586e61525d565b16917ff6391f5c32d9c69d2a47ea670b442974b53935d1edc7fd64eb21e047a839171b5f80a4600190565b905f602091828151910182855af1156111f6575f513d6158ea57506001600160a01b0381163b155b6158c85750565b604051635274afe760e01b81526001600160a01b039091166004820152602490fd5b600114156158c1565b60405190606082018281106001600160401b038211176107c157604052604082527f6768696a6b6c6d6e6f707172737475767778797a303132333435363738392b2f6040837f4142434445464748494a4b4c4d4e4f505152535455565758595a61626364656660208201520152565b9061596c82614baf565b6159796040519182614b4e565b828152809261598a601f1991614baf565b0190602036910137565b805f917a184f03e93ff9f4daa797ed6e38ed64bf6a1f01000000000000000080821015615ac8575b506d04ee2d6d415b85acef810000000080831015615ab9575b50662386f26fc1000080831015615aaa575b506305f5e10080831015615a9b575b5061271080831015615a8c575b506064821015615a7c575b600a80921015615a72575b600190816021615a2b60018701615962565b95860101905b615a3d575b5050505090565b5f19019083906f181899199a1a9b1b9c1cb0b131b232b360811b8282061a835304918215615a6d57919082615a31565b615a36565b9160010191615a19565b9190606460029104910191615a0e565b6004919392049101915f615a03565b6008919392049101915f6159f6565b6010919392049101915f6159e7565b6020919392049101915f6159d5565b60409350810491505f6159bc565b60018114615b845760028114615b615760038114615b3b57600414615b1857604051615b0181614ae2565b600781526611d95b995c985b60ca1b602082015290565b604051615b2481614ae2565b600781526657726974696e6760c81b602082015290565b50604051615b4881614ae2565b60098152684d61726b6574696e6760b81b602082015290565b50604051615b6e81614ae2565b60068152652232b9b4b3b760d11b602082015290565b50604051615b9181614ae2565b600b81526a11195d995b1bdc1b595b9d60aa1b602082015290565b60ff7ff0c57e16840df040f15088dc2f81fe391c3923bec73e23a9662efc9c229c6a005460401c1615615bdb57565b604051631afcd79f60e31b8152600490fd5b60ff166004811015615d225760038114615cbd57615c5957604051615c1181614ae2565b60078152662334663436653560c81b602082015290604051615c3281614ae2565b60078152662339333333656160c81b602082015290604051615c5381614afd565b5f815290565b604051615c6581614ae2565b600781526611a1a21ba3199960c91b602082015290604051615c8681614ae2565b60078152662338423435313360c81b602082015290604051615ca781614ae2565b600681526542524f4e5a4560d01b602082015290565b50604051615cca81614ae2565b60078152660234330433043360cc1b602082015290604051615ceb81614ae2565b60078152660233830383038360cc1b602082015290604051615d0c81614ae2565b600681526529a4a62b22a960d11b602082015290565b50604051615d2f81614ae2565b60078152660234646443730360cc1b602082015290604051615d5081614ae2565b60078152660234646413530360cc1b602082015290604051615d7181614ae2565b600481526311d3d31160e21b602082015290565b60ff1660058114615e385760048114615e175760038114615df75760028114615dd857600114615dbb57604051615c5381614afd565b604051615dc781614ae2565b60018152601560f91b602082015290565b50604051615de581614ae2565b6002815261151560f11b602082015290565b50604051615e0481614ae2565b600381526215151560e91b602082015290565b50604051615e2481614ae2565b60048152631515151560e11b602082015290565b50604051615e4581614ae2565b6005815264151515151560d91b602082015290565b919091805115615f445780519260029160028501809511610c52576003948590046001600160fe1b0381168103610c5257615e9a9060029694961b615962565b9260208401928291835184019760208901928351945f85525b8a8110615ef757505050506003939495965052510680600114615ee557600214615edb575090565b603d905f19015390565b50603d90815f19820153600119015390565b836004919b989b019a8b51600190603f9082828260121c16870101518453828282600c1c16870101518385015382828260061c168701015187850153168401015185820153019699615eb3565b509050604051615c5381614afd565b90615f7a5750805115615f6857602081519101fd5b60405163d6bda27560e01b8152600490fd5b81511580615fad575b615f8b575090565b604051639996b31560e01b81526001600160a01b039091166004820152602490fd5b50803b15615f8356fe80bb2b638cc20bc4d0a60d66940f3ab4a00c1d7b313497ca82fb0b4ab0079300f4bad0a69248f59680a4f2b3000328cec71a413447c96781cfe5996daa8c456e02dd7bc7dec4dceedda775e58dd541e08a116c6c53815c0bd028192f7b626800cd5ed15c6e187e77e9aee88184c21f4f2182ab5827cb3b7e07fbedcd63f033009b779b17422d0df92223018b32b4d1fa46e071723d6817e2486d003becc55f0080bb2b638cc20bc4d0a60d66940f3ab4a00c1d7b313497ca82fb0b4ab007930480bb2b638cc20bc4d0a60d66940f3ab4a00c1d7b313497ca82fb0b4ab007930137c58c799b6609234b945e882912ee9ad34948a1dfaa20a97485e1a7752bbf81a26469706673582212208a256b6dba4d3f9380fd5a6edb17e0bc9ffce9efc5cb3a9b6a3a29ac6cd28a7464736f6c63430008180033",
  "linkReferences": {},
  "deployedLinkReferences": {}
}