{
  "_format": "hh-sol-artifact-1",
  "contractName": "FreelanceEscrow",
  "sourceName": "contracts/FreelanceEscrow.sol",
  "abi": [
    {
      "inputs": [],
      "stateMutability": "nonpayable",
      "type": "constructor"
    },
    {
      "inputs": [],
      "name": "AccessControlBadConfirmation",
      "type": "error"
    },
    {
      "inputs": [
        {
          "internalType": "address",
          "name": "account",
          "type": "address"
        },
        {
          "internalType": "bytes32",
          "name": "neededRole",
          "type": "bytes32"
        }
      ],
      "name": "AccessControlUnauthorizedAccount",
      "type": "error"
    },
    {
      "inputs": [
        {
          "internalType": "address",
          "name": "target",
          "type": "address"
        }
      ],
      "name": "AddressEmptyCode",
      "type": "error"
    },
    {
      "inputs": [],
      "name": "AlreadyPaid",
      "type": "error"
    },
    {
      "inputs": [
        {
          "internalType": "address",
          "name": "implementation",
          "type": "address"
        }
      ],
      "name": "ERC1967InvalidImplementation",
      "type": "error"
    },
    {
      "inputs": [],
      "name": "ERC1967NonPayable",
      "type": "error"
    },
    {
      "inputs": [
        {
          "internalType": "address",
          "name": "sender",
          "type": "address"
        },
        {
          "internalType": "uint256",
          "name": "tokenId",
          "type": "uint256"
        },
        {
          "internalType": "address",
          "name": "owner",
          "type": "address"
        }
      ],
      "name": "ERC721IncorrectOwner",
      "type": "error"
    },
    {
      "inputs": [
        {
          "internalType": "address",
          "name": "operator",
          "type": "address"
        },
        {
          "internalType": "uint256",
          "name": "tokenId",
          "type": "uint256"
        }
      ],
      "name": "ERC721InsufficientApproval",
      "type": "error"
    },
    {
      "inputs": [
        {
          "internalType": "address",
          "name": "approver",
          "type": "address"
        }
      ],
      "name": "ERC721InvalidApprover",
      "type": "error"
    },
    {
      "inputs": [
        {
          "internalType": "address",
          "name": "operator",
          "type": "address"
        }
      ],
      "name": "ERC721InvalidOperator",
      "type": "error"
    },
    {
      "inputs": [
        {
          "internalType": "address",
          "name": "owner",
          "type": "address"
        }
      ],
      "name": "ERC721InvalidOwner",
      "type": "error"
    },
    {
      "inputs": [
        {
          "internalType": "address",
          "name": "receiver",
          "type": "address"
        }
      ],
      "name": "ERC721InvalidReceiver",
      "type": "error"
    },
    {
      "inputs": [
        {
          "internalType": "address",
          "name": "sender",
          "type": "address"
        }
      ],
      "name": "ERC721InvalidSender",
      "type": "error"
    },
    {
      "inputs": [
        {
          "internalType": "uint256",
          "name": "tokenId",
          "type": "uint256"
        }
      ],
      "name": "ERC721NonexistentToken",
      "type": "error"
    },
    {
      "inputs": [],
      "name": "EnforcedPause",
      "type": "error"
    },
    {
      "inputs": [],
      "name": "ExpectedPause",
      "type": "error"
    },
    {
      "inputs": [],
      "name": "FailedCall",
      "type": "error"
    },
    {
      "inputs": [],
      "name": "InvalidAddress",
      "type": "error"
    },
    {
      "inputs": [],
      "name": "InvalidInitialization",
      "type": "error"
    },
    {
      "inputs": [],
      "name": "InvalidMilestone",
      "type": "error"
    },
    {
      "inputs": [],
      "name": "InvalidStatus",
      "type": "error"
    },
    {
      "inputs": [],
      "name": "MilestoneAlreadyReleased",
      "type": "error"
    },
    {
      "inputs": [],
      "name": "NotAuthorized",
      "type": "error"
    },
    {
      "inputs": [],
      "name": "NotInitializing",
      "type": "error"
    },
    {
      "inputs": [
        {
          "internalType": "address",
          "name": "owner",
          "type": "address"
        }
      ],
      "name": "OwnableInvalidOwner",
      "type": "error"
    },
    {
      "inputs": [
        {
          "internalType": "address",
          "name": "account",
          "type": "address"
        }
      ],
      "name": "OwnableUnauthorizedAccount",
      "type": "error"
    },
    {
      "inputs": [],
      "name": "ReentrancyGuardReentrantCall",
      "type": "error"
    },
    {
      "inputs": [
        {
          "internalType": "address",
          "name": "token",
          "type": "address"
        }
      ],
      "name": "SafeERC20FailedOperation",
      "type": "error"
    },
    {
      "inputs": [],
      "name": "UUPSUnauthorizedCallContext",
      "type": "error"
    },
    {
      "inputs": [
        {
          "internalType": "bytes32",
          "name": "slot",
          "type": "bytes32"
        }
      ],
      "name": "UUPSUnsupportedProxiableUUID",
      "type": "error"
    },
    {
      "anonymous": false,
      "inputs": [
        {
          "indexed": true,
          "internalType": "address",
          "name": "owner",
          "type": "address"
        },
        {
          "indexed": true,
          "internalType": "address",
          "name": "approved",
          "type": "address"
        },
        {
          "indexed": true,
          "internalType": "uint256",
          "name": "tokenId",
          "type": "uint256"
        }
      ],
      "name": "Approval",
      "type": "event"
    },
    {
      "anonymous": false,
      "inputs": [
        {
          "indexed": true,
          "internalType": "address",
          "name": "owner",
          "type": "address"
        },
        {
          "indexed": true,
          "internalType": "address",
          "name": "operator",
          "type": "address"
        },
        {
          "indexed": false,
          "internalType": "bool",
          "name": "approved",
          "type": "bool"
        }
      ],
      "name": "ApprovalForAll",
      "type": "event"
    },
    {
      "anonymous": false,
      "inputs": [
        {
          "indexed": true,
          "internalType": "contract IArbitrator",
          "name": "_arbitrator",
          "type": "address"
        },
        {
          "indexed": true,
          "internalType": "uint256",
          "name": "_disputeID",
          "type": "uint256"
        },
        {
          "indexed": false,
          "internalType": "uint256",
          "name": "_metaEvidenceID",
          "type": "uint256"
        },
        {
          "indexed": false,
          "internalType": "uint256",
          "name": "_evidenceID",
          "type": "uint256"
        }
      ],
      "name": "Dispute",
      "type": "event"
    },
    {
      "anonymous": false,
      "inputs": [
        {
          "indexed": true,
          "internalType": "uint256",
          "name": "jobId",
          "type": "uint256"
        },
        {
          "indexed": false,
          "internalType": "uint256",
          "name": "disputeId",
          "type": "uint256"
        }
      ],
      "name": "DisputeRaised",
      "type": "event"
    },
    {
      "anonymous": false,
      "inputs": [
        {
          "indexed": true,
          "internalType": "contract IArbitrator",
          "name": "_arbitrator",
          "type": "address"
        },
        {
          "indexed": true,
          "internalType": "uint256",
          "name": "_evidenceID",
          "type": "uint256"
        },
        {
          "indexed": true,
          "internalType": "address",
          "name": "_party",
          "type": "address"
        },
        {
          "indexed": false,
          "internalType": "string",
          "name": "_evidence",
          "type": "string"
        }
      ],
      "name": "Evidence",
      "type": "event"
    },
    {
      "anonymous": false,
      "inputs": [
        {
          "indexed": true,
          "internalType": "uint256",
          "name": "jobId",
          "type": "uint256"
        },
        {
          "indexed": true,
          "internalType": "address",
          "name": "freelancer",
          "type": "address"
        },
        {
          "indexed": false,
          "internalType": "uint256",
          "name": "amount",
          "type": "uint256"
        },
        {
          "indexed": false,
          "internalType": "uint256",
          "name": "nftId",
          "type": "uint256"
        }
      ],
      "name": "FundsReleased",
      "type": "event"
    },
    {
      "anonymous": false,
      "inputs": [
        {
          "indexed": false,
          "internalType": "uint64",
          "name": "version",
          "type": "uint64"
        }
      ],
      "name": "Initialized",
      "type": "event"
    },
    {
      "anonymous": false,
      "inputs": [
        {
          "indexed": true,
          "internalType": "uint256",
          "name": "jobId",
          "type": "uint256"
        },
        {
          "indexed": true,
          "internalType": "address",
          "name": "client",
          "type": "address"
        },
        {
          "indexed": true,
          "internalType": "address",
          "name": "freelancer",
          "type": "address"
        },
        {
          "indexed": false,
          "internalType": "uint256",
          "name": "amount",
          "type": "uint256"
        },
        {
          "indexed": false,
          "internalType": "uint256",
          "name": "deadline",
          "type": "uint256"
        }
      ],
      "name": "JobCreated",
      "type": "event"
    },
    {
      "anonymous": false,
      "inputs": [
        {
          "indexed": true,
          "internalType": "uint256",
          "name": "jobId",
          "type": "uint256"
        },
        {
          "indexed": true,
          "internalType": "uint256",
          "name": "milestoneId",
          "type": "uint256"
        },
        {
          "indexed": false,
          "internalType": "uint256",
          "name": "amount",
          "type": "uint256"
        }
      ],
      "name": "MilestoneReleased",
      "type": "event"
    },
    {
      "anonymous": false,
      "inputs": [
        {
          "indexed": true,
          "internalType": "address",
          "name": "previousOwner",
          "type": "address"
        },
        {
          "indexed": true,
          "internalType": "address",
          "name": "newOwner",
          "type": "address"
        }
      ],
      "name": "OwnershipTransferred",
      "type": "event"
    },
    {
      "anonymous": false,
      "inputs": [
        {
          "indexed": false,
          "internalType": "address",
          "name": "account",
          "type": "address"
        }
      ],
      "name": "Paused",
      "type": "event"
    },
    {
      "anonymous": false,
      "inputs": [
        {
          "indexed": true,
          "internalType": "bytes32",
          "name": "role",
          "type": "bytes32"
        },
        {
          "indexed": true,
          "internalType": "bytes32",
          "name": "previousAdminRole",
          "type": "bytes32"
        },
        {
          "indexed": true,
          "internalType": "bytes32",
          "name": "newAdminRole",
          "type": "bytes32"
        }
      ],
      "name": "RoleAdminChanged",
      "type": "event"
    },
    {
      "anonymous": false,
      "inputs": [
        {
          "indexed": true,
          "internalType": "bytes32",
          "name": "role",
          "type": "bytes32"
        },
        {
          "indexed": true,
          "internalType": "address",
          "name": "account",
          "type": "address"
        },
        {
          "indexed": true,
          "internalType": "address",
          "name": "sender",
          "type": "address"
        }
      ],
      "name": "RoleGranted",
      "type": "event"
    },
    {
      "anonymous": false,
      "inputs": [
        {
          "indexed": true,
          "internalType": "bytes32",
          "name": "role",
          "type": "bytes32"
        },
        {
          "indexed": true,
          "internalType": "address",
          "name": "account",
          "type": "address"
        },
        {
          "indexed": true,
          "internalType": "address",
          "name": "sender",
          "type": "address"
        }
      ],
      "name": "RoleRevoked",
      "type": "event"
    },
    {
      "anonymous": false,
      "inputs": [
        {
          "indexed": true,
          "internalType": "contract IArbitrator",
          "name": "_arbitrator",
          "type": "address"
        },
        {
          "indexed": true,
          "internalType": "uint256",
          "name": "_disputeID",
          "type": "uint256"
        },
        {
          "indexed": false,
          "internalType": "uint256",
          "name": "_ruling",
          "type": "uint256"
        }
      ],
      "name": "Ruling",
      "type": "event"
    },
    {
      "anonymous": false,
      "inputs": [
        {
          "indexed": true,
          "internalType": "address",
          "name": "from",
          "type": "address"
        },
        {
          "indexed": true,
          "internalType": "address",
          "name": "to",
          "type": "address"
        },
        {
          "indexed": true,
          "internalType": "uint256",
          "name": "tokenId",
          "type": "uint256"
        }
      ],
      "name": "Transfer",
      "type": "event"
    },
    {
      "anonymous": false,
      "inputs": [
        {
          "indexed": false,
          "internalType": "address",
          "name": "account",
          "type": "address"
        }
      ],
      "name": "Unpaused",
      "type": "event"
    },
    {
      "anonymous": false,
      "inputs": [
        {
          "indexed": true,
          "internalType": "address",
          "name": "implementation",
          "type": "address"
        }
      ],
      "name": "Upgraded",
      "type": "event"
    },
    {
      "inputs": [],
      "name": "APPLICATION_STAKE_PERCENT",
      "outputs": [
        {
          "internalType": "uint256",
          "name": "",
          "type": "uint256"
        }
      ],
      "stateMutability": "view",
      "type": "function"
    },
    {
      "inputs": [],
      "name": "ARBITRATOR_ROLE",
      "outputs": [
        {
          "internalType": "bytes32",
          "name": "",
          "type": "bytes32"
        }
      ],
      "stateMutability": "view",
      "type": "function"
    },
    {
      "inputs": [],
      "name": "DEFAULT_ADMIN_ROLE",
      "outputs": [
        {
          "internalType": "bytes32",
          "name": "",
          "type": "bytes32"
        }
      ],
      "stateMutability": "view",
      "type": "function"
    },
    {
      "inputs": [],
      "name": "MANAGER_ROLE",
      "outputs": [
        {
          "internalType": "bytes32",
          "name": "",
          "type": "bytes32"
        }
      ],
      "stateMutability": "view",
      "type": "function"
    },
    {
      "inputs": [],
      "name": "UPGRADE_INTERFACE_VERSION",
      "outputs": [
        {
          "internalType": "string",
          "name": "",
          "type": "string"
        }
      ],
      "stateMutability": "view",
      "type": "function"
    },
    {
      "inputs": [
        {
          "internalType": "uint256",
          "name": "jobId",
          "type": "uint256"
        }
      ],
      "name": "acceptJob",
      "outputs": [],
      "stateMutability": "payable",
      "type": "function"
    },
    {
      "inputs": [
        {
          "internalType": "uint256",
          "name": "jobId",
          "type": "uint256"
        }
      ],
      "name": "applyForJob",
      "outputs": [],
      "stateMutability": "payable",
      "type": "function"
    },
    {
      "inputs": [
        {
          "internalType": "address",
          "name": "to",
          "type": "address"
        },
        {
          "internalType": "uint256",
          "name": "tokenId",
          "type": "uint256"
        }
      ],
      "name": "approve",
      "outputs": [],
      "stateMutability": "nonpayable",
      "type": "function"
    },
    {
      "inputs": [],
      "name": "arbitrator",
      "outputs": [
        {
          "internalType": "address",
          "name": "",
          "type": "address"
        }
      ],
      "stateMutability": "view",
      "type": "function"
    },
    {
      "inputs": [
        {
          "internalType": "address",
          "name": "owner",
          "type": "address"
        }
      ],
      "name": "balanceOf",
      "outputs": [
        {
          "internalType": "uint256",
          "name": "",
          "type": "uint256"
        }
      ],
      "stateMutability": "view",
      "type": "function"
    },
    {
      "inputs": [
        {
          "internalType": "address",
          "name": "token",
          "type": "address"
        }
      ],
      "name": "claimRefund",
      "outputs": [],
      "stateMutability": "nonpayable",
      "type": "function"
    },
    {
      "inputs": [
        {
          "internalType": "uint256",
          "name": "jobId",
          "type": "uint256"
        },
        {
          "internalType": "uint8",
          "name": "rating",
          "type": "uint8"
        }
      ],
      "name": "completeJob",
      "outputs": [],
      "stateMutability": "nonpayable",
      "type": "function"
    },
    {
      "inputs": [],
      "name": "completionCertContract",
      "outputs": [
        {
          "internalType": "address",
          "name": "",
          "type": "address"
        }
      ],
      "stateMutability": "view",
      "type": "function"
    },
    {
      "inputs": [
        {
          "components": [
            {
              "internalType": "uint256",
              "name": "categoryId",
              "type": "uint256"
            },
            {
              "internalType": "address",
              "name": "freelancer",
              "type": "address"
            },
            {
              "internalType": "address",
              "name": "token",
              "type": "address"
            },
            {
              "internalType": "uint256",
              "name": "amount",
              "type": "uint256"
            },
            {
              "internalType": "string",
              "name": "ipfsHash",
              "type": "string"
            },
            {
              "internalType": "uint256",
              "name": "deadline",
              "type": "uint256"
            },
            {
              "internalType": "uint256[]",
              "name": "mAmounts",
              "type": "uint256[]"
            },
            {
              "internalType": "string[]",
              "name": "mHashes",
              "type": "string[]"
            }
          ],
          "internalType": "struct FreelanceEscrow.CreateParams",
          "name": "p",
          "type": "tuple"
        }
      ],
      "name": "createJob",
      "outputs": [
        {
          "internalType": "uint256",
          "name": "",
          "type": "uint256"
        }
      ],
      "stateMutability": "payable",
      "type": "function"
    },
    {
      "inputs": [
        {
          "internalType": "uint256",
          "name": "jobId",
          "type": "uint256"
        }
      ],
      "name": "dispute",
      "outputs": [],
      "stateMutability": "payable",
      "type": "function"
    },
    {
      "inputs": [
        {
          "internalType": "uint256",
          "name": "",
          "type": "uint256"
        }
      ],
      "name": "disputeIdToJobId",
      "outputs": [
        {
          "internalType": "uint256",
          "name": "",
          "type": "uint256"
        }
      ],
      "stateMutability": "view",
      "type": "function"
    },
    {
      "inputs": [],
      "name": "entryPoint",
      "outputs": [
        {
          "internalType": "address",
          "name": "",
          "type": "address"
        }
      ],
      "stateMutability": "view",
      "type": "function"
    },
    {
      "inputs": [
        {
          "internalType": "uint256",
          "name": "tokenId",
          "type": "uint256"
        }
      ],
      "name": "getApproved",
      "outputs": [
        {
          "internalType": "address",
          "name": "",
          "type": "address"
        }
      ],
      "stateMutability": "view",
      "type": "function"
    },
    {
      "inputs": [
        {
          "internalType": "bytes32",
          "name": "role",
          "type": "bytes32"
        }
      ],
      "name": "getRoleAdmin",
      "outputs": [
        {
          "internalType": "bytes32",
          "name": "",
          "type": "bytes32"
        }
      ],
      "stateMutability": "view",
      "type": "function"
    },
    {
      "inputs": [
        {
          "internalType": "bytes32",
          "name": "role",
          "type": "bytes32"
        },
        {
          "internalType": "address",
          "name": "account",
          "type": "address"
        }
      ],
      "name": "grantRole",
      "outputs": [],
      "stateMutability": "nonpayable",
      "type": "function"
    },
    {
      "inputs": [
        {
          "internalType": "uint256",
          "name": "",
          "type": "uint256"
        },
        {
          "internalType": "address",
          "name": "",
          "type": "address"
        }
      ],
      "name": "hasApplied",
      "outputs": [
        {
          "internalType": "bool",
          "name": "",
          "type": "bool"
        }
      ],
      "stateMutability": "view",
      "type": "function"
    },
    {
      "inputs": [
        {
          "internalType": "bytes32",
          "name": "role",
          "type": "bytes32"
        },
        {
          "internalType": "address",
          "name": "account",
          "type": "address"
        }
      ],
      "name": "hasRole",
      "outputs": [
        {
          "internalType": "bool",
          "name": "",
          "type": "bool"
        }
      ],
      "stateMutability": "view",
      "type": "function"
    },
    {
      "inputs": [
        {
          "internalType": "address",
          "name": "admin",
          "type": "address"
        },
        {
          "internalType": "address",
          "name": "forwarder",
          "type": "address"
        },
        {
          "internalType": "address",
          "name": "_sbt",
          "type": "address"
        },
        {
          "internalType": "address",
          "name": "_entry",
          "type": "address"
        }
      ],
      "name": "initialize",
      "outputs": [],
      "stateMutability": "nonpayable",
      "type": "function"
    },
    {
      "inputs": [
        {
          "internalType": "address",
          "name": "owner",
          "type": "address"
        },
        {
          "internalType": "address",
          "name": "operator",
          "type": "address"
        }
      ],
      "name": "isApprovedForAll",
      "outputs": [
        {
          "internalType": "bool",
          "name": "",
          "type": "bool"
        }
      ],
      "stateMutability": "view",
      "type": "function"
    },
    {
      "inputs": [
        {
          "internalType": "uint256",
          "name": "",
          "type": "uint256"
        },
        {
          "internalType": "uint256",
          "name": "",
          "type": "uint256"
        }
      ],
      "name": "jobApplications",
      "outputs": [
        {
          "internalType": "address",
          "name": "freelancer",
          "type": "address"
        },
        {
          "internalType": "uint256",
          "name": "stake",
          "type": "uint256"
        }
      ],
      "stateMutability": "view",
      "type": "function"
    },
    {
      "inputs": [],
      "name": "jobCount",
      "outputs": [
        {
          "internalType": "uint256",
          "name": "",
          "type": "uint256"
        }
      ],
      "stateMutability": "view",
      "type": "function"
    },
    {
      "inputs": [
        {
          "internalType": "uint256",
          "name": "",
          "type": "uint256"
        },
        {
          "internalType": "uint256",
          "name": "",
          "type": "uint256"
        }
      ],
      "name": "jobMilestones",
      "outputs": [
        {
          "internalType": "uint256",
          "name": "amount",
          "type": "uint256"
        },
        {
          "internalType": "string",
          "name": "ipfsHash",
          "type": "string"
        },
        {
          "internalType": "bool",
          "name": "isReleased",
          "type": "bool"
        }
      ],
      "stateMutability": "view",
      "type": "function"
    },
    {
      "inputs": [
        {
          "internalType": "uint256",
          "name": "",
          "type": "uint256"
        }
      ],
      "name": "jobs",
      "outputs": [
        {
          "internalType": "address",
          "name": "client",
          "type": "address"
        },
        {
          "internalType": "uint32",
          "name": "id",
          "type": "uint32"
        },
        {
          "internalType": "uint48",
          "name": "deadline",
          "type": "uint48"
        },
        {
          "internalType": "enum FreelanceEscrowBase.JobStatus",
          "name": "status",
          "type": "uint8"
        },
        {
          "internalType": "uint8",
          "name": "rating",
          "type": "uint8"
        },
        {
          "internalType": "address",
          "name": "freelancer",
          "type": "address"
        },
        {
          "internalType": "uint16",
          "name": "categoryId",
          "type": "uint16"
        },
        {
          "internalType": "uint16",
          "name": "milestoneCount",
          "type": "uint16"
        },
        {
          "internalType": "bool",
          "name": "paid",
          "type": "bool"
        },
        {
          "internalType": "address",
          "name": "token",
          "type": "address"
        },
        {
          "internalType": "uint256",
          "name": "amount",
          "type": "uint256"
        },
        {
          "internalType": "uint256",
          "name": "freelancerStake",
          "type": "uint256"
        },
        {
          "internalType": "uint256",
          "name": "totalPaidOut",
          "type": "uint256"
        },
        {
          "internalType": "string",
          "name": "ipfsHash",
          "type": "string"
        }
      ],
      "stateMutability": "view",
      "type": "function"
    },
    {
      "inputs": [
        {
          "internalType": "uint256",
          "name": "",
          "type": "uint256"
        }
      ],
      "name": "milestoneBitmask",
      "outputs": [
        {
          "internalType": "uint256",
          "name": "",
          "type": "uint256"
        }
      ],
      "stateMutability": "view",
      "type": "function"
    },
    {
      "inputs": [],
      "name": "name",
      "outputs": [
        {
          "internalType": "string",
          "name": "",
          "type": "string"
        }
      ],
      "stateMutability": "view",
      "type": "function"
    },
    {
      "inputs": [],
      "name": "owner",
      "outputs": [
        {
          "internalType": "address",
          "name": "",
          "type": "address"
        }
      ],
      "stateMutability": "view",
      "type": "function"
    },
    {
      "inputs": [
        {
          "internalType": "uint256",
          "name": "tokenId",
          "type": "uint256"
        }
      ],
      "name": "ownerOf",
      "outputs": [
        {
          "internalType": "address",
          "name": "",
          "type": "address"
        }
      ],
      "stateMutability": "view",
      "type": "function"
    },
    {
      "inputs": [],
      "name": "pause",
      "outputs": [],
      "stateMutability": "nonpayable",
      "type": "function"
    },
    {
      "inputs": [],
      "name": "paused",
      "outputs": [
        {
          "internalType": "bool",
          "name": "",
          "type": "bool"
        }
      ],
      "stateMutability": "view",
      "type": "function"
    },
    {
      "inputs": [
        {
          "internalType": "address",
          "name": "",
          "type": "address"
        },
        {
          "internalType": "address",
          "name": "",
          "type": "address"
        }
      ],
      "name": "pendingRefunds",
      "outputs": [
        {
          "internalType": "uint256",
          "name": "",
          "type": "uint256"
        }
      ],
      "stateMutability": "view",
      "type": "function"
    },
    {
      "inputs": [
        {
          "internalType": "uint256",
          "name": "jobId",
          "type": "uint256"
        },
        {
          "internalType": "address",
          "name": "freelancer",
          "type": "address"
        }
      ],
      "name": "pickFreelancer",
      "outputs": [],
      "stateMutability": "nonpayable",
      "type": "function"
    },
    {
      "inputs": [],
      "name": "platformFeeBps",
      "outputs": [
        {
          "internalType": "uint256",
          "name": "",
          "type": "uint256"
        }
      ],
      "stateMutability": "view",
      "type": "function"
    },
    {
      "inputs": [],
      "name": "polyToken",
      "outputs": [
        {
          "internalType": "address",
          "name": "",
          "type": "address"
        }
      ],
      "stateMutability": "view",
      "type": "function"
    },
    {
      "inputs": [],
      "name": "proxiableUUID",
      "outputs": [
        {
          "internalType": "bytes32",
          "name": "",
          "type": "bytes32"
        }
      ],
      "stateMutability": "view",
      "type": "function"
    },
    {
      "inputs": [
        {
          "internalType": "uint256",
          "name": "jobId",
          "type": "uint256"
        }
      ],
      "name": "raiseDispute",
      "outputs": [],
      "stateMutability": "payable",
      "type": "function"
    },
    {
      "inputs": [
        {
          "internalType": "uint256",
          "name": "jobId",
          "type": "uint256"
        }
      ],
      "name": "refundExpiredJob",
      "outputs": [],
      "stateMutability": "nonpayable",
      "type": "function"
    },
    {
      "inputs": [
        {
          "internalType": "uint256",
          "name": "jobId",
          "type": "uint256"
        }
      ],
      "name": "releaseFunds",
      "outputs": [],
      "stateMutability": "nonpayable",
      "type": "function"
    },
    {
      "inputs": [
        {
          "internalType": "uint256",
          "name": "jobId",
          "type": "uint256"
        },
        {
          "internalType": "uint256",
          "name": "mId",
          "type": "uint256"
        }
      ],
      "name": "releaseMilestone",
      "outputs": [],
      "stateMutability": "nonpayable",
      "type": "function"
    },
    {
      "inputs": [],
      "name": "renounceOwnership",
      "outputs": [],
      "stateMutability": "nonpayable",
      "type": "function"
    },
    {
      "inputs": [
        {
          "internalType": "bytes32",
          "name": "role",
          "type": "bytes32"
        },
        {
          "internalType": "address",
          "name": "callerConfirmation",
          "type": "address"
        }
      ],
      "name": "renounceRole",
      "outputs": [],
      "stateMutability": "nonpayable",
      "type": "function"
    },
    {
      "inputs": [],
      "name": "reputationContract",
      "outputs": [
        {
          "internalType": "address",
          "name": "",
          "type": "address"
        }
      ],
      "stateMutability": "view",
      "type": "function"
    },
    {
      "inputs": [
        {
          "internalType": "uint256",
          "name": "jobId",
          "type": "uint256"
        },
        {
          "internalType": "uint256",
          "name": "freelancerBps",
          "type": "uint256"
        }
      ],
      "name": "resolveDisputeManual",
      "outputs": [],
      "stateMutability": "nonpayable",
      "type": "function"
    },
    {
      "inputs": [
        {
          "internalType": "bytes32",
          "name": "role",
          "type": "bytes32"
        },
        {
          "internalType": "address",
          "name": "account",
          "type": "address"
        }
      ],
      "name": "revokeRole",
      "outputs": [],
      "stateMutability": "nonpayable",
      "type": "function"
    },
    {
      "inputs": [
        {
          "internalType": "uint256",
          "name": "dId",
          "type": "uint256"
        },
        {
          "internalType": "uint256",
          "name": "ruling",
          "type": "uint256"
        }
      ],
      "name": "rule",
      "outputs": [],
      "stateMutability": "nonpayable",
      "type": "function"
    },
    {
      "inputs": [
        {
          "internalType": "address",
          "name": "from",
          "type": "address"
        },
        {
          "internalType": "address",
          "name": "to",
          "type": "address"
        },
        {
          "internalType": "uint256",
          "name": "tokenId",
          "type": "uint256"
        }
      ],
      "name": "safeTransferFrom",
      "outputs": [],
      "stateMutability": "nonpayable",
      "type": "function"
    },
    {
      "inputs": [
        {
          "internalType": "address",
          "name": "from",
          "type": "address"
        },
        {
          "internalType": "address",
          "name": "to",
          "type": "address"
        },
        {
          "internalType": "uint256",
          "name": "tokenId",
          "type": "uint256"
        },
        {
          "internalType": "bytes",
          "name": "data",
          "type": "bytes"
        }
      ],
      "name": "safeTransferFrom",
      "outputs": [],
      "stateMutability": "nonpayable",
      "type": "function"
    },
    {
      "inputs": [],
      "name": "sbtContract",
      "outputs": [
        {
          "internalType": "address",
          "name": "",
          "type": "address"
        }
      ],
      "stateMutability": "view",
      "type": "function"
    },
    {
      "inputs": [
        {
          "internalType": "address",
          "name": "operator",
          "type": "address"
        },
        {
          "internalType": "bool",
          "name": "approved",
          "type": "bool"
        }
      ],
      "name": "setApprovalForAll",
      "outputs": [],
      "stateMutability": "nonpayable",
      "type": "function"
    },
    {
      "inputs": [
        {
          "internalType": "address",
          "name": "_arb",
          "type": "address"
        }
      ],
      "name": "setArbitrator",
      "outputs": [],
      "stateMutability": "nonpayable",
      "type": "function"
    },
    {
      "inputs": [
        {
          "internalType": "address",
          "name": "_cert",
          "type": "address"
        }
      ],
      "name": "setCompletionCertContract",
      "outputs": [],
      "stateMutability": "nonpayable",
      "type": "function"
    },
    {
      "inputs": [
        {
          "internalType": "address",
          "name": "_entry",
          "type": "address"
        }
      ],
      "name": "setEntryPoint",
      "outputs": [],
      "stateMutability": "nonpayable",
      "type": "function"
    },
    {
      "inputs": [
        {
          "internalType": "uint256",
          "name": "_bps",
          "type": "uint256"
        }
      ],
      "name": "setPlatformFee",
      "outputs": [],
      "stateMutability": "nonpayable",
      "type": "function"
    },
    {
      "inputs": [
        {
          "internalType": "address",
          "name": "_token",
          "type": "address"
        }
      ],
      "name": "setPolyToken",
      "outputs": [],
      "stateMutability": "nonpayable",
      "type": "function"
    },
    {
      "inputs": [
        {
          "internalType": "address",
          "name": "_rep",
          "type": "address"
        }
      ],
      "name": "setReputationContract",
      "outputs": [],
      "stateMutability": "nonpayable",
      "type": "function"
    },
    {
      "inputs": [
        {
          "internalType": "address",
          "name": "_sbt",
          "type": "address"
        }
      ],
      "name": "setSBTContract",
      "outputs": [],
      "stateMutability": "nonpayable",
      "type": "function"
    },
    {
      "inputs": [
        {
          "internalType": "address",
          "name": "_token",
          "type": "address"
        },
        {
          "internalType": "bool",
          "name": "_status",
          "type": "bool"
        }
      ],
      "name": "setTokenWhitelist",
      "outputs": [],
      "stateMutability": "nonpayable",
      "type": "function"
    },
    {
      "inputs": [
        {
          "internalType": "address",
          "name": "_vault",
          "type": "address"
        }
      ],
      "name": "setVault",
      "outputs": [],
      "stateMutability": "nonpayable",
      "type": "function"
    },
    {
      "inputs": [
        {
          "internalType": "uint256",
          "name": "jobId",
          "type": "uint256"
        },
        {
          "internalType": "string",
          "name": "ipfsHash",
          "type": "string"
        }
      ],
      "name": "submitWork",
      "outputs": [],
      "stateMutability": "nonpayable",
      "type": "function"
    },
    {
      "inputs": [
        {
          "internalType": "bytes4",
          "name": "id",
          "type": "bytes4"
        }
      ],
      "name": "supportsInterface",
      "outputs": [
        {
          "internalType": "bool",
          "name": "",
          "type": "bool"
        }
      ],
      "stateMutability": "view",
      "type": "function"
    },
    {
      "inputs": [],
      "name": "symbol",
      "outputs": [
        {
          "internalType": "string",
          "name": "",
          "type": "string"
        }
      ],
      "stateMutability": "view",
      "type": "function"
    },
    {
      "inputs": [
        {
          "internalType": "uint256",
          "name": "jobId",
          "type": "uint256"
        }
      ],
      "name": "tokenURI",
      "outputs": [
        {
          "internalType": "string",
          "name": "",
          "type": "string"
        }
      ],
      "stateMutability": "view",
      "type": "function"
    },
    {
      "inputs": [
        {
          "internalType": "address",
          "name": "",
          "type": "address"
        }
      ],
      "name": "tokenWhitelist",
      "outputs": [
        {
          "internalType": "bool",
          "name": "",
          "type": "bool"
        }
      ],
      "stateMutability": "view",
      "type": "function"
    },
    {
      "inputs": [
        {
          "internalType": "address",
          "name": "from",
          "type": "address"
        },
        {
          "internalType": "address",
          "name": "to",
          "type": "address"
        },
        {
          "internalType": "uint256",
          "name": "tokenId",
          "type": "uint256"
        }
      ],
      "name": "transferFrom",
      "outputs": [],
      "stateMutability": "nonpayable",
      "type": "function"
    },
    {
      "inputs": [
        {
          "internalType": "address",
          "name": "newOwner",
          "type": "address"
        }
      ],
      "name": "transferOwnership",
      "outputs": [],
      "stateMutability": "nonpayable",
      "type": "function"
    },
    {
      "inputs": [],
      "name": "unpause",
      "outputs": [],
      "stateMutability": "nonpayable",
      "type": "function"
    },
    {
      "inputs": [
        {
          "internalType": "address",
          "name": "newImplementation",
          "type": "address"
        },
        {
          "internalType": "bytes",
          "name": "data",
          "type": "bytes"
        }
      ],
      "name": "upgradeToAndCall",
      "outputs": [],
      "stateMutability": "payable",
      "type": "function"
    },
    {
      "inputs": [],
      "name": "vault",
      "outputs": [
        {
          "internalType": "address",
          "name": "",
          "type": "address"
        }
      ],
      "stateMutability": "view",
      "type": "function"
    }
  ],
  "bytecode": "0x60a08060405234620000d157306080527ff0c57e16840df040f15088dc2f81fe391c3923bec73e23a9662efc9c229c6a009081549060ff8260401c16620000c257506001600160401b036002600160401b0319828216016200007c575b6040516157de9081620000d68239608051818181612b440152612bec0152f35b6001600160401b031990911681179091556040519081527fc7f505b2f371ae2175ee4913f4499e1f2633a7b5936321eed1cdaeb6115181d290602090a15f80806200005c565b63f92ee8a960e01b8152600490fd5b5f80fdfe6080806040526004361015610012575f80fd5b5f3560e01c90816301ffc9a714613f4e57508063025b67bf14613849578063061583601461382157806306fdde031461377e578063081812fc14613736578063095ea7b31461364c57806312e8e2c31461362257806315152c06146135f8578063180aedf3146134ef5780631ebcfb4b146133c357806322dcd13e146133a657806323b872dd1461338f578063248a9ca3146133565780632f2ff15d1461330d57806330095f89146132c6578063311a6c56146131a957806336568abe146131585780633f4ba83a146130e457806342842e0e146130b75780634c5d8a0f1461309a5780634d68282f14612da15780634f1ef28614612bae57806352d1902d14612b32578063584465f214612aeb5780635c975abb14612abd5780636352211e14612a8d57806363b2f3c9146129ee5780636817031b146129a757806368574222146128c85780636b0a30e2146128855780636cc6cde11461285d5780636faa22a51461283557806370a08231146127e1578063715018a61461277a57806373a2b57f14612709578063753d7563146126cc5780637c084cb3146126b15780638456cb591461263a57806386d6282c1461217657806387bc1425146126125780638c2398e6146125c55780638da5cb5b1461259157806391d148541461253c5780639584660f146124f957806395d89b411461241f5780639cea0787146123e5578063a217fddf146123cb578063a22cb46514612330578063a39bf544146122e7578063a5c1674e14612176578063a9f335a51461214c578063ad3cb1cc14612107578063b099a7df14611fff578063b0d691fe14611fd7578063b0eefabe14611f90578063b88d4fde14611f2f578063bffa55d514611e95578063c87b56dd146114b1578063c9bcc97e146113f6578063cc6dbc63146113ce578063cf9373651461138b578063d547741f14611342578063da8accf9146111be578063dbaf0910146110a3578063dca137b414610c36578063e0c94ae514610a42578063e985e9c5146109f6578063ead39a11146109a0578063ec87621c14610966578063f2fde38b1461093b578063f8c8765e146103605763fbfa77cf14610334575f80fd5b3461035c575f36600319011261035c57600c546040516001600160a01b039091168152602090f35b5f80fd5b3461035c57608036600319011261035c57610379614060565b610381614076565b6044356001600160a01b038116810361035c57606435916001600160a01b038316830361035c577ff0c57e16840df040f15088dc2f81fe391c3923bec73e23a9662efc9c229c6a00928354926001600160401b0384168015908161092b575b6001149081610921575b159081610918575b506109065760016001600160401b0319851617855560ff8460401c16156108e7575b6001600160a01b0386161580156108d6575b80156108c5575b80156108b4575b6108a2576040519561044587614024565b600d87526c467265656c616e6365576f726b60981b60208801526040519661046c88614024565b600588526446574f524b60d81b602089015261048661527e565b61048e61527e565b8051906001600160401b03821161077c5781906104b85f805160206156898339815191525461415e565b601f8111610827575b50602090601f831160011461079b575f92610790575b50508160011b915f199060031b1c1916175f80516020615689833981519152555b86516001600160401b03811161077c5761051f5f805160206157698339815191525461415e565b601f8111610708575b506020601f821160011461067c57819060ff98995f92610671575b50508160011b915f199060031b1c1916175f80516020615769833981519152555b61056c61527e565b61057461527e565b61057c61527e565b60015f805160206157298339815191525561059561527e565b61059d61527e565b6105a561527e565b6105ad61527e565b6105b6816145d2565b6105bf8161488c565b506105c981614937565b506105d381614a02565b506001600160601b0360a01b9360018060a01b031684600a541617600a5560018060a01b031683600854161760085560018060a01b031682600954161760095560018060a01b031690600b541617600b5560fa600d5560401c161561063457005b68ff00000000000000001981541690557fc7f505b2f371ae2175ee4913f4499e1f2633a7b5936321eed1cdaeb6115181d2602060405160018152a1005b015190508980610543565b5f805160206157698339815191525f525f805160206156a9833981519152985f5b601f19841681106106f0575098829160ff999a600194601f198116106106d8575b505050811b015f8051602061576983398151915255610564565b01515f1960f88460031b161c191690558980806106be565b828201518b556001909a01996020928301920161069d565b5f805160206157698339815191525f52601f820160051c5f805160206156a9833981519152019060208310610767575b601f0160051c5f805160206156a983398151915201905b81811061075c5750610528565b5f815560010161074f565b5f805160206156a98339815191529150610738565b634e487b7160e01b5f52604160045260245ffd5b0151905089806104d7565b92505f805160206156898339815191525f525f80516020615789833981519152905f935b601f198416851061080c576001945083601f198116106107f4575b505050811b015f80516020615689833981519152556104f8565b01515f1960f88460031b161c191690558980806107da565b818101518355602094850194600190930192909101906107bf565b9091505f805160206156898339815191525f52601f830160051c5f80516020615789833981519152016020841061088e575b908392915b601f820160051c5f8051602061578983398151915201811061088057506104c1565b5f815584935060010161085e565b505f80516020615789833981519152610859565b60405163e6c4247b60e01b8152600490fd5b506001600160a01b03821615610434565b506001600160a01b0381161561042d565b506001600160a01b03831615610426565b68ffffffffffffffffff19841668010000000000000001178555610414565b60405163f92ee8a960e01b8152600490fd5b905015876103f2565b303b1591506103ea565b604086901c60ff161591506103e0565b3461035c57602036600319011261035c57610964610957614060565b61095f614778565b6145d2565b005b3461035c575f36600319011261035c5760206040517f241ecf16d79d0f8dbfb92cbc07fe17840425976cf0667f022fe9877caa831b088152f35b3461035c576109ae3661425c565b905f52600260205260405f2090815481101561035c576109cd91614311565b508054600190910154604080516001600160a01b039093168352602083019190915290f35b0390f35b3461035c57604036600319011261035c57610a0f614060565b610a20610a1a614076565b916142aa565b9060018060a01b03165f52602052602060ff60405f2054166040519015158152f35b60208060031936011261035c5760043590610a5b614643565b610a6361466d565b815f525f815260405f209160ff835460f01c166007811015610c2257610c10575f81815260038352604090206001600160a01b03939084610aa261469c565b165f52835260ff60405f205416610c10576003810154600581029080820460051490151715610bfc576002606486920492015416818115155f14610bc257610af391610aec61469c565b30916146d6565b815f526002835260405f20610b0661469c565b906040519160408301908382106001600160401b0383111761077c57879160405216825284820192835280546801000000000000000081101561077c57610b5291600182018155614311565b929092610baf578560019251166001600160601b0360a01b845416178355519101555f526003815260405f2091610b8761469c565b165f525260405f20600160ff1982541617905560015f80516020615729833981519152555f80f35b634e487b7160e01b5f525f60045260245ffd5b9050341015610af35760405162461bcd60e51b81526004810184905260096024820152684c6f77207374616b6560b81b6044820152606490fd5b634e487b7160e01b5f52601160045260245ffd5b6040516307a92f1960e51b8152600490fd5b634e487b7160e01b5f52602160045260245ffd5b3461035c57604036600319011261035c5760243560043560ff8216820361035c57610c5f614643565b610c6761466d565b805f526020915f835260405f2090610c7d61469c565b825492906001600160a01b0390818516908216036110915760ff8460f01c166007811015610c2257600203610c105760018201805460ff8160c01c1661107f5783886003899601549686866005850195865496610cda888d614583565b9b600d54610ce791614590565b6127109004978c610cf88a82614583565b60ff60c01b198516600160c01b178c556001600160f01b03909f1660f888901b6001600160f81b03191617600560f01b178955610d3491614376565b90551690610d4191614afc565b868282886009541680610f7c575b50505050856010541680610ec7575b50505095839291610dcc7f93e901cc5aea20ea9655887d9290a3215a5b3999c024812f4e4b749f7534349c986040989796600f54168c81610e72575b505085600e54168c81610e22575b50508585541690610dc6600282019560048988541693015490614376565b91614d2f565b80151580610e15575b610dfb575b50505416958351928352820152a360015f8051602061572983398151915255005b610e0e918480600c541691541690614d2f565b8880610dda565b5083600c54161515610dd5565b5f918291828a8a5416918e51908101926340c10f1960e01b8452602482015268056bc75e2d63100000604482015260448152610e5d81614009565b51925af150610e6a6145a3565b508c8c610da8565b5f9182918289549161ffff8f51918201936335a42fa760e01b85528d8116602484015260a01c1660448201526001606482015260648152610eb281613fee565b51925af150610ebf6145a3565b508c8c610d9a565b85548454604051630100160360e01b81526001600160a01b038a84168116600483015260a09390931c61ffff16602482015260ff90941660448501526064840199909952978716979097166084820152958690815f8160a4810103925af18015610f715788958a91610f3a575b80610d5e565b9080929594939796503d8311610f6a575b610f55818361403f565b8101031261035c57909193869394888a610f34565b503d610f4b565b6040513d5f823e3d90fd5b88548754604051630100160360e01b81526001600160a01b038d84168116600483015260a09390931c61ffff16602482015260ff90941660448501526064840195909552938a16939093166084820152918290815f8160a4810103925af1908161104e575b50611049575f808760095416888854168260405187810192636902622f60e11b8452602482015260406044820152611031816110236064820160068d01614196565b03601f19810183528261403f565b51925af15061103e6145a3565b505b8682828e610d4f565b611040565b9092809298503d8311611078575b611066818361403f565b8101031261035c5788958a918c610fe1565b503d61105c565b604051630d70a0e360e41b8152600490fd5b60405163ea8e4eb560e01b8152600490fd5b3461035c576110b13661425c565b6110b9614643565b6110c161466d565b815f526020915f835260405f20926110d761469c565b84546001600160a01b039291908316908316036110915760019485851b845f52600583528060405f2054166111ac577fd33fcd27cbfb73a2d9058c968b560ccb306500bf536133802048489ecc7355e99361119491865f526005855260405f2090815417905587845260405f20875f528452600260405f20018860ff19825416179055855f5287845260405f20875f52845260405f205492839160058201611180848254614376565b90556002818b840154169201541690614d2f565b604051908152a35f8051602061572983398151915255005b6040516302e845cd60e61b8152600490fd5b3461035c57604036600319011261035c576001600160401b0360243581811161035c576111ef9036906004016140bb565b906111f8614643565b6004355f526020905f825260405f209161121061469c565b6001808501549094916001600160a01b039182169116036110915760ff815460f01c166007811015610c2257600203610c105760060193805192831161077c5761125a855461415e565b601f81116112fc575b5081601f841160011461129d57509282939183925f94611292575b50501b915f199060031b1c19161790555f80f35b01519250858061127e565b919083601f198116875f52845f20945f905b888383106112e257505050106112ca575b505050811b019055005b01515f1960f88460031b161c191690558380806112c0565b8587015188559096019594850194879350908101906112af565b855f52825f20601f850160051c810191848610611338575b601f0160051c019085905b82811061132d575050611263565b5f815501859061131f565b9091508190611314565b3461035c57604036600319011261035c57610964600435611361614076565b90805f525f805160206156e9833981519152602052611386600160405f20015461482c565b614dc7565b3461035c57602036600319011261035c576113a4614060565b6113ac614778565b601080546001600160a01b0319166001600160a01b0392909216919091179055005b3461035c575f36600319011261035c576010546040516001600160a01b039091168152602090f35b3461035c57611404366142e2565b61140c61469c565b6001600160a01b039081165f8181527f06484cc59dc38e4f67c31122333a17ca81b3ca18cdf02bfc298072fa52b0316a60205260409020547f241ecf16d79d0f8dbfb92cbc07fe17840425976cf0667f022fe9877caa831b0894919060ff161561149357506109649350165f52601160205260405f209060ff801983541691151516179055565b604490856040519163e2517d3f60e01b835260048301526024820152fd5b3461035c57602036600319011261035c57600435805f525f60205260405f2060018101546003820154825460f81c9160405160a08101918183106001600160401b0384111761077c57611545611e0296611d2296611b5a9661ffff6006956109f29c60e299604052885260a01c1660208701526040860152606085015261153e6040518094819301614196565b038261403f565b6080820152611b68610355611b5a61156360ff6060860151166152bf565b9391651e17b9bb339f60d11b6115798851615066565b9561158b61ffff60208b0151166151a8565b61159860408b0151615066565b918a60ff60608201511615155f14611e7e5760916115bf60ff60606116b994015116615457565b926040519384917f3c7465787420783d223530252220793d223830252220746578742d616e63686f602084015270391e9136b4b232363291103334b6361e9160791b604084015261169a815192602083019361161f816051880187614118565b85017f2220666f6e742d66616d696c793d22417269616c2220666f6e742d73697a653d60518201527f2232322220666f6e742d7765696768743d22626f6c64223e00000000000000006071820152611681825180936020608985019101614118565b0191600160fd1b6089840152518093608a840190614118565b01661e17ba32bc3a1f60c91b608a82015203607181018452018261403f565b915b6040519889967f3c73766720786d6c6e733d22687474703a2f2f7777772e77332e6f72672f323060208901527f30302f737667222077696474683d2234303022206865696768743d223430302260408901527f2076696577426f783d223020302034303020343030223e00000000000000000060608901527f3c726563742077696474683d223130302522206865696768743d223130302522607789015270103334b6361e911198b098b1993191179f60791b60978901527f3c646566733e3c6c696e6561724772616469656e742069643d2267726164222060a88901527f78313d223025222079313d223025222078323d2231303025222079323d22313060c8890152631812911f60e11b60e88901527f3c73746f70206f66667365743d22302522207374796c653d2273746f702d636f60ec890152633637b91d60e11b61010c890152610110966118178151809260208b8d019101614118565b8801966211179f60e91b918280928a01527f3c73746f70206f66667365743d223130302522207374796c653d2273746f702d6101138a01526531b7b637b91d60d11b6101338a0152610139986118768251809360208d85019101614118565b01978801527f3c2f6c696e6561724772616469656e743e3c2f646566733e000000000000000061013c8801527f3c636972636c652063783d22323030222063793d223230302220723d223135306101548801527f222066696c6c3d2275726c2823677261642922206f7061636974793d22302e396101748801526101948701527f3c7465787420783d223530252220793d223330252220746578742d616e63686f6101978701527f723d226d6964646c65222066696c6c3d2277686974652220666f6e742d66616d90816101b78801527f696c793d22417269616c2220666f6e742d73697a653d2232342220666f6e742d6101d78801527f7765696768743d22626f6c64223e504f4c594c414e434520574f524b3c2f74656101f7880152623c3a1f60e91b6102178801527f3c7465787420783d223530252220793d223435252220746578742d616e63686f61021a8801528161023a8801527f696c793d22417269616c2220666f6e742d73697a653d223138223e4a6f62202361025a88015261027a96611a0d8251809360208b85019101614118565b0195661e17ba32bc3a1f60c91b938480928901527f3c7465787420783d223530252220793d223535252220746578742d616e63686f6102818901527f723d226d6964646c65222066696c6c3d22236662626632342220666f6e742d666102a18901527f616d696c793d22417269616c2220666f6e742d73697a653d223230223e0000006102c18901526102de97611aad8251809360208c85019101614118565b01968701527f3c7465787420783d223530252220793d223635252220746578742d616e63686f6102e58701526103058601527f696c793d22417269616c2220666f6e742d73697a653d223136223e42756467656103258601526203a1d160ed1b61034586015261034894611b2a8251809360208985019101614118565b019384015261034f92611b468251809360208785019101614118565b01918201520361033581018452018261403f565b611b62614fc5565b9061552c565b9060405190611bbe603a8360208101957f646174613a696d6167652f7376672b786d6c3b6261736536342c0000000000008752611bae8151809260208686019101614118565b810103601a81018552018361403f565b611bc88151615066565b606082015190939060ff1615611e6957611be860ff606084015116615066565b611c55604760405180937f7b2274726169745f74797065223a2022526174696e67222c202276616c7565226020830152621d101160e91b6040830152611c38815180926020604386019101614118565b8101630113e96160e51b604382015203602781018452018261403f565b905b611c756040611c6d61ffff6020870151166151a8565b940151615066565b936040519889967f7b226e616d65223a2022506f6c794c616e6365204a6f622023000000000000006020890152611cb681518092602060398c019101614118565b8701917f222c20226465736372697074696f6e223a202250726f6f66206f6620576f726b60398401527f20666f7220506f6c794c616e6365204d61726b6574706c616365222c2022696d60598401526630b3b2911d101160c91b60798401525180936080840190614118565b0171222c202261747472696275746573223a205b60701b6080820152611d52825180936020609285019101614118565b017f7b2274726169745f74797065223a202243617465676f7279222c202276616c7560928201526432911d101160d91b60b2820152611d9b82518093602060b785019101614118565b017f227d2c207b2274726169745f74797065223a2022427564676574222c2022766160b782015266363ab2911d101160c91b60d7820152611de682518093602060de85019101614118565b0163227d5d7d60e01b60de8201520360c281018452018261403f565b611e55603d60405180937f646174613a6170706c69636174696f6e2f6a736f6e3b6261736536342c0000006020830152611e458151809260208686019101614118565b810103601d81018452018261403f565b604051918291602083526020830190614139565b604051611e7581613fd3565b5f815290611c57565b5050604051611e8c81613fd3565b5f8152916116bb565b3461035c57602036600319011261035c57611eae614060565b611eb661466d565b6001600160a01b039081611ec861469c565b165f52600460205260405f209082811691825f5260205260405f2054918215610c1057611f1c93611ef761469c565b165f52600460205260405f20905f526020525f6040812055611f1761469c565b614d2f565b60015f8051602061572983398151915255005b3461035c57608036600319011261035c57611f48614060565b611f50614076565b90604435606435926001600160401b03841161035c57611f776109649436906004016140bb565b92611f83838383614383565b611f8b61469c565b614e52565b3461035c57602036600319011261035c57611fa9614060565b611fb16147c5565b6001600160a01b031680156108a2576001600160601b0360a01b60085416176008555f80f35b3461035c575f36600319011261035c57600b546040516001600160a01b039091168152602090f35b3461035c5761200d3661425c565b906120166147c5565b61201e61466d565b5f525f60205260405f209060ff825460f01c166007811015610c2257600303610c1057600382015490611388600584019161205b83548095614583565b9261207e61271061206c8487614590565b04946120788682614583565b96614376565b905511156120fd5761209260055b8461433e565b806120d6575b50806120b15760015f8051602061572983398151915255005b81546002909201546120cf926001600160a01b039182169116614d2f565b8080611f1c565b600183015460028401546120f792916001600160a01b039182169116614d2f565b82612098565b612092600661208c565b3461035c575f36600319011261035c576109f260405161212681614024565b60058152640352e302e360dc1b6020820152604051918291602083526020830190614139565b3461035c57602036600319011261035c576004355f526006602052602060405f2054604051908152f35b60208060031936011261035c576004359061218f614643565b61219761466d565b815f525f815260405f206121a961469c565b81546001600160a01b03929183168382161415806122cd575b6110915760ff60f01b1916600360f01b1790556008541690816121f25760015f8051602061572983398151915255005b60405163f7434ea960e01b8152600481018290525f6024820152918183604481845afa928315610f71575f9361229e575b50819060646040518095819363c13517e160e01b835260026004840152604060248401525f60448401525af18015610f71575f90612270575b600692505f525260405f2055808080611f1c565b508082813d8311612297575b612286818361403f565b8101031261035c576006915161225c565b503d61227c565b9092508181813d83116122c6575b6122b6818361403f565b8101031261035c57519181612223565b503d6122ac565b506122d661469c565b8380600185015416911614156121c2565b3461035c57604036600319011261035c57612300614076565b6004355f52600360205260405f209060018060a01b03165f52602052602060ff60405f2054166040519015158152f35b3461035c5761233e366142e2565b61234661469c565b6001600160a01b03928316929083156123b2577f17307eab39ab6107e8899845ad3d59bd9653f200f220920489ca2b5937696c3191816123876020936142aa565b865f5283526123a58560405f209060ff801983541691151516179055565b60405194151585521692a3005b604051630b61174360e31b815260048101859052602490fd5b3461035c575f36600319011261035c5760206040515f8152f35b3461035c575f36600319011261035c5760206040517f16ceee8289685dd2a02b9c8ae81d2df373176ce53519e6284e2a2950d6546ffa8152f35b3461035c575f36600319011261035c576040515f805160206157698339815191528054825f61244d8361415e565b92838352602094600191866001821691825f146124d7575050600114612490575b505061247c9250038361403f565b6109f2604051928284938452830190614139565b8592505f525f805160206156a9833981519152905f915b8583106124bf57505061247c9350820101858061246e565b805483890185015287945086939092019181016124a7565b925093505061247c94915060ff191682840152151560051b820101858061246e565b3461035c57602036600319011261035c57612512614060565b61251a614778565b600f80546001600160a01b0319166001600160a01b0392909216919091179055005b3461035c57604036600319011261035c57612555614076565b6004355f525f805160206156e983398151915260205260405f209060018060a01b03165f52602052602060ff60405f2054166040519015158152f35b3461035c575f36600319011261035c575f805160206156c9833981519152546040516001600160a01b039091168152602090f35b3461035c57604036600319011261035c576125de614060565b6125e6614076565b9060018060a01b038091165f52600460205260405f2091165f52602052602060405f2054604051908152f35b3461035c575f36600319011261035c57600f546040516001600160a01b039091168152602090f35b3461035c575f36600319011261035c576126526147c5565b61265a614643565b5f80516020615709833981519152805460ff191660011790557f62e78cea01bee320cd4e420270b5ea74000d11b0c9f74754ebdbfc544b05a258602061269e61469c565b6040516001600160a01b039091168152a1005b3461035c575f36600319011261035c57602060405160058152f35b3461035c57602036600319011261035c576001600160a01b036126ed614060565b165f526011602052602060ff60405f2054166040519015158152f35b3461035c576127173661425c565b905f52600160205260405f20905f5260205260405f20805460ff60026040519361274f856127488160018501614196565b038661403f565b01541661276e6040519384938452606060208501526060840190614139565b90151560408301520390f35b3461035c575f36600319011261035c57612792614778565b5f805160206156c983398151915280546001600160a01b031981169091555f906001600160a01b03167f8be0079c531659141344cd1fd0a4f28419497f9722a3daafe3b4186f6b6457e08280a3005b3461035c57602036600319011261035c576127fa614060565b6001600160a01b0381161561281d57612814602091614272565b54604051908152f35b6040516322718ad960e21b81525f6004820152602490fd5b3461035c575f36600319011261035c57600e546040516001600160a01b039091168152602090f35b3461035c575f36600319011261035c576008546040516001600160a01b039091168152602090f35b3461035c57602036600319011261035c5761289e614060565b6128a6614778565b600e80546001600160a01b0319166001600160a01b0392909216919091179055005b3461035c57602036600319011261035c576128e1614643565b6128e961466d565b6004355f525f60205260405f206128fe61469c565b81546001600160a01b03928382169290919084168390036110915760ff8160f01c166007811015610c2257801515908161299b575b50610c105765ffffffffffff8160c01c168042109081612991575b50610c105760ff60f01b1916600360f11b17815560018101805460ff60c01b1916600160c01b179055600281015460039190910154611f1c939092911690614d2f565b905015158561294e565b60019150141585612933565b3461035c57602036600319011261035c576129c0614060565b6129c8614778565b6001600160a01b031680156108a2576001600160601b0360a01b600c541617600c555f80f35b602036600319011261035c57612a02614643565b612a0a61466d565b6004355f525f60205260405f20612a1f61469c565b60018201546001600160a01b0390811691160361109157805460ff8160f01c166007811015610c2257600103610c105734612a77575b60ff60f01b1916600160f11b17905560015f8051602061572983398151915255005b60048201612a86348254614376565b9055612a55565b3461035c57602036600319011261035c576020612aab60043561471f565b6040516001600160a01b039091168152f35b3461035c575f36600319011261035c57602060ff5f8051602061570983398151915254166040519015158152f35b3461035c57602036600319011261035c57612b04614060565b612b0c6147c5565b6001600160a01b031680156108a2576001600160601b0360a01b600b541617600b555f80f35b3461035c575f36600319011261035c577f00000000000000000000000000000000000000000000000000000000000000006001600160a01b03163003612b9c5760206040517f360894a13ba1a3210667c828492db98dca3e2076cc3735a920a3ca505d382bbc8152f35b60405163703e46dd60e11b8152600490fd5b604036600319011261035c57612bc2614060565b6024356001600160401b03811161035c57612be19036906004016140bb565b906001600160a01b037f00000000000000000000000000000000000000000000000000000000000000008116308114908115612d73575b50612b9c57612c256147c5565b8116906040516352d1902d60e01b8152602081600481865afa5f9181612d3f575b50612c6457604051634c9c8ce360e01b815260048101849052602490fd5b7f360894a13ba1a3210667c828492db98dca3e2076cc3735a920a3ca505d382bbc92919290818103612d275750823b15612d0e5780546001600160a01b03191682179055604051907fbc7cd75a20ee27fd9adebab32041f755214dbc6bffa90cc0225b39da2e5c2d3b5f80a2825115612cf557505f8083602061096495519101845af4612cef6145a3565b91615625565b91505034612cff57005b63b398979f60e01b8152600490fd5b604051634c9c8ce360e01b815260048101839052602490fd5b60249060405190632a87526960e21b82526004820152fd5b9091506020813d602011612d6b575b81612d5b6020938361403f565b8101031261035c57519085612c46565b3d9150612d4e565b9050817f360894a13ba1a3210667c828492db98dca3e2076cc3735a920a3ca505d382bbc5416141584612c18565b3461035c5760208060031936011261035c57600435612dbe614643565b612dc661466d565b805f525f825260405f20612dd861469c565b8154916001600160a01b0391828416908316036110915760ff8360f01c166007811015610c2257600203610c1057600181019182549260ff8460c01c1661107f57612e4d9383612e8a88856003829801549460058501612e82815497612710612e418a83614583565b9d8e92600d5490614590565b0498612e598a83614583565b60ff60c01b198616600160c01b178c556001600160f01b03909f1661050560f01b178955614376565b905516614afc565b836009541680612fa8575b5088846010541680612f07575b505095839291610dcc7f93e901cc5aea20ea9655887d9290a3215a5b3999c024812f4e4b749f7534349c986040989796600f54168c81610e7257505085600e54168c81610e225750508585541690610dc6600282019560048988541693015490614376565b84548354604051630100160360e01b81526001600160a01b038984168116600483015260a09390931c61ffff16602482015260056044820152606481018d905290881691909116608482015296508690815f8160a4810103925af18015610f715788958a9115612ea2579080929594939796503d8311612fa1575b612f8c818361403f565b8101031261035c57909193869394888a612ea2565b503d612f82565b83548254604051630100160360e01b81526001600160a01b038884168116600483015260a09390931c61ffff1660248201526005604482015260648101899052908716919091166084820152908a9081908390815f8160a4810103925af1918261306b575b5050613066575f80856009541686865416828d60405190810192636902622f60e11b8452602482015260406044820152613051816110236064820160068b01614196565b51925af15061305e6145a3565b505b89612e95565b613060565b90809297503d8311613093575b613082818361403f565b8101031261035c578794898b61300d565b503d613078565b3461035c575f36600319011261035c576020600754604051908152f35b3461035c576109646130c836614227565b90604051926130d684613fd3565b5f8452611f83838383614383565b3461035c575f36600319011261035c576130fc6147c5565b5f80516020615709833981519152805460ff8116156131465760ff191690557f5db9ee0a495bf2e6ff9c91a7834c1ba4fdd244a5e8aa4e537bd38aeae4b073aa602061269e61469c565b604051638dfc202b60e01b8152600490fd5b3461035c57604036600319011261035c57613171614076565b6001600160a01b038061318261469c565b16908216036131975761096490600435614dc7565b60405163334bd91960e11b8152600490fd5b3461035c576131b73661425c565b6131bf61466d565b6131c761469c565b6008546001600160a01b0391908216908216036110915760207f394027a5fa6e098a1191094d1719d6929b9abc535fcc0c8f448d6a4e7562227691845f526006825260405f2054805f525f835260405f206003810154906005810161323861323182548095614583565b8094614376565b90558360018803613288578154600360f11b60ff60f01b198216178355600290920154613269945081169116614d2f565b6008541692604051908152a360015f8051602061572983398151915255005b815460ff60f01b1916600560f01b1782556001820180546132c195600292849290916132b5918416614afc565b54169201541690614d2f565b613269565b3461035c57602036600319011261035c576132df614060565b6132e76147c5565b6001600160a01b031680156108a2576001600160601b0360a01b60095416176009555f80f35b3461035c57604036600319011261035c5761096460043561332c614076565b90805f525f805160206156e9833981519152602052613351600160405f20015461482c565b614a9a565b3461035c57602036600319011261035c576004355f525f805160206156e98339815191526020526020600160405f200154604051908152f35b3461035c576109646133a036614227565b91614383565b3461035c575f36600319011261035c576020600d54604051908152f35b3461035c57604036600319011261035c576004356133df614076565b6133e7614643565b815f526020905f60205260405f206133fd61469c565b815493906001600160a01b0390818616908216036110915760ff8560f01c166007811015610c2257610c1057600183810180546001600160a01b031916958316958617905560ff60f01b19909516600160f01b1783555f958652600260208190526040872095969594875b61346e57005b85548710156109645787878285613486849b8b614311565b505416146134d75781613499828a614311565b500154856134a7838b614311565b5054165f526004875260405f2086868a0154165f5287526134cd60405f20918254614376565b90555b0196613468565b816134e2828a614311565b50015460048801556134d0565b3461035c57602036600319011261035c576004355f525f60205260405f20805460018060a01b0390600660ff8260f01c1660018501549461ffff918560028301541660038301549060048401549261355d600586015495613556604051809a819301614196565b038861403f565b604051996101c0968a8a168c5263ffffffff8a60a01c1660208d015265ffffffffffff8a60c01c1660408d01526007831015610c22578b9a6109f29a60ff9460608e015260f81c60808d0152821660a08c0152808260a01c1660c08c01528160b01c1660e08b015260c01c161515610100890152610120880152610140870152610160860152610180850152806101a0850152830190614139565b3461035c57602036600319011261035c576004355f526005602052602060405f2054604051908152f35b3461035c57602036600319011261035c5760043561363e614778565b6103e88111610c1057600d55005b3461035c57604036600319011261035c57613665614060565b60243561367061469c565b9161367a8261471f565b6001600160a01b039390919084168015158061372a575b8061370c575b6136f4575083169282918491167f8c5be1e5ebec7d5bd14f71427d1e84f3dd0314c0f7b2291e5b200ac8c7c3b9255f80a45f9081525f805160206157498339815191526020526040902080546001600160a01b0319169091179055005b6024906040519063a9fbf51f60e01b82526004820152fd5b50613716836142aa565b815f5260205260ff60405f20541615613697565b50808584161415613691565b3461035c57602036600319011261035c576004356137538161471f565b505f525f80516020615749833981519152602052602060018060a01b0360405f205416604051908152f35b3461035c575f36600319011261035c576040515f805160206156898339815191528054825f6137ac8361415e565b92838352602094600191866001821691825f146124d75750506001146137da57505061247c9250038361403f565b8592505f525f80516020615789833981519152905f915b85831061380957505061247c9350820101858061246e565b805483890185015287945086939092019181016137f1565b3461035c575f36600319011261035c576009546040516001600160a01b039091168152602090f35b60031960203682011261035c576001600160401b036004351161035c5761010080916004353603011261035c576040519081018181106001600160401b0382111761077c576040526004356004013581526138a860246004350161408c565b60208201526138bb60446004350161408c565b604082015260043560648101356060830152608401356001600160401b03811161035c576138f09060043691813501016140bb565b608082015260043560a481013560a083015260c401356001600160401b03811161035c57366023826004350101121561035c576139336004828135010135614101565b90613941604051928361403f565b6004803582019081013580845260208401913660059290921b016024011161035c576024826004350101905b6004803584019081013560051b016024018210613f3e5750505060c082015260e460043501356001600160401b03811161035c57366023826004350101121561035c576004818135010135906139c282614101565b916139d0604051938461403f565b80835260208301913660248360051b836004350101011161035c576024816004350101925b60248360051b836004350101018410613f0757858560e0820152613a17614643565b613a1f61466d565b60408101516001600160a01b031615613eca576040810151613a5a906001600160a01b0316613a4c61469c565b9060608401519130916146d6565b6007545f198114610bfc576001810160078190555f9081526020819052604090206001600160a01b03613a8b61469c565b166001600160601b0360a01b908183541617825560018060a01b0360208501511690818160018501541617600184015560018060a01b03604086015116600284019182541617905560608401516003830155155f14613ec057613aef5f5b8261433e565b60808301519283516001600160401b03811161077c57613b12600684015461415e565b601f8111613e7c575b506020601f8211600114613e115781929394955f92613e06575b50508160011b915f199060031b1c19161760068301555b8051600183015461ffff60b01b60c08401515160b01b169161ffff60a01b9060a01b169063ffffffff60a01b1916171760018301555f5b60c08201518051821015613d415781613b9b91614362565b51613baa8260e0850151614362565b5190604051908160608101106001600160401b0360608401111761077c57606082016040528152602081019182525f6040820152600186015f52600160205260405f20835f5260205260405f209181518355518051906001600160401b03821161077c57613c1b600185015461415e565b601f8111613cfd575b50602090601f8311600114613c8757613c76938360019796946002946040945f92613c7c575b50505f19600383901b1c191690881b17848801555b0151151591019060ff801983541691151516179055565b01613b83565b015190508c80613c4a565b90600185015f5260205f20915f5b601f1985168110613ce5575093600184600294604094613c7698849b9a98601f19811610613ccd575b505050811b0187850155613c5f565b01515f1960f88460031b161c191690558c8080613cbe565b91926020600181928685015181550194019201613c95565b600185015f5260205f20601f840160051c810160208510613d3a575b601f830160051c82018110613d2f575050613c24565b5f8155600101613d19565b5080613d19565b83858460a081015180155f14613dfd575062093a80420192834211610bfc576020935b815465ffffffffffff60c01b19811660c092831b65ffffffffffff60c01b1617928390558386015160609490940151604080519182529390921c65ffffffffffff16828701526001600160a01b0393841693169160018501917f9f708ef692516d5076ae0cb779688ef01c75caad86fb2e2fa1b80612ee7e64a49190a460015f8051602061572983398151915255600160405191018152f35b92602093613d64565b015190508580613b35565b600684015f5260205f20905f5b601f1984168110613e64575060019394959683601f19811610613e4c575b505050811b016006830155613b4c565b01515f1960f88460031b161c19169055858080613e3c565b9091602060018192858b015181550193019101613e1e565b600684015f5260205f20601f830160051c810160208410613eb9575b601f830160051c82018110613eae575050613b1b565b5f8155600101613e98565b5080613e98565b613aef6001613ae9565b6060810151341015613a5a5760405162461bcd60e51b81526020600482015260096024820152684c6f772076616c756560b81b6044820152606490fd5b8335906001600160401b03821161035c5760208091613f31602494853691886004350101016140bb565b81520194019390506139f5565b813581526020918201910161396d565b3461035c57602036600319011261035c576004359063ffffffff60e01b821680920361035c57602091637965db0b60e01b8114908115613f90575b5015158152f35b6380ac58cd60e01b811491508115613fc2575b8115613fb1575b5083613f89565b6301ffc9a760e01b14905083613faa565b635b5e139f60e01b81149150613fa3565b602081019081106001600160401b0382111761077c57604052565b60a081019081106001600160401b0382111761077c57604052565b608081019081106001600160401b0382111761077c57604052565b604081019081106001600160401b0382111761077c57604052565b90601f801991011681019081106001600160401b0382111761077c57604052565b600435906001600160a01b038216820361035c57565b602435906001600160a01b038216820361035c57565b35906001600160a01b038216820361035c57565b6001600160401b03811161077c57601f01601f191660200190565b81601f8201121561035c578035906140d2826140a0565b926140e0604051948561403f565b8284526020838301011161035c57815f926020809301838601378301015290565b6001600160401b03811161077c5760051b60200190565b5f5b8381106141295750505f910152565b818101518382015260200161411a565b9060209161415281518092818552858086019101614118565b601f01601f1916010190565b90600182811c9216801561418c575b602083101461417857565b634e487b7160e01b5f52602260045260245ffd5b91607f169161416d565b80545f93926141a48261415e565b918282526020936001916001811690815f1461420857506001146141ca575b5050505050565b90939495505f92919252835f2092845f945b8386106141f457505050500101905f808080806141c3565b8054858701830152940193859082016141dc565b60ff19168685015250505090151560051b010191505f808080806141c3565b606090600319011261035c576001600160a01b0390600435828116810361035c5791602435908116810361035c579060443590565b604090600319011261035c576004359060243590565b6001600160a01b03165f9081527f80bb2b638cc20bc4d0a60d66940f3ab4a00c1d7b313497ca82fb0b4ab00793036020526040902090565b6001600160a01b03165f9081527f80bb2b638cc20bc4d0a60d66940f3ab4a00c1d7b313497ca82fb0b4ab00793056020526040902090565b604090600319011261035c576004356001600160a01b038116810361035c5790602435801515810361035c5790565b805482101561432a575f5260205f209060011b01905f90565b634e487b7160e01b5f52603260045260245ffd5b906007811015610c2257815460ff60f01b191660f09190911b60ff60f01b16179055565b805182101561432a5760209160051b010190565b91908201809211610bfc57565b90916001600160a01b0380841692831561456b57826143a061469c565b94815f527f80bb2b638cc20bc4d0a60d66940f3ab4a00c1d7b313497ca82fb0b4ab00793028060205260409785895f2054169786811680151590816144a4575b5050506143f1908861446857614272565b60018154019055825f52602052865f20816001600160601b0360a01b825416179055857fddf252ad1be2c89b69c2b068fc378daa952ba7f163c4a11628f55a4df523b3ef5f80a416928383036144475750505050565b6064945051926364283d7b60e01b8452600484015260248301526044820152fd5b5f8581525f805160206157498339815191526020526040902080546001600160a01b031916905561449889614272565b80545f19019055614272565b908092939495965091614510575b50156144c457908180889594936143e0565b88879189155f146144e7578151637e27328960e01b815260048101849052602490fd5b905163177e802f60e01b81526001600160a01b0390911660048201526024810191909152604490fd5b8981149150811561454d575b811561452a575b505f6144b2565b9050875f525f80516020615749833981519152602052868a5f205416145f614523565b9050614558896142aa565b815f5260205260ff8a5f2054169061451c565b604051633250574960e11b81525f6004820152602490fd5b91908203918211610bfc57565b81810292918115918404141715610bfc57565b3d156145cd573d906145b4826140a0565b916145c2604051938461403f565b82523d5f602084013e565b606090565b6001600160a01b0390811690811561462b575f805160206156c983398151915280546001600160a01b031981168417909155167f8be0079c531659141344cd1fd0a4f28419497f9722a3daafe3b4186f6b6457e05f80a3565b604051631e4fbdf760e01b81525f6004820152602490fd5b60ff5f80516020615709833981519152541661465b57565b60405163d93c066560e01b8152600490fd5b5f80516020615729833981519152600281541461468a5760029055565b604051633ee5aeb560e01b8152600490fd5b600a546001600160a01b03163314806146cb575b6146b8573390565b6013193601368111610bfc573560601c90565b5060143610156146b0565b6040516323b872dd60e01b60208201526001600160a01b03928316602482015292909116604483015260648083019390935291815261471d9161471882613fee565b614f6b565b565b5f8181527f80bb2b638cc20bc4d0a60d66940f3ab4a00c1d7b313497ca82fb0b4ab007930260205260409020546001600160a01b0316908115614760575090565b60249060405190637e27328960e01b82526004820152fd5b5f805160206156c9833981519152546001600160a01b039081168161479b61469c565b16036147a45750565b6024906147af61469c565b60405163118cdaa760e01b815291166004820152fd5b6147cd61469c565b6001600160a01b03165f8181527fb7db2dd08fcb62d0c9e08c51941cae53c267786a0b75803fb7960902fc8ef97d602052604090205460ff161561480e5750565b6044906040519063e2517d3f60e01b825260048201525f6024820152fd5b61483461469c565b90805f525f805160206156e983398151915260205260405f209160018060a01b031691825f5260205260ff60405f2054161561486e575050565b604492506040519163e2517d3f60e01b835260048301526024820152fd5b6001600160a01b039081165f8181527fb7db2dd08fcb62d0c9e08c51941cae53c267786a0b75803fb7960902fc8ef97d60205260409020549091905f805160206156e98339815191529060ff16614930575f805260205260405f20825f5260205260405f20600160ff1982541617905561490461469c565b16905f7f2f8788117e7eff1d82e926ec794901d17c78024a50270940304540a733656f0d8180a4600190565b5050505f90565b6001600160a01b039081165f8181527f06484cc59dc38e4f67c31122333a17ca81b3ca18cdf02bfc298072fa52b0316a60205260409020547f241ecf16d79d0f8dbfb92cbc07fe17840425976cf0667f022fe9877caa831b0892905f805160206156e98339815191529060ff166149fa57835f5260205260405f20825f5260205260405f20600160ff198254161790556149cf61469c565b16917f2f8788117e7eff1d82e926ec794901d17c78024a50270940304540a733656f0d5f80a4600190565b505050505f90565b6001600160a01b039081165f8181527fb5865ad506d0087b5b9864aee427988fc7aba8f4c8ec58b6dc2d0ddfb14bee8460205260409020547f16ceee8289685dd2a02b9c8ae81d2df373176ce53519e6284e2a2950d6546ffa92905f805160206156e98339815191529060ff166149fa57835f5260205260405f20825f5260205260405f20600160ff198254161790556149cf61469c565b5f8181525f805160206156e9833981519152602081815260408084206001600160a01b039687168086529252909220549293919260ff166149fa57835f5260205260405f20825f5260205260405f20600160ff198254161790556149cf61469c565b906040805192614b0b84613fd3565b5f84526001600160a01b0393818516938415614d1857805f527f80bb2b638cc20bc4d0a60d66940f3ab4a00c1d7b313497ca82fb0b4ab007930295602096808852828783885f2054168015159384614cdc575b614b6789614272565b60018154019055835f528b52885f20826001600160601b0360a01b8254161790557fddf252ad1be2c89b69c2b068fc378daa952ba7f163c4a11628f55a4df523b3ef5f80a4614cc557614bb861469c565b933b614bc8575b50505050505050565b90869794959691614c0787519485938493630a85bd0160e11b988986521660048501525f60248501526044840152608060648401526084830190614139565b03815f895af15f9181614c85575b50614c4c57505050614c256145a3565b8051939084614c46578251633250574960e11b815260048101859052602490fd5b84925001fd5b9194506001600160e01b031990911603614c6e5750505f808080808080614bbf565b602492505190633250574960e11b82526004820152fd5b9091508681813d8311614cbe575b614c9d818361403f565b8101031261035c57516001600160e01b03198116810361035c57905f614c15565b503d614c93565b84516339e3563760e11b81525f6004820152602490fd5b5f8481525f805160206157498339815191526020526040902080546001600160a01b0319169055614d0c82614272565b80545f19019055614b5e565b8351633250574960e11b81525f6004820152602490fd5b6001600160a01b0391821680614d8857505f809381938293165af1614d526145a3565b5015614d5a57565b60405162461bcd60e51b815260206004820152600660248201526519985a5b195960d21b6044820152606490fd5b60405163a9059cbb60e01b60208201526001600160a01b0392909216602483015260448083019490945292815261471d9290915061471860648361403f565b5f8181525f805160206156e9833981519152602081815260408084206001600160a01b039687168086529252909220549293919260ff16156149fa57835f5260205260405f20825f5260205260405f2060ff198154169055614e2761469c565b16917ff6391f5c32d9c69d2a47ea670b442974b53935d1edc7fd64eb21e047a839171b5f80a4600190565b9291803b614e61575050505050565b604051630a85bd0160e11b8082526001600160a01b03958616600483015292851660248201526044810193909352608060648401529092169260209082908190614eaf906084830190614139565b03815f875af15f9181614f26575b50614ef45782614ecb6145a3565b8051919082614eed57604051633250574960e11b815260048101839052602490fd5b6020915001fd5b6001600160e01b03191603614f0e57505f808080806141c3565b60249060405190633250574960e11b82526004820152fd5b9091506020813d602011614f63575b81614f426020938361403f565b8101031261035c57516001600160e01b03198116810361035c57905f614ebd565b3d9150614f35565b905f602091828151910182855af115610f71575f513d614fbc57506001600160a01b0381163b155b614f9a5750565b604051635274afe760e01b81526001600160a01b039091166004820152602490fd5b60011415614f93565b60405190606082018281106001600160401b0382111761077c57604052604082527f6768696a6b6c6d6e6f707172737475767778797a303132333435363738392b2f6040837f4142434445464748494a4b4c4d4e4f505152535455565758595a61626364656660208201520152565b9061503e826140a0565b61504b604051918261403f565b828152809261505c601f19916140a0565b0190602036910137565b805f917a184f03e93ff9f4daa797ed6e38ed64bf6a1f0100000000000000008082101561519a575b506d04ee2d6d415b85acef81000000008083101561518b575b50662386f26fc100008083101561517c575b506305f5e1008083101561516d575b506127108083101561515e575b50606482101561514e575b600a80921015615144575b6001908160216150fd60018701615034565b95860101905b61510f575b5050505090565b5f19019083906f181899199a1a9b1b9c1cb0b131b232b360811b8282061a83530491821561513f57919082615103565b615108565b91600101916150eb565b91906064600291049101916150e0565b6004919392049101915f6150d5565b6008919392049101915f6150c8565b6010919392049101915f6150b9565b6020919392049101915f6150a7565b60409350810491505f61508e565b600181146152565760028114615233576003811461520d576004146151ea576040516151d381614024565b600781526611d95b995c985b60ca1b602082015290565b6040516151f681614024565b600781526657726974696e6760c81b602082015290565b5060405161521a81614024565b60098152684d61726b6574696e6760b81b602082015290565b5060405161524081614024565b60068152652232b9b4b3b760d11b602082015290565b5060405161526381614024565b600b81526a11195d995b1bdc1b595b9d60aa1b602082015290565b60ff7ff0c57e16840df040f15088dc2f81fe391c3923bec73e23a9662efc9c229c6a005460401c16156152ad57565b604051631afcd79f60e31b8152600490fd5b60ff1660048110156153f4576003811461538f5761532b576040516152e381614024565b60078152662334663436653560c81b60208201529060405161530481614024565b60078152662339333333656160c81b60208201529060405161532581613fd3565b5f815290565b60405161533781614024565b600781526611a1a21ba3199960c91b60208201529060405161535881614024565b60078152662338423435313360c81b60208201529060405161537981614024565b600681526542524f4e5a4560d01b602082015290565b5060405161539c81614024565b60078152660234330433043360cc1b6020820152906040516153bd81614024565b60078152660233830383038360cc1b6020820152906040516153de81614024565b600681526529a4a62b22a960d11b602082015290565b5060405161540181614024565b60078152660234646443730360cc1b60208201529060405161542281614024565b60078152660234646413530360cc1b60208201529060405161544381614024565b600481526311d3d31160e21b602082015290565b60ff166005811461550a57600481146154e957600381146154c957600281146154aa5760011461548d5760405161532581613fd3565b60405161549981614024565b60018152601560f91b602082015290565b506040516154b781614024565b6002815261151560f11b602082015290565b506040516154d681614024565b600381526215151560e91b602082015290565b506040516154f681614024565b60048152631515151560e11b602082015290565b5060405161551781614024565b6005815264151515151560d91b602082015290565b9190918051156156165780519260029160028501809511610bfc576003948590046001600160fe1b0381168103610bfc5761556c9060029694961b615034565b9260208401928291835184019760208901928351945f85525b8a81106155c9575050505060039394959650525106806001146155b7576002146155ad575090565b603d905f19015390565b50603d90815f19820153600119015390565b836004919b989b019a8b51600190603f9082828260121c16870101518453828282600c1c16870101518385015382828260061c168701015187850153168401015185820153019699615585565b50905060405161532581613fd3565b9061564c575080511561563a57602081519101fd5b60405163d6bda27560e01b8152600490fd5b8151158061567f575b61565d575090565b604051639996b31560e01b81526001600160a01b039091166004820152602490fd5b50803b1561565556fe80bb2b638cc20bc4d0a60d66940f3ab4a00c1d7b313497ca82fb0b4ab0079300f4bad0a69248f59680a4f2b3000328cec71a413447c96781cfe5996daa8c456e9016d09d72d40fdae2fd8ceac6b6234c7706214fd39c1cd1e609a0528c19930002dd7bc7dec4dceedda775e58dd541e08a116c6c53815c0bd028192f7b626800cd5ed15c6e187e77e9aee88184c21f4f2182ab5827cb3b7e07fbedcd63f033009b779b17422d0df92223018b32b4d1fa46e071723d6817e2486d003becc55f0080bb2b638cc20bc4d0a60d66940f3ab4a00c1d7b313497ca82fb0b4ab007930480bb2b638cc20bc4d0a60d66940f3ab4a00c1d7b313497ca82fb0b4ab007930137c58c799b6609234b945e882912ee9ad34948a1dfaa20a97485e1a7752bbf81a26469706673582212205bec54b625590bd819bd39902bacc21d45d06aadbd1f2fb2a16c82e876fc861664736f6c63430008180033",
  "linkReferences": {},
  "deployedLinkReferences": {}
}